{
  "deployments": [
    {
      "transactions": [
        {
          "hash": "0x3efe8c78991f477ea8366bd31f9a88fc9251b498890cc11a59d4b65ee6d7c4c9",
          "transactionType": "CALL",
          "contractName": null,
          "contractAddress": "0xba5ed099633d3b313e4d5f7bdc1305d3c28ba5ed",
          "function": "deployCreate3(bytes32,bytes)",
          "arguments": [
            "0xace07c3c1d3b556d42633211f0da71dc6f6d1c4200740ad9e1efe7204e69c77e",
            "0x60a034606e57601f61062738819003918201601f19168301916001600160401b03831184841017607257808492602094604052833981010312606e57516001600160a01b03811690819003606e576080526040516105a090816100878239608051818181607301526102e50152f35b5f80fd5b634e487b7160e01b5f52604160045260245ffdfe6080806040526004361015610012575f80fd5b5f3560e01c908163153ed33b146103da5750806327a98b92146102ab57806369901858146101455780639e31738314610105578063b21d03b6146100a65763fbaef75e1461005e575f80fd5b346100a2575f3660031901126100a2576040517f00000000000000000000000000000000000000000000000000000000000000006001600160a01b03168152602090f35b5f80fd5b346100a25760403660031901126100a2576100bf610413565b6100c7610429565b9060018060a01b03165f525f60205260405f209060018060a01b03165f526020526040805f2060ff6001825492015416825191825215156020820152f35b346100a25760603660031901126100a25761011e610413565b610126610429565b604435906001600160a01b03821682036100a2576101439261043f565b005b60603660031901126100a257610159610413565b610161610429565b6001600160a01b03818116929081169160443591848410919082156102a55781905b60018060a01b03165f525f60205260405f209060018060a01b03165f5260205260405f2091825415610286575b508461021e575081340361020f575b8054908282018092116101fb57556040519081527f606a2f12765315179d29655723ac209c5abb6ea2f0c648f179d4f3bfd20e83ed60203392a4005b634e487b7160e01b5f52601160045260245ffd5b63090ac0d760e21b5f5260045ffd5b3461020f576040519083606052306040523360601b602c526323b872dd60601b600c5260205f6064601c82855af1908160015f51141615610268575b50505f6060526040526101bf565b3b153d17101561027957858061025a565b637939f4245f526004601cfd5b61029f90600184019060ff801983541691151516179055565b856101b0565b81610183565b346100a25760403660031901126100a2576102c4610413565b60243580151581036100a257604051638da5cb5b60e01b81526020816004817f00000000000000000000000000000000000000000000000000000000000000006001600160a01b03165afa9081156103cf575f91610364575b506001600160a01b03163303610355576101439160018060a01b03165f52600160205260405f209060ff801983541691151516179055565b630cb1a3fb60e41b5f5260045ffd5b905060203d6020116103c8575b601f8101601f191682016001600160401b038111838210176103b4576020918391604052810103126100a257516001600160a01b03811681036100a2578361031d565b634e487b7160e01b5f52604160045260245ffd5b503d610371565b6040513d5f823e3d90fd5b346100a25760203660031901126100a2576020906001600160a01b036103fe610413565b165f526001825260ff60405f20541615158152f35b600435906001600160a01b03821682036100a257565b602435906001600160a01b03821682036100a257565b919091335f52600160205260ff60405f20541615610584576001600160a01b038181165f9081526020818152604080832093871683529290522080549190821561057d57805f60019255019360ff8554165f146105765780945b6001600160a01b038616958661051f57505f38818087895af1156105125760ff905b54161561050a5750905b604080516001600160a01b0394851681526020810192909252919092169133917f55a6bb5f8b10d2919d59ad3247217d9110cd5d75b60dfb779f3616ff452962cc91a4565b9050906104c5565b63b12d13eb5f526004601cfd5b856014528460345263a9059cbb60601b5f5260205f6044601082855af1908160015f51141615610558575b505060ff905f6034526104bb565b3b153d171015610569575f8061054a565b6390b8ec185f526004601cfd5b8194610499565b5050505050565b632aad004360e11b5f5260045ffdfea164736f6c634300081a000a000000000000000000000000de3599a2ec440b296373a983c85c365da55d9dfa"
          ],
          "transaction": {
            "from": "0xace07c3c1d3b556d42633211f0da71dc6f6d1c42",
            "to": "0xba5ed099633d3b313e4d5f7bdc1305d3c28ba5ed",
            "gas": "0x8a388",
            "value": "0x0",
            "input": "0x9c36a286ace07c3c1d3b556d42633211f0da71dc6f6d1c4200740ad9e1efe7204e69c77e0000000000000000000000000000000000000000000000000000000000000040000000000000000000000000000000000000000000000000000000000000064760a034606e57601f61062738819003918201601f19168301916001600160401b03831184841017607257808492602094604052833981010312606e57516001600160a01b03811690819003606e576080526040516105a090816100878239608051818181607301526102e50152f35b5f80fd5b634e487b7160e01b5f52604160045260245ffdfe6080806040526004361015610012575f80fd5b5f3560e01c908163153ed33b146103da5750806327a98b92146102ab57806369901858146101455780639e31738314610105578063b21d03b6146100a65763fbaef75e1461005e575f80fd5b346100a2575f3660031901126100a2576040517f00000000000000000000000000000000000000000000000000000000000000006001600160a01b03168152602090f35b5f80fd5b346100a25760403660031901126100a2576100bf610413565b6100c7610429565b9060018060a01b03165f525f60205260405f209060018060a01b03165f526020526040805f2060ff6001825492015416825191825215156020820152f35b346100a25760603660031901126100a25761011e610413565b610126610429565b604435906001600160a01b03821682036100a2576101439261043f565b005b60603660031901126100a257610159610413565b610161610429565b6001600160a01b03818116929081169160443591848410919082156102a55781905b60018060a01b03165f525f60205260405f209060018060a01b03165f5260205260405f2091825415610286575b508461021e575081340361020f575b8054908282018092116101fb57556040519081527f606a2f12765315179d29655723ac209c5abb6ea2f0c648f179d4f3bfd20e83ed60203392a4005b634e487b7160e01b5f52601160045260245ffd5b63090ac0d760e21b5f5260045ffd5b3461020f576040519083606052306040523360601b602c526323b872dd60601b600c5260205f6064601c82855af1908160015f51141615610268575b50505f6060526040526101bf565b3b153d17101561027957858061025a565b637939f4245f526004601cfd5b61029f90600184019060ff801983541691151516179055565b856101b0565b81610183565b346100a25760403660031901126100a2576102c4610413565b60243580151581036100a257604051638da5cb5b60e01b81526020816004817f00000000000000000000000000000000000000000000000000000000000000006001600160a01b03165afa9081156103cf575f91610364575b506001600160a01b03163303610355576101439160018060a01b03165f52600160205260405f209060ff801983541691151516179055565b630cb1a3fb60e41b5f5260045ffd5b905060203d6020116103c8575b601f8101601f191682016001600160401b038111838210176103b4576020918391604052810103126100a257516001600160a01b03811681036100a2578361031d565b634e487b7160e01b5f52604160045260245ffd5b503d610371565b6040513d5f823e3d90fd5b346100a25760203660031901126100a2576020906001600160a01b036103fe610413565b165f526001825260ff60405f20541615158152f35b600435906001600160a01b03821682036100a257565b602435906001600160a01b03821682036100a257565b919091335f52600160205260ff60405f20541615610584576001600160a01b038181165f9081526020818152604080832093871683529290522080549190821561057d57805f60019255019360ff8554165f146105765780945b6001600160a01b038616958661051f57505f38818087895af1156105125760ff905b54161561050a5750905b604080516001600160a01b0394851681526020810192909252919092169133917f55a6bb5f8b10d2919d59ad3247217d9110cd5d75b60dfb779f3616ff452962cc91a4565b9050906104c5565b63b12d13eb5f526004601cfd5b856014528460345263a9059cbb60601b5f5260205f6044601082855af1908160015f51141615610558575b505060ff905f6034526104bb565b3b153d171015610569575f8061054a565b6390b8ec185f526004601cfd5b8194610499565b5050505050565b632aad004360e11b5f5260045ffdfea164736f6c634300081a000a000000000000000000000000de3599a2ec440b296373a983c85c365da55d9dfa00000000000000000000000000000000000000000000000000",
            "nonce": "0x11",
            "chainId": "0x1"
          },
          "additionalContracts": [
            {
              "transactionType": "CREATE2",
              "contractName": null,
              "address": "0x3e3edf1729c22b846e357b017871e51c2368666f",
              "initCode": "0x67363d3d37363d34f03d5260086018f3"
            },
            {
              "transactionType": "CREATE",
              "contractName": "TopUpDistributor",
              "address": "0xd8f05757b7d638a48fd14e15eb6782bab50ad57f",
              "initCode": "0x60a034606e57601f61062738819003918201601f19168301916001600160401b03831184841017607257808492602094604052833981010312606e57516001600160a01b03811690819003606e576080526040516105a090816100878239608051818181607301526102e50152f35b5f80fd5b634e487b7160e01b5f52604160045260245ffdfe6080806040526004361015610012575f80fd5b5f3560e01c908163153ed33b146103da5750806327a98b92146102ab57806369901858146101455780639e31738314610105578063b21d03b6146100a65763fbaef75e1461005e575f80fd5b346100a2575f3660031901126100a2576040517f00000000000000000000000000000000000000000000000000000000000000006001600160a01b03168152602090f35b5f80fd5b346100a25760403660031901126100a2576100bf610413565b6100c7610429565b9060018060a01b03165f525f60205260405f209060018060a01b03165f526020526040805f2060ff6001825492015416825191825215156020820152f35b346100a25760603660031901126100a25761011e610413565b610126610429565b604435906001600160a01b03821682036100a2576101439261043f565b005b60603660031901126100a257610159610413565b610161610429565b6001600160a01b03818116929081169160443591848410919082156102a55781905b60018060a01b03165f525f60205260405f209060018060a01b03165f5260205260405f2091825415610286575b508461021e575081340361020f575b8054908282018092116101fb57556040519081527f606a2f12765315179d29655723ac209c5abb6ea2f0c648f179d4f3bfd20e83ed60203392a4005b634e487b7160e01b5f52601160045260245ffd5b63090ac0d760e21b5f5260045ffd5b3461020f576040519083606052306040523360601b602c526323b872dd60601b600c5260205f6064601c82855af1908160015f51141615610268575b50505f6060526040526101bf565b3b153d17101561027957858061025a565b637939f4245f526004601cfd5b61029f90600184019060ff801983541691151516179055565b856101b0565b81610183565b346100a25760403660031901126100a2576102c4610413565b60243580151581036100a257604051638da5cb5b60e01b81526020816004817f00000000000000000000000000000000000000000000000000000000000000006001600160a01b03165afa9081156103cf575f91610364575b506001600160a01b03163303610355576101439160018060a01b03165f52600160205260405f209060ff801983541691151516179055565b630cb1a3fb60e41b5f5260045ffd5b905060203d6020116103c8575b601f8101601f191682016001600160401b038111838210176103b4576020918391604052810103126100a257516001600160a01b03811681036100a2578361031d565b634e487b7160e01b5f52604160045260245ffd5b503d610371565b6040513d5f823e3d90fd5b346100a25760203660031901126100a2576020906001600160a01b036103fe610413565b165f526001825260ff60405f20541615158152f35b600435906001600160a01b03821682036100a257565b602435906001600160a01b03821682036100a257565b919091335f52600160205260ff60405f20541615610584576001600160a01b038181165f9081526020818152604080832093871683529290522080549190821561057d57805f60019255019360ff8554165f146105765780945b6001600160a01b038616958661051f57505f38818087895af1156105125760ff905b54161561050a5750905b604080516001600160a01b0394851681526020810192909252919092169133917f55a6bb5f8b10d2919d59ad3247217d9110cd5d75b60dfb779f3616ff452962cc91a4565b9050906104c5565b63b12d13eb5f526004601cfd5b856014528460345263a9059cbb60601b5f5260205f6044601082855af1908160015f51141615610558575b505060ff905f6034526104bb565b3b153d171015610569575f8061054a565b6390b8ec185f526004601cfd5b8194610499565b5050505050565b632aad004360e11b5f5260045ffdfea164736f6c634300081a000a000000000000000000000000de3599a2ec440b296373a983c85c365da55d9dfa"
            }
          ],
          "isFixedGasLimit": false
        }
      ],
      "receipts": [
        {
          "status": "0x1",
          "cumulativeGasUsed": "0x282aa5e",
          "logs": [
            {
              "address": "0xba5ed099633d3b313e4d5f7bdc1305d3c28ba5ed",
              "topics": [
                "0x2feea65dd4e9f9cbd86b74b7734210c59a1b2981b5b137bd0ee3e208200c9067",
                "0x0000000000000000000000003e3edf1729c22b846e357b017871e51c2368666f",
                "0x11dcd2d620638ce4b66ed115e8e45bbdee444897a644147c26d107eab22146ba"
              ],
              "data": "0x",
              "blockHash": "0xa5becf3137f876ed45bccfe78064ba082a3092d6eb9e130d5e94356c61613dcd",
              "blockNumber": "0x1762961",
              "blockTimestamp": "0x699c8d23",
              "transactionHash": "0x3efe8c78991f477ea8366bd31f9a88fc9251b498890cc11a59d4b65ee6d7c4c9",
              "transactionIndex": "0x1b1",
              "logIndex": "0x461",
              "removed": false
            },
            {
              "address": "0xba5ed099633d3b313e4d5f7bdc1305d3c28ba5ed",
              "topics": [
                "0x4db17dd5e4732fb6da34a148104a592783ca119a1e7bb8829eba6cbadef0b511",
                "0x000000000000000000000000d8f05757b7d638a48fd14e15eb6782bab50ad57f"
              ],
              "data": "0x",
              "blockHash": "0xa5becf3137f876ed45bccfe78064ba082a3092d6eb9e130d5e94356c61613dcd",
              "blockNumber": "0x1762961",
              "blockTimestamp": "0x699c8d23",
              "transactionHash": "0x3efe8c78991f477ea8366bd31f9a88fc9251b498890cc11a59d4b65ee6d7c4c9",
              "transactionIndex": "0x1b1",
              "logIndex": "0x462",
              "removed": false
            }
          ],
          "logsBloom": "0x00020000000000000000000000000000000000000000000000000000200000000000000040400000000000000000000000000000000004000000000000000000000000000000000000000000020000000000000000000000000000000000000000000000000000000000000002000000000000000420000000000000002000000000000000000000000000000000000000000000000000000000004000200000000000000040000000000000000000000000000000000000800000000000000000000000000000000200000000000000000000002000000000000010000000000000000000000200000000000000000000000000000000000000000000000000",
          "type": "0x2",
          "transactionHash": "0x3efe8c78991f477ea8366bd31f9a88fc9251b498890cc11a59d4b65ee6d7c4c9",
          "transactionIndex": "0x1b1",
          "blockHash": "0xa5becf3137f876ed45bccfe78064ba082a3092d6eb9e130d5e94356c61613dcd",
          "blockNumber": "0x1762961",
          "gasUsed": "0x6411d",
          "effectiveGasPrice": "0xd9fef83",
          "from": "0xace07c3c1d3b556d42633211f0da71dc6f6d1c42",
          "to": "0xba5ed099633d3b313e4d5f7bdc1305d3c28ba5ed",
          "contractAddress": null
        }
      ],
      "libraries": [],
      "pending": [],
      "returns": {},
      "timestamp": 1771867422085,
      "chain": 1,
      "commit": "4ef84c4"
    },
    {
      "transactions": [
        {
          "hash": "0xceb7802b94bfceba3546edfb968ba8691be8a570a152c8c5499eeab740a54bd3",
          "transactionType": "CALL",
          "contractName": null,
          "contractAddress": "0xba5ed099633d3b313e4d5f7bdc1305d3c28ba5ed",
          "function": "deployCreate3(bytes32,bytes)",
          "arguments": [
            "0xace07c3c1d3b556d42633211f0da71dc6f6d1c4200740ad9e1efe7204e69c77e",
            "0x60a034606e57601f61062738819003918201601f19168301916001600160401b03831184841017607257808492602094604052833981010312606e57516001600160a01b03811690819003606e576080526040516105a090816100878239608051818181607301526102e50152f35b5f80fd5b634e487b7160e01b5f52604160045260245ffdfe6080806040526004361015610012575f80fd5b5f3560e01c908163153ed33b146103da5750806327a98b92146102ab57806369901858146101455780639e31738314610105578063b21d03b6146100a65763fbaef75e1461005e575f80fd5b346100a2575f3660031901126100a2576040517f00000000000000000000000000000000000000000000000000000000000000006001600160a01b03168152602090f35b5f80fd5b346100a25760403660031901126100a2576100bf610413565b6100c7610429565b9060018060a01b03165f525f60205260405f209060018060a01b03165f526020526040805f2060ff6001825492015416825191825215156020820152f35b346100a25760603660031901126100a25761011e610413565b610126610429565b604435906001600160a01b03821682036100a2576101439261043f565b005b60603660031901126100a257610159610413565b610161610429565b6001600160a01b03818116929081169160443591848410919082156102a55781905b60018060a01b03165f525f60205260405f209060018060a01b03165f5260205260405f2091825415610286575b508461021e575081340361020f575b8054908282018092116101fb57556040519081527f606a2f12765315179d29655723ac209c5abb6ea2f0c648f179d4f3bfd20e83ed60203392a4005b634e487b7160e01b5f52601160045260245ffd5b63090ac0d760e21b5f5260045ffd5b3461020f576040519083606052306040523360601b602c526323b872dd60601b600c5260205f6064601c82855af1908160015f51141615610268575b50505f6060526040526101bf565b3b153d17101561027957858061025a565b637939f4245f526004601cfd5b61029f90600184019060ff801983541691151516179055565b856101b0565b81610183565b346100a25760403660031901126100a2576102c4610413565b60243580151581036100a257604051638da5cb5b60e01b81526020816004817f00000000000000000000000000000000000000000000000000000000000000006001600160a01b03165afa9081156103cf575f91610364575b506001600160a01b03163303610355576101439160018060a01b03165f52600160205260405f209060ff801983541691151516179055565b630cb1a3fb60e41b5f5260045ffd5b905060203d6020116103c8575b601f8101601f191682016001600160401b038111838210176103b4576020918391604052810103126100a257516001600160a01b03811681036100a2578361031d565b634e487b7160e01b5f52604160045260245ffd5b503d610371565b6040513d5f823e3d90fd5b346100a25760203660031901126100a2576020906001600160a01b036103fe610413565b165f526001825260ff60405f20541615158152f35b600435906001600160a01b03821682036100a257565b602435906001600160a01b03821682036100a257565b919091335f52600160205260ff60405f20541615610584576001600160a01b038181165f9081526020818152604080832093871683529290522080549190821561057d57805f60019255019360ff8554165f146105765780945b6001600160a01b038616958661051f57505f38818087895af1156105125760ff905b54161561050a5750905b604080516001600160a01b0394851681526020810192909252919092169133917f55a6bb5f8b10d2919d59ad3247217d9110cd5d75b60dfb779f3616ff452962cc91a4565b9050906104c5565b63b12d13eb5f526004601cfd5b856014528460345263a9059cbb60601b5f5260205f6044601082855af1908160015f51141615610558575b505060ff905f6034526104bb565b3b153d171015610569575f8061054a565b6390b8ec185f526004601cfd5b8194610499565b5050505050565b632aad004360e11b5f5260045ffdfea164736f6c634300081a000a000000000000000000000000de3599a2ec440b296373a983c85c365da55d9dfa"
          ],
          "transaction": {
            "from": "0xace07c3c1d3b556d42633211f0da71dc6f6d1c42",
            "to": "0xba5ed099633d3b313e4d5f7bdc1305d3c28ba5ed",
            "gas": "0x8a388",
            "value": "0x0",
            "input": "0x9c36a286ace07c3c1d3b556d42633211f0da71dc6f6d1c4200740ad9e1efe7204e69c77e0000000000000000000000000000000000000000000000000000000000000040000000000000000000000000000000000000000000000000000000000000064760a034606e57601f61062738819003918201601f19168301916001600160401b03831184841017607257808492602094604052833981010312606e57516001600160a01b03811690819003606e576080526040516105a090816100878239608051818181607301526102e50152f35b5f80fd5b634e487b7160e01b5f52604160045260245ffdfe6080806040526004361015610012575f80fd5b5f3560e01c908163153ed33b146103da5750806327a98b92146102ab57806369901858146101455780639e31738314610105578063b21d03b6146100a65763fbaef75e1461005e575f80fd5b346100a2575f3660031901126100a2576040517f00000000000000000000000000000000000000000000000000000000000000006001600160a01b03168152602090f35b5f80fd5b346100a25760403660031901126100a2576100bf610413565b6100c7610429565b9060018060a01b03165f525f60205260405f209060018060a01b03165f526020526040805f2060ff6001825492015416825191825215156020820152f35b346100a25760603660031901126100a25761011e610413565b610126610429565b604435906001600160a01b03821682036100a2576101439261043f565b005b60603660031901126100a257610159610413565b610161610429565b6001600160a01b03818116929081169160443591848410919082156102a55781905b60018060a01b03165f525f60205260405f209060018060a01b03165f5260205260405f2091825415610286575b508461021e575081340361020f575b8054908282018092116101fb57556040519081527f606a2f12765315179d29655723ac209c5abb6ea2f0c648f179d4f3bfd20e83ed60203392a4005b634e487b7160e01b5f52601160045260245ffd5b63090ac0d760e21b5f5260045ffd5b3461020f576040519083606052306040523360601b602c526323b872dd60601b600c5260205f6064601c82855af1908160015f51141615610268575b50505f6060526040526101bf565b3b153d17101561027957858061025a565b637939f4245f526004601cfd5b61029f90600184019060ff801983541691151516179055565b856101b0565b81610183565b346100a25760403660031901126100a2576102c4610413565b60243580151581036100a257604051638da5cb5b60e01b81526020816004817f00000000000000000000000000000000000000000000000000000000000000006001600160a01b03165afa9081156103cf575f91610364575b506001600160a01b03163303610355576101439160018060a01b03165f52600160205260405f209060ff801983541691151516179055565b630cb1a3fb60e41b5f5260045ffd5b905060203d6020116103c8575b601f8101601f191682016001600160401b038111838210176103b4576020918391604052810103126100a257516001600160a01b03811681036100a2578361031d565b634e487b7160e01b5f52604160045260245ffd5b503d610371565b6040513d5f823e3d90fd5b346100a25760203660031901126100a2576020906001600160a01b036103fe610413565b165f526001825260ff60405f20541615158152f35b600435906001600160a01b03821682036100a257565b602435906001600160a01b03821682036100a257565b919091335f52600160205260ff60405f20541615610584576001600160a01b038181165f9081526020818152604080832093871683529290522080549190821561057d57805f60019255019360ff8554165f146105765780945b6001600160a01b038616958661051f57505f38818087895af1156105125760ff905b54161561050a5750905b604080516001600160a01b0394851681526020810192909252919092169133917f55a6bb5f8b10d2919d59ad3247217d9110cd5d75b60dfb779f3616ff452962cc91a4565b9050906104c5565b63b12d13eb5f526004601cfd5b856014528460345263a9059cbb60601b5f5260205f6044601082855af1908160015f51141615610558575b505060ff905f6034526104bb565b3b153d171015610569575f8061054a565b6390b8ec185f526004601cfd5b8194610499565b5050505050565b632aad004360e11b5f5260045ffdfea164736f6c634300081a000a000000000000000000000000de3599a2ec440b296373a983c85c365da55d9dfa00000000000000000000000000000000000000000000000000",
            "nonce": "0x16",
            "chainId": "0xaa36a7"
          },
          "additionalContracts": [
            {
              "transactionType": "CREATE2",
              "contractName": null,
              "address": "0x3e3edf1729c22b846e357b017871e51c2368666f",
              "initCode": "0x67363d3d37363d34f03d5260086018f3"
            },
            {
              "transactionType": "CREATE",
              "contractName": "TopUpDistributor",
              "address": "0xd8f05757b7d638a48fd14e15eb6782bab50ad57f",
              "initCode": "0x60a034606e57601f61062738819003918201601f19168301916001600160401b03831184841017607257808492602094604052833981010312606e57516001600160a01b03811690819003606e576080526040516105a090816100878239608051818181607301526102e50152f35b5f80fd5b634e487b7160e01b5f52604160045260245ffdfe6080806040526004361015610012575f80fd5b5f3560e01c908163153ed33b146103da5750806327a98b92146102ab57806369901858146101455780639e31738314610105578063b21d03b6146100a65763fbaef75e1461005e575f80fd5b346100a2575f3660031901126100a2576040517f00000000000000000000000000000000000000000000000000000000000000006001600160a01b03168152602090f35b5f80fd5b346100a25760403660031901126100a2576100bf610413565b6100c7610429565b9060018060a01b03165f525f60205260405f209060018060a01b03165f526020526040805f2060ff6001825492015416825191825215156020820152f35b346100a25760603660031901126100a25761011e610413565b610126610429565b604435906001600160a01b03821682036100a2576101439261043f565b005b60603660031901126100a257610159610413565b610161610429565b6001600160a01b03818116929081169160443591848410919082156102a55781905b60018060a01b03165f525f60205260405f209060018060a01b03165f5260205260405f2091825415610286575b508461021e575081340361020f575b8054908282018092116101fb57556040519081527f606a2f12765315179d29655723ac209c5abb6ea2f0c648f179d4f3bfd20e83ed60203392a4005b634e487b7160e01b5f52601160045260245ffd5b63090ac0d760e21b5f5260045ffd5b3461020f576040519083606052306040523360601b602c526323b872dd60601b600c5260205f6064601c82855af1908160015f51141615610268575b50505f6060526040526101bf565b3b153d17101561027957858061025a565b637939f4245f526004601cfd5b61029f90600184019060ff801983541691151516179055565b856101b0565b81610183565b346100a25760403660031901126100a2576102c4610413565b60243580151581036100a257604051638da5cb5b60e01b81526020816004817f00000000000000000000000000000000000000000000000000000000000000006001600160a01b03165afa9081156103cf575f91610364575b506001600160a01b03163303610355576101439160018060a01b03165f52600160205260405f209060ff801983541691151516179055565b630cb1a3fb60e41b5f5260045ffd5b905060203d6020116103c8575b601f8101601f191682016001600160401b038111838210176103b4576020918391604052810103126100a257516001600160a01b03811681036100a2578361031d565b634e487b7160e01b5f52604160045260245ffd5b503d610371565b6040513d5f823e3d90fd5b346100a25760203660031901126100a2576020906001600160a01b036103fe610413565b165f526001825260ff60405f20541615158152f35b600435906001600160a01b03821682036100a257565b602435906001600160a01b03821682036100a257565b919091335f52600160205260ff60405f20541615610584576001600160a01b038181165f9081526020818152604080832093871683529290522080549190821561057d57805f60019255019360ff8554165f146105765780945b6001600160a01b038616958661051f57505f38818087895af1156105125760ff905b54161561050a5750905b604080516001600160a01b0394851681526020810192909252919092169133917f55a6bb5f8b10d2919d59ad3247217d9110cd5d75b60dfb779f3616ff452962cc91a4565b9050906104c5565b63b12d13eb5f526004601cfd5b856014528460345263a9059cbb60601b5f5260205f6044601082855af1908160015f51141615610558575b505060ff905f6034526104bb565b3b153d171015610569575f8061054a565b6390b8ec185f526004601cfd5b8194610499565b5050505050565b632aad004360e11b5f5260045ffdfea164736f6c634300081a000a000000000000000000000000de3599a2ec440b296373a983c85c365da55d9dfa"
            }
          ],
          "isFixedGasLimit": false
        }
      ],
      "receipts": [
        {
          "status": "0x1",
          "cumulativeGasUsed": "0xa4c297",
          "logs": [
            {
              "address": "0xba5ed099633d3b313e4d5f7bdc1305d3c28ba5ed",
              "topics": [
                "0x2feea65dd4e9f9cbd86b74b7734210c59a1b2981b5b137bd0ee3e208200c9067",
                "0x0000000000000000000000003e3edf1729c22b846e357b017871e51c2368666f",
                "0x11dcd2d620638ce4b66ed115e8e45bbdee444897a644147c26d107eab22146ba"
              ],
              "data": "0x",
              "blockHash": "0x98df1d631ccd23372eac20acf4d220701bed5aaebaeb5002100d3270c61ddd47",
              "blockNumber": "0x9d7f24",
              "blockTimestamp": "0x699c8d30",
              "transactionHash": "0xceb7802b94bfceba3546edfb968ba8691be8a570a152c8c5499eeab740a54bd3",
              "transactionIndex": "0x37",
              "logIndex": "0x81",
              "removed": false
            },
            {
              "address": "0xba5ed099633d3b313e4d5f7bdc1305d3c28ba5ed",
              "topics": [
                "0x4db17dd5e4732fb6da34a148104a592783ca119a1e7bb8829eba6cbadef0b511",
                "0x000000000000000000000000d8f05757b7d638a48fd14e15eb6782bab50ad57f"
              ],
              "data": "0x",
              "blockHash": "0x98df1d631ccd23372eac20acf4d220701bed5aaebaeb5002100d3270c61ddd47",
              "blockNumber": "0x9d7f24",
              "blockTimestamp": "0x699c8d30",
              "transactionHash": "0xceb7802b94bfceba3546edfb968ba8691be8a570a152c8c5499eeab740a54bd3",
              "transactionIndex": "0x37",
              "logIndex": "0x82",
              "removed": false
            }
          ],
          "logsBloom": "0x00020000000000000000000000000000000000000000000000000000200000000000000040400000000000000000000000000000000004000000000000000000000000000000000000000000020000000000000000000000000000000000000000000000000000000000000002000000000000000420000000000000002000000000000000000000000000000000000000000000000000000000004000200000000000000040000000000000000000000000000000000000800000000000000000000000000000000200000000000000000000002000000000000010000000000000000000000200000000000000000000000000000000000000000000000000",
          "type": "0x2",
          "transactionHash": "0xceb7802b94bfceba3546edfb968ba8691be8a570a152c8c5499eeab740a54bd3",
          "transactionIndex": "0x37",
          "blockHash": "0x98df1d631ccd23372eac20acf4d220701bed5aaebaeb5002100d3270c61ddd47",
          "blockNumber": "0x9d7f24",
          "gasUsed": "0x6411d",
          "effectiveGasPrice": "0xf424f",
          "from": "0xace07c3c1d3b556d42633211f0da71dc6f6d1c42",
          "to": "0xba5ed099633d3b313e4d5f7bdc1305d3c28ba5ed",
          "contractAddress": null
        }
      ],
      "libraries": [],
      "pending": [],
      "returns": {},
      "timestamp": 1771867423055,
      "chain": 11155111,
      "commit": "4ef84c4"
    },
    {
      "transactions": [
        {
          "hash": "0x9ffe65dcca70e57cf26a126daaca09699761a1be2922aa8637bf3084d6a0f1ee",
          "transactionType": "CALL",
          "contractName": null,
          "contractAddress": "0xba5ed099633d3b313e4d5f7bdc1305d3c28ba5ed",
          "function": "deployCreate3(bytes32,bytes)",
          "arguments": [
            "0xace07c3c1d3b556d42633211f0da71dc6f6d1c4200740ad9e1efe7204e69c77e",
            "0x60a034606e57601f61062738819003918201601f19168301916001600160401b03831184841017607257808492602094604052833981010312606e57516001600160a01b03811690819003606e576080526040516105a090816100878239608051818181607301526102e50152f35b5f80fd5b634e487b7160e01b5f52604160045260245ffdfe6080806040526004361015610012575f80fd5b5f3560e01c908163153ed33b146103da5750806327a98b92146102ab57806369901858146101455780639e31738314610105578063b21d03b6146100a65763fbaef75e1461005e575f80fd5b346100a2575f3660031901126100a2576040517f00000000000000000000000000000000000000000000000000000000000000006001600160a01b03168152602090f35b5f80fd5b346100a25760403660031901126100a2576100bf610413565b6100c7610429565b9060018060a01b03165f525f60205260405f209060018060a01b03165f526020526040805f2060ff6001825492015416825191825215156020820152f35b346100a25760603660031901126100a25761011e610413565b610126610429565b604435906001600160a01b03821682036100a2576101439261043f565b005b60603660031901126100a257610159610413565b610161610429565b6001600160a01b03818116929081169160443591848410919082156102a55781905b60018060a01b03165f525f60205260405f209060018060a01b03165f5260205260405f2091825415610286575b508461021e575081340361020f575b8054908282018092116101fb57556040519081527f606a2f12765315179d29655723ac209c5abb6ea2f0c648f179d4f3bfd20e83ed60203392a4005b634e487b7160e01b5f52601160045260245ffd5b63090ac0d760e21b5f5260045ffd5b3461020f576040519083606052306040523360601b602c526323b872dd60601b600c5260205f6064601c82855af1908160015f51141615610268575b50505f6060526040526101bf565b3b153d17101561027957858061025a565b637939f4245f526004601cfd5b61029f90600184019060ff801983541691151516179055565b856101b0565b81610183565b346100a25760403660031901126100a2576102c4610413565b60243580151581036100a257604051638da5cb5b60e01b81526020816004817f00000000000000000000000000000000000000000000000000000000000000006001600160a01b03165afa9081156103cf575f91610364575b506001600160a01b03163303610355576101439160018060a01b03165f52600160205260405f209060ff801983541691151516179055565b630cb1a3fb60e41b5f5260045ffd5b905060203d6020116103c8575b601f8101601f191682016001600160401b038111838210176103b4576020918391604052810103126100a257516001600160a01b03811681036100a2578361031d565b634e487b7160e01b5f52604160045260245ffd5b503d610371565b6040513d5f823e3d90fd5b346100a25760203660031901126100a2576020906001600160a01b036103fe610413565b165f526001825260ff60405f20541615158152f35b600435906001600160a01b03821682036100a257565b602435906001600160a01b03821682036100a257565b919091335f52600160205260ff60405f20541615610584576001600160a01b038181165f9081526020818152604080832093871683529290522080549190821561057d57805f60019255019360ff8554165f146105765780945b6001600160a01b038616958661051f57505f38818087895af1156105125760ff905b54161561050a5750905b604080516001600160a01b0394851681526020810192909252919092169133917f55a6bb5f8b10d2919d59ad3247217d9110cd5d75b60dfb779f3616ff452962cc91a4565b9050906104c5565b63b12d13eb5f526004601cfd5b856014528460345263a9059cbb60601b5f5260205f6044601082855af1908160015f51141615610558575b505060ff905f6034526104bb565b3b153d171015610569575f8061054a565b6390b8ec185f526004601cfd5b8194610499565b5050505050565b632aad004360e11b5f5260045ffdfea164736f6c634300081a000a000000000000000000000000660eaaedebc968f8f3694354fa8ec0b4c5ba8d12"
          ],
          "transaction": {
            "from": "0xace07c3c1d3b556d42633211f0da71dc6f6d1c42",
            "to": "0xba5ed099633d3b313e4d5f7bdc1305d3c28ba5ed",
            "gas": "0x8a388",
            "value": "0x0",
            "input": "0x9c36a286ace07c3c1d3b556d42633211f0da71dc6f6d1c4200740ad9e1efe7204e69c77e0000000000000000000000000000000000000000000000000000000000000040000000000000000000000000000000000000000000000000000000000000064760a034606e57601f61062738819003918201601f19168301916001600160401b03831184841017607257808492602094604052833981010312606e57516001600160a01b03811690819003606e576080526040516105a090816100878239608051818181607301526102e50152f35b5f80fd5b634e487b7160e01b5f52604160045260245ffdfe6080806040526004361015610012575f80fd5b5f3560e01c908163153ed33b146103da5750806327a98b92146102ab57806369901858146101455780639e31738314610105578063b21d03b6146100a65763fbaef75e1461005e575f80fd5b346100a2575f3660031901126100a2576040517f00000000000000000000000000000000000000000000000000000000000000006001600160a01b03168152602090f35b5f80fd5b346100a25760403660031901126100a2576100bf610413565b6100c7610429565b9060018060a01b03165f525f60205260405f209060018060a01b03165f526020526040805f2060ff6001825492015416825191825215156020820152f35b346100a25760603660031901126100a25761011e610413565b610126610429565b604435906001600160a01b03821682036100a2576101439261043f565b005b60603660031901126100a257610159610413565b610161610429565b6001600160a01b03818116929081169160443591848410919082156102a55781905b60018060a01b03165f525f60205260405f209060018060a01b03165f5260205260405f2091825415610286575b508461021e575081340361020f575b8054908282018092116101fb57556040519081527f606a2f12765315179d29655723ac209c5abb6ea2f0c648f179d4f3bfd20e83ed60203392a4005b634e487b7160e01b5f52601160045260245ffd5b63090ac0d760e21b5f5260045ffd5b3461020f576040519083606052306040523360601b602c526323b872dd60601b600c5260205f6064601c82855af1908160015f51141615610268575b50505f6060526040526101bf565b3b153d17101561027957858061025a565b637939f4245f526004601cfd5b61029f90600184019060ff801983541691151516179055565b856101b0565b81610183565b346100a25760403660031901126100a2576102c4610413565b60243580151581036100a257604051638da5cb5b60e01b81526020816004817f00000000000000000000000000000000000000000000000000000000000000006001600160a01b03165afa9081156103cf575f91610364575b506001600160a01b03163303610355576101439160018060a01b03165f52600160205260405f209060ff801983541691151516179055565b630cb1a3fb60e41b5f5260045ffd5b905060203d6020116103c8575b601f8101601f191682016001600160401b038111838210176103b4576020918391604052810103126100a257516001600160a01b03811681036100a2578361031d565b634e487b7160e01b5f52604160045260245ffd5b503d610371565b6040513d5f823e3d90fd5b346100a25760203660031901126100a2576020906001600160a01b036103fe610413565b165f526001825260ff60405f20541615158152f35b600435906001600160a01b03821682036100a257565b602435906001600160a01b03821682036100a257565b919091335f52600160205260ff60405f20541615610584576001600160a01b038181165f9081526020818152604080832093871683529290522080549190821561057d57805f60019255019360ff8554165f146105765780945b6001600160a01b038616958661051f57505f38818087895af1156105125760ff905b54161561050a5750905b604080516001600160a01b0394851681526020810192909252919092169133917f55a6bb5f8b10d2919d59ad3247217d9110cd5d75b60dfb779f3616ff452962cc91a4565b9050906104c5565b63b12d13eb5f526004601cfd5b856014528460345263a9059cbb60601b5f5260205f6044601082855af1908160015f51141615610558575b505060ff905f6034526104bb565b3b153d171015610569575f8061054a565b6390b8ec185f526004601cfd5b8194610499565b5050505050565b632aad004360e11b5f5260045ffdfea164736f6c634300081a000a000000000000000000000000660eaaedebc968f8f3694354fa8ec0b4c5ba8d1200000000000000000000000000000000000000000000000000",
            "nonce": "0x41",
            "chainId": "0x2105"
          },
          "additionalContracts": [
            {
              "transactionType": "CREATE2",
              "contractName": null,
              "address": "0x3e3edf1729c22b846e357b017871e51c2368666f",
              "initCode": "0x67363d3d37363d34f03d5260086018f3"
            },
            {
              "transactionType": "CREATE",
              "contractName": "TopUpDistributor",
              "address": "0xd8f05757b7d638a48fd14e15eb6782bab50ad57f",
              "initCode": "0x60a034606e57601f61062738819003918201601f19168301916001600160401b03831184841017607257808492602094604052833981010312606e57516001600160a01b03811690819003606e576080526040516105a090816100878239608051818181607301526102e50152f35b5f80fd5b634e487b7160e01b5f52604160045260245ffdfe6080806040526004361015610012575f80fd5b5f3560e01c908163153ed33b146103da5750806327a98b92146102ab57806369901858146101455780639e31738314610105578063b21d03b6146100a65763fbaef75e1461005e575f80fd5b346100a2575f3660031901126100a2576040517f00000000000000000000000000000000000000000000000000000000000000006001600160a01b03168152602090f35b5f80fd5b346100a25760403660031901126100a2576100bf610413565b6100c7610429565b9060018060a01b03165f525f60205260405f209060018060a01b03165f526020526040805f2060ff6001825492015416825191825215156020820152f35b346100a25760603660031901126100a25761011e610413565b610126610429565b604435906001600160a01b03821682036100a2576101439261043f565b005b60603660031901126100a257610159610413565b610161610429565b6001600160a01b03818116929081169160443591848410919082156102a55781905b60018060a01b03165f525f60205260405f209060018060a01b03165f5260205260405f2091825415610286575b508461021e575081340361020f575b8054908282018092116101fb57556040519081527f606a2f12765315179d29655723ac209c5abb6ea2f0c648f179d4f3bfd20e83ed60203392a4005b634e487b7160e01b5f52601160045260245ffd5b63090ac0d760e21b5f5260045ffd5b3461020f576040519083606052306040523360601b602c526323b872dd60601b600c5260205f6064601c82855af1908160015f51141615610268575b50505f6060526040526101bf565b3b153d17101561027957858061025a565b637939f4245f526004601cfd5b61029f90600184019060ff801983541691151516179055565b856101b0565b81610183565b346100a25760403660031901126100a2576102c4610413565b60243580151581036100a257604051638da5cb5b60e01b81526020816004817f00000000000000000000000000000000000000000000000000000000000000006001600160a01b03165afa9081156103cf575f91610364575b506001600160a01b03163303610355576101439160018060a01b03165f52600160205260405f209060ff801983541691151516179055565b630cb1a3fb60e41b5f5260045ffd5b905060203d6020116103c8575b601f8101601f191682016001600160401b038111838210176103b4576020918391604052810103126100a257516001600160a01b03811681036100a2578361031d565b634e487b7160e01b5f52604160045260245ffd5b503d610371565b6040513d5f823e3d90fd5b346100a25760203660031901126100a2576020906001600160a01b036103fe610413565b165f526001825260ff60405f20541615158152f35b600435906001600160a01b03821682036100a257565b602435906001600160a01b03821682036100a257565b919091335f52600160205260ff60405f20541615610584576001600160a01b038181165f9081526020818152604080832093871683529290522080549190821561057d57805f60019255019360ff8554165f146105765780945b6001600160a01b038616958661051f57505f38818087895af1156105125760ff905b54161561050a5750905b604080516001600160a01b0394851681526020810192909252919092169133917f55a6bb5f8b10d2919d59ad3247217d9110cd5d75b60dfb779f3616ff452962cc91a4565b9050906104c5565b63b12d13eb5f526004601cfd5b856014528460345263a9059cbb60601b5f5260205f6044601082855af1908160015f51141615610558575b505060ff905f6034526104bb565b3b153d171015610569575f8061054a565b6390b8ec185f526004601cfd5b8194610499565b5050505050565b632aad004360e11b5f5260045ffdfea164736f6c634300081a000a000000000000000000000000660eaaedebc968f8f3694354fa8ec0b4c5ba8d12"
            }
          ],
          "isFixedGasLimit": false
        }
      ],
      "receipts": [
        {
          "status": "0x1",
          "cumulativeGasUsed": "0x1ab9040",
          "logs": [
            {
              "address": "0xba5ed099633d3b313e4d5f7bdc1305d3c28ba5ed",
              "topics": [
                "0x2feea65dd4e9f9cbd86b74b7734210c59a1b2981b5b137bd0ee3e208200c9067",
                "0x0000000000000000000000003e3edf1729c22b846e357b017871e51c2368666f",
                "0x11dcd2d620638ce4b66ed115e8e45bbdee444897a644147c26d107eab22146ba"
              ],
              "data": "0x",
              "blockHash": "0x0000000000000000000000000000000000000000000000000000000000000000",
              "blockNumber": "0x2891828",
              "blockTimestamp": "0x699c8d33",
              "transactionHash": "0x9ffe65dcca70e57cf26a126daaca09699761a1be2922aa8637bf3084d6a0f1ee",
              "transactionIndex": "0xa5",
              "logIndex": "0x1e3",
              "removed": false
            },
            {
              "address": "0xba5ed099633d3b313e4d5f7bdc1305d3c28ba5ed",
              "topics": [
                "0x4db17dd5e4732fb6da34a148104a592783ca119a1e7bb8829eba6cbadef0b511",
                "0x000000000000000000000000d8f05757b7d638a48fd14e15eb6782bab50ad57f"
              ],
              "data": "0x",
              "blockHash": "0x0000000000000000000000000000000000000000000000000000000000000000",
              "blockNumber": "0x2891828",
              "blockTimestamp": "0x699c8d33",
              "transactionHash": "0x9ffe65dcca70e57cf26a126daaca09699761a1be2922aa8637bf3084d6a0f1ee",
              "transactionIndex": "0xa5",
              "logIndex": "0x1e4",
              "removed": false
            }
          ],
          "logsBloom": "0x00020000000000000000000000000000000000000000000000000000200000000000000040400000000000000000000000000000000004000000000000000000000000000000000000000000020000000000000000000000000000000000000000000000000000000000000002000000000000000420000000000000002000000000000000000000000000000000000000000000000000000000004000200000000000000040000000000000000000000000000000000000800000000000000000000000000000000200000000000000000000002000000000000010000000000000000000000200000000000000000000000000000000000000000000000000",
          "type": "0x2",
          "transactionHash": "0x9ffe65dcca70e57cf26a126daaca09699761a1be2922aa8637bf3084d6a0f1ee",
          "transactionIndex": "0xa5",
          "blockHash": "0x0000000000000000000000000000000000000000000000000000000000000000",
          "blockNumber": "0x2891828",
          "gasUsed": "0x6411d",
          "effectiveGasPrice": "0x8091e1",
          "blobGasUsed": "0x262d7",
          "from": "0xace07c3c1d3b556d42633211f0da71dc6f6d1c42",
          "to": "0xba5ed099633d3b313e4d5f7bdc1305d3c28ba5ed",
          "contractAddress": null,
          "daFootprintGasScalar": "0x8b",
          "l1BaseFeeScalar": "0x8dd",
          "l1BlobBaseFee": "0x81b9a8",
          "l1BlobBaseFeeScalar": "0x101c12",
          "l1Fee": "0xb1c20416",
          "l1GasPrice": "0xb625622",
          "l1GasUsed": "0x4652"
        }
      ],
      "libraries": [],
      "pending": [],
      "returns": {},
      "timestamp": 1771867423953,
      "chain": 8453,
      "commit": "4ef84c4"
    },
    {
      "transactions": [
        {
          "hash": "0x3a3c3c23b5b999665b46f3372e38be6812c31a32857e054a963ecad271c7471e",
          "transactionType": "CALL",
          "contractName": null,
          "contractAddress": "0xba5ed099633d3b313e4d5f7bdc1305d3c28ba5ed",
          "function": "deployCreate3(bytes32,bytes)",
          "arguments": [
            "0xace07c3c1d3b556d42633211f0da71dc6f6d1c4200740ad9e1efe7204e69c77e",
            "0x60a034606e57601f61062738819003918201601f19168301916001600160401b03831184841017607257808492602094604052833981010312606e57516001600160a01b03811690819003606e576080526040516105a090816100878239608051818181607301526102e50152f35b5f80fd5b634e487b7160e01b5f52604160045260245ffdfe6080806040526004361015610012575f80fd5b5f3560e01c908163153ed33b146103da5750806327a98b92146102ab57806369901858146101455780639e31738314610105578063b21d03b6146100a65763fbaef75e1461005e575f80fd5b346100a2575f3660031901126100a2576040517f00000000000000000000000000000000000000000000000000000000000000006001600160a01b03168152602090f35b5f80fd5b346100a25760403660031901126100a2576100bf610413565b6100c7610429565b9060018060a01b03165f525f60205260405f209060018060a01b03165f526020526040805f2060ff6001825492015416825191825215156020820152f35b346100a25760603660031901126100a25761011e610413565b610126610429565b604435906001600160a01b03821682036100a2576101439261043f565b005b60603660031901126100a257610159610413565b610161610429565b6001600160a01b03818116929081169160443591848410919082156102a55781905b60018060a01b03165f525f60205260405f209060018060a01b03165f5260205260405f2091825415610286575b508461021e575081340361020f575b8054908282018092116101fb57556040519081527f606a2f12765315179d29655723ac209c5abb6ea2f0c648f179d4f3bfd20e83ed60203392a4005b634e487b7160e01b5f52601160045260245ffd5b63090ac0d760e21b5f5260045ffd5b3461020f576040519083606052306040523360601b602c526323b872dd60601b600c5260205f6064601c82855af1908160015f51141615610268575b50505f6060526040526101bf565b3b153d17101561027957858061025a565b637939f4245f526004601cfd5b61029f90600184019060ff801983541691151516179055565b856101b0565b81610183565b346100a25760403660031901126100a2576102c4610413565b60243580151581036100a257604051638da5cb5b60e01b81526020816004817f00000000000000000000000000000000000000000000000000000000000000006001600160a01b03165afa9081156103cf575f91610364575b506001600160a01b03163303610355576101439160018060a01b03165f52600160205260405f209060ff801983541691151516179055565b630cb1a3fb60e41b5f5260045ffd5b905060203d6020116103c8575b601f8101601f191682016001600160401b038111838210176103b4576020918391604052810103126100a257516001600160a01b03811681036100a2578361031d565b634e487b7160e01b5f52604160045260245ffd5b503d610371565b6040513d5f823e3d90fd5b346100a25760203660031901126100a2576020906001600160a01b036103fe610413565b165f526001825260ff60405f20541615158152f35b600435906001600160a01b03821682036100a257565b602435906001600160a01b03821682036100a257565b919091335f52600160205260ff60405f20541615610584576001600160a01b038181165f9081526020818152604080832093871683529290522080549190821561057d57805f60019255019360ff8554165f146105765780945b6001600160a01b038616958661051f57505f38818087895af1156105125760ff905b54161561050a5750905b604080516001600160a01b0394851681526020810192909252919092169133917f55a6bb5f8b10d2919d59ad3247217d9110cd5d75b60dfb779f3616ff452962cc91a4565b9050906104c5565b63b12d13eb5f526004601cfd5b856014528460345263a9059cbb60601b5f5260205f6044601082855af1908160015f51141615610558575b505060ff905f6034526104bb565b3b153d171015610569575f8061054a565b6390b8ec185f526004601cfd5b8194610499565b5050505050565b632aad004360e11b5f5260045ffdfea164736f6c634300081a000a000000000000000000000000660eaaedebc968f8f3694354fa8ec0b4c5ba8d12"
          ],
          "transaction": {
            "from": "0xace07c3c1d3b556d42633211f0da71dc6f6d1c42",
            "to": "0xba5ed099633d3b313e4d5f7bdc1305d3c28ba5ed",
            "gas": "0x84e59",
            "value": "0x0",
            "input": "0x9c36a286ace07c3c1d3b556d42633211f0da71dc6f6d1c4200740ad9e1efe7204e69c77e0000000000000000000000000000000000000000000000000000000000000040000000000000000000000000000000000000000000000000000000000000064760a034606e57601f61062738819003918201601f19168301916001600160401b03831184841017607257808492602094604052833981010312606e57516001600160a01b03811690819003606e576080526040516105a090816100878239608051818181607301526102e50152f35b5f80fd5b634e487b7160e01b5f52604160045260245ffdfe6080806040526004361015610012575f80fd5b5f3560e01c908163153ed33b146103da5750806327a98b92146102ab57806369901858146101455780639e31738314610105578063b21d03b6146100a65763fbaef75e1461005e575f80fd5b346100a2575f3660031901126100a2576040517f00000000000000000000000000000000000000000000000000000000000000006001600160a01b03168152602090f35b5f80fd5b346100a25760403660031901126100a2576100bf610413565b6100c7610429565b9060018060a01b03165f525f60205260405f209060018060a01b03165f526020526040805f2060ff6001825492015416825191825215156020820152f35b346100a25760603660031901126100a25761011e610413565b610126610429565b604435906001600160a01b03821682036100a2576101439261043f565b005b60603660031901126100a257610159610413565b610161610429565b6001600160a01b03818116929081169160443591848410919082156102a55781905b60018060a01b03165f525f60205260405f209060018060a01b03165f5260205260405f2091825415610286575b508461021e575081340361020f575b8054908282018092116101fb57556040519081527f606a2f12765315179d29655723ac209c5abb6ea2f0c648f179d4f3bfd20e83ed60203392a4005b634e487b7160e01b5f52601160045260245ffd5b63090ac0d760e21b5f5260045ffd5b3461020f576040519083606052306040523360601b602c526323b872dd60601b600c5260205f6064601c82855af1908160015f51141615610268575b50505f6060526040526101bf565b3b153d17101561027957858061025a565b637939f4245f526004601cfd5b61029f90600184019060ff801983541691151516179055565b856101b0565b81610183565b346100a25760403660031901126100a2576102c4610413565b60243580151581036100a257604051638da5cb5b60e01b81526020816004817f00000000000000000000000000000000000000000000000000000000000000006001600160a01b03165afa9081156103cf575f91610364575b506001600160a01b03163303610355576101439160018060a01b03165f52600160205260405f209060ff801983541691151516179055565b630cb1a3fb60e41b5f5260045ffd5b905060203d6020116103c8575b601f8101601f191682016001600160401b038111838210176103b4576020918391604052810103126100a257516001600160a01b03811681036100a2578361031d565b634e487b7160e01b5f52604160045260245ffd5b503d610371565b6040513d5f823e3d90fd5b346100a25760203660031901126100a2576020906001600160a01b036103fe610413565b165f526001825260ff60405f20541615158152f35b600435906001600160a01b03821682036100a257565b602435906001600160a01b03821682036100a257565b919091335f52600160205260ff60405f20541615610584576001600160a01b038181165f9081526020818152604080832093871683529290522080549190821561057d57805f60019255019360ff8554165f146105765780945b6001600160a01b038616958661051f57505f38818087895af1156105125760ff905b54161561050a5750905b604080516001600160a01b0394851681526020810192909252919092169133917f55a6bb5f8b10d2919d59ad3247217d9110cd5d75b60dfb779f3616ff452962cc91a4565b9050906104c5565b63b12d13eb5f526004601cfd5b856014528460345263a9059cbb60601b5f5260205f6044601082855af1908160015f51141615610558575b505060ff905f6034526104bb565b3b153d171015610569575f8061054a565b6390b8ec185f526004601cfd5b8194610499565b5050505050565b632aad004360e11b5f5260045ffdfea164736f6c634300081a000a000000000000000000000000660eaaedebc968f8f3694354fa8ec0b4c5ba8d1200000000000000000000000000000000000000000000000000",
            "nonce": "0x1e",
            "chainId": "0x8f"
          },
          "additionalContracts": [
            {
              "transactionType": "CREATE2",
              "contractName": null,
              "address": "0x3e3edf1729c22b846e357b017871e51c2368666f",
              "initCode": "0x67363d3d37363d34f03d5260086018f3"
            },
            {
              "transactionType": "CREATE",
              "contractName": "TopUpDistributor",
              "address": "0xd8f05757b7d638a48fd14e15eb6782bab50ad57f",
              "initCode": "0x60a034606e57601f61062738819003918201601f19168301916001600160401b03831184841017607257808492602094604052833981010312606e57516001600160a01b03811690819003606e576080526040516105a090816100878239608051818181607301526102e50152f35b5f80fd5b634e487b7160e01b5f52604160045260245ffdfe6080806040526004361015610012575f80fd5b5f3560e01c908163153ed33b146103da5750806327a98b92146102ab57806369901858146101455780639e31738314610105578063b21d03b6146100a65763fbaef75e1461005e575f80fd5b346100a2575f3660031901126100a2576040517f00000000000000000000000000000000000000000000000000000000000000006001600160a01b03168152602090f35b5f80fd5b346100a25760403660031901126100a2576100bf610413565b6100c7610429565b9060018060a01b03165f525f60205260405f209060018060a01b03165f526020526040805f2060ff6001825492015416825191825215156020820152f35b346100a25760603660031901126100a25761011e610413565b610126610429565b604435906001600160a01b03821682036100a2576101439261043f565b005b60603660031901126100a257610159610413565b610161610429565b6001600160a01b03818116929081169160443591848410919082156102a55781905b60018060a01b03165f525f60205260405f209060018060a01b03165f5260205260405f2091825415610286575b508461021e575081340361020f575b8054908282018092116101fb57556040519081527f606a2f12765315179d29655723ac209c5abb6ea2f0c648f179d4f3bfd20e83ed60203392a4005b634e487b7160e01b5f52601160045260245ffd5b63090ac0d760e21b5f5260045ffd5b3461020f576040519083606052306040523360601b602c526323b872dd60601b600c5260205f6064601c82855af1908160015f51141615610268575b50505f6060526040526101bf565b3b153d17101561027957858061025a565b637939f4245f526004601cfd5b61029f90600184019060ff801983541691151516179055565b856101b0565b81610183565b346100a25760403660031901126100a2576102c4610413565b60243580151581036100a257604051638da5cb5b60e01b81526020816004817f00000000000000000000000000000000000000000000000000000000000000006001600160a01b03165afa9081156103cf575f91610364575b506001600160a01b03163303610355576101439160018060a01b03165f52600160205260405f209060ff801983541691151516179055565b630cb1a3fb60e41b5f5260045ffd5b905060203d6020116103c8575b601f8101601f191682016001600160401b038111838210176103b4576020918391604052810103126100a257516001600160a01b03811681036100a2578361031d565b634e487b7160e01b5f52604160045260245ffd5b503d610371565b6040513d5f823e3d90fd5b346100a25760203660031901126100a2576020906001600160a01b036103fe610413565b165f526001825260ff60405f20541615158152f35b600435906001600160a01b03821682036100a257565b602435906001600160a01b03821682036100a257565b919091335f52600160205260ff60405f20541615610584576001600160a01b038181165f9081526020818152604080832093871683529290522080549190821561057d57805f60019255019360ff8554165f146105765780945b6001600160a01b038616958661051f57505f38818087895af1156105125760ff905b54161561050a5750905b604080516001600160a01b0394851681526020810192909252919092169133917f55a6bb5f8b10d2919d59ad3247217d9110cd5d75b60dfb779f3616ff452962cc91a4565b9050906104c5565b63b12d13eb5f526004601cfd5b856014528460345263a9059cbb60601b5f5260205f6044601082855af1908160015f51141615610558575b505060ff905f6034526104bb565b3b153d171015610569575f8061054a565b6390b8ec185f526004601cfd5b8194610499565b5050505050565b632aad004360e11b5f5260045ffdfea164736f6c634300081a000a000000000000000000000000660eaaedebc968f8f3694354fa8ec0b4c5ba8d12"
            }
          ],
          "isFixedGasLimit": false
        }
      ],
      "receipts": [
        {
          "status": "0x1",
          "cumulativeGasUsed": "0x240090",
          "logs": [
            {
              "address": "0xba5ed099633d3b313e4d5f7bdc1305d3c28ba5ed",
              "topics": [
                "0x2feea65dd4e9f9cbd86b74b7734210c59a1b2981b5b137bd0ee3e208200c9067",
                "0x0000000000000000000000003e3edf1729c22b846e357b017871e51c2368666f",
                "0x11dcd2d620638ce4b66ed115e8e45bbdee444897a644147c26d107eab22146ba"
              ],
              "data": "0x",
              "blockHash": "0x58d8d0556d9304618a7856a33d9fa7cf799ebfa312d6835cbbdb95d07cf04886",
              "blockNumber": "0x36a7ded",
              "blockTimestamp": "0x699c8d34",
              "transactionHash": "0x3a3c3c23b5b999665b46f3372e38be6812c31a32857e054a963ecad271c7471e",
              "transactionIndex": "0x4",
              "logIndex": "0x10",
              "removed": false
            },
            {
              "address": "0xba5ed099633d3b313e4d5f7bdc1305d3c28ba5ed",
              "topics": [
                "0x4db17dd5e4732fb6da34a148104a592783ca119a1e7bb8829eba6cbadef0b511",
                "0x000000000000000000000000d8f05757b7d638a48fd14e15eb6782bab50ad57f"
              ],
              "data": "0x",
              "blockHash": "0x58d8d0556d9304618a7856a33d9fa7cf799ebfa312d6835cbbdb95d07cf04886",
              "blockNumber": "0x36a7ded",
              "blockTimestamp": "0x699c8d34",
              "transactionHash": "0x3a3c3c23b5b999665b46f3372e38be6812c31a32857e054a963ecad271c7471e",
              "transactionIndex": "0x4",
              "logIndex": "0x11",
              "removed": false
            }
          ],
          "logsBloom": "0x00020000000000000000000000000000000000000000000000000000200000000000000040400000000000000000000000000000000004000000000000000000000000000000000000000000020000000000000000000000000000000000000000000000000000000000000002000000000000000420000000000000002000000000000000000000000000000000000000000000000000000000004000200000000000000040000000000000000000000000000000000000800000000000000000000000000000000200000000000000000000002000000000000010000000000000000000000200000000000000000000000000000000000000000000000000",
          "type": "0x2",
          "transactionHash": "0x3a3c3c23b5b999665b46f3372e38be6812c31a32857e054a963ecad271c7471e",
          "transactionIndex": "0x4",
          "blockHash": "0x58d8d0556d9304618a7856a33d9fa7cf799ebfa312d6835cbbdb95d07cf04886",
          "blockNumber": "0x36a7ded",
          "gasUsed": "0x84e59",
          "effectiveGasPrice": "0x17bfac7c01",
          "from": "0xace07c3c1d3b556d42633211f0da71dc6f6d1c42",
          "to": "0xba5ed099633d3b313e4d5f7bdc1305d3c28ba5ed",
          "contractAddress": null
        }
      ],
      "libraries": [],
      "pending": [],
      "returns": {},
      "timestamp": 1771867425222,
      "chain": 143,
      "commit": "4ef84c4"
    }
  ],
  "timestamp": 1771867573193
}