{
  "deployments": [
    {
      "transactions": [
        {
          "hash": "0x0fdc8630705b07c694f0c0b020a403d49987e49cdbe87bbd5ecb45d32efdae23",
          "transactionType": "CALL",
          "contractName": null,
          "contractAddress": "0xba5ed099633d3b313e4d5f7bdc1305d3c28ba5ed",
          "function": "deployCreate3(bytes32,bytes)",
          "arguments": [
            "0xace07c3c1d3b556d42633211f0da71dc6f6d1c4200000000deadb055deadb055",
            "0x6080806040523460135760c1908160188239f35b5f80fdfe60808060405260043610156011575f80fd5b5f3560e01c9081634e6fd6c414609c575063a3f697ba14602f575f80fd5b3460985760403660031901126098576004356001600160a01b038116036098576024356001600160401b0381116098573660238201121560985760048101356001600160401b038111609857369101602401116098576040805161dead815261dead6020820152f35b5f80fd5b346098575f3660031901126098578061dead60209252f3fea164736f6c634300081a000a"
          ],
          "transaction": {
            "from": "0xace07c3c1d3b556d42633211f0da71dc6f6d1c42",
            "to": "0xba5ed099633d3b313e4d5f7bdc1305d3c28ba5ed",
            "value": "0x0",
            "input": "0x9c36a286ace07c3c1d3b556d42633211f0da71dc6f6d1c4200000000deadb055deadb055000000000000000000000000000000000000000000000000000000000000004000000000000000000000000000000000000000000000000000000000000000d96080806040523460135760c1908160188239f35b5f80fdfe60808060405260043610156011575f80fd5b5f3560e01c9081634e6fd6c414609c575063a3f697ba14602f575f80fd5b3460985760403660031901126098576004356001600160a01b038116036098576024356001600160401b0381116098573660238201121560985760048101356001600160401b038111609857369101602401116098576040805161dead815261dead6020820152f35b5f80fd5b346098575f3660031901126098578061dead60209252f3fea164736f6c634300081a000a00000000000000",
            "nonce": "0x5",
            "chainId": "0x10e6"
          },
          "additionalContracts": [],
          "isFixedGasLimit": false
        },
        {
          "hash": "0xa13a89d94cc81a1a68f3851efea4f3e4ac0552987d511fc26ccdfa7a993abf20",
          "transactionType": "CALL",
          "contractName": "StdConfig",
          "contractAddress": "0xc7f2cf4845c6db0e1a1e91ed41bcd0fcc1b0e141",
          "function": "set(string,address)",
          "arguments": [
            "no_op_governance_factory",
            "0xddAE8B3eD08184682f7Bc32B74d943cEEfEab638"
          ],
          "transaction": {
            "from": "0xace07c3c1d3b556d42633211f0da71dc6f6d1c42",
            "to": "0xc7f2cf4845c6db0e1a1e91ed41bcd0fcc1b0e141",
            "value": "0x0",
            "input": "0xa815ff150000000000000000000000000000000000000000000000000000000000000040000000000000000000000000ddae8b3ed08184682f7bc32b74d943ceefeab63800000000000000000000000000000000000000000000000000000000000000186e6f5f6f705f676f7665726e616e63655f666163746f72790000000000000000",
            "nonce": "0x6",
            "chainId": "0x10e6"
          },
          "additionalContracts": [],
          "isFixedGasLimit": false
        }
      ],
      "receipts": [
        {
          "status": "0x1",
          "cumulativeGasUsed": "0x4bdf75",
          "logs": [
            {
              "address": "0xba5ed099633d3b313e4d5f7bdc1305d3c28ba5ed",
              "topics": [
                "0x2feea65dd4e9f9cbd86b74b7734210c59a1b2981b5b137bd0ee3e208200c9067",
                "0x000000000000000000000000d9fc1ddd70875fc9135bf7357b75ca8d942477fe",
                "0x36da5754437df0eb3f4b5a9981113826c686fb6af91d2242620eb06f30a053a8"
              ],
              "data": "0x",
              "blockHash": "0xffffffffffffffffffffffffffffffffffffffffffffffffffffffffffffffff",
              "blockNumber": "0x542dd4",
              "blockTimestamp": "0x696653a7",
              "transactionHash": "0x0fdc8630705b07c694f0c0b020a403d49987e49cdbe87bbd5ecb45d32efdae23",
              "transactionIndex": "0x9",
              "logIndex": "0x24",
              "removed": false
            },
            {
              "address": "0xba5ed099633d3b313e4d5f7bdc1305d3c28ba5ed",
              "topics": [
                "0x4db17dd5e4732fb6da34a148104a592783ca119a1e7bb8829eba6cbadef0b511",
                "0x000000000000000000000000ddae8b3ed08184682f7bc32b74d943ceefeab638"
              ],
              "data": "0x",
              "blockHash": "0xffffffffffffffffffffffffffffffffffffffffffffffffffffffffffffffff",
              "blockNumber": "0x542dd4",
              "blockTimestamp": "0x696653a7",
              "transactionHash": "0x0fdc8630705b07c694f0c0b020a403d49987e49cdbe87bbd5ecb45d32efdae23",
              "transactionIndex": "0x9",
              "logIndex": "0x25",
              "removed": false
            }
          ],
          "logsBloom": "0x00020000000000000000000000000000010000100000000000000000200000000000000000000000000000000000000000000000000004000000000000000000000000000000000000000000020000000000004000000000000000000000000000000000000000000000000000000000000000000020000000000000000400000000000000000000000000000020000000000000000000000000004000000000000000000000000000000000000000000000002000000000000004000000000000000000000000000200000000000000000000002000000000000000000000000000000000000200000000000000000000000000000000000042000000000000",
          "type": "0x2",
          "transactionHash": "0x0fdc8630705b07c694f0c0b020a403d49987e49cdbe87bbd5ecb45d32efdae23",
          "transactionIndex": "0x9",
          "blockHash": "0xffffffffffffffffffffffffffffffffffffffffffffffffffffffffffffffff",
          "blockNumber": "0x542dd4",
          "gasUsed": "0x224472",
          "effectiveGasPrice": "0x10c8e0",
          "from": "0xace07c3c1d3b556d42633211f0da71dc6f6d1c42",
          "to": "0xba5ed099633d3b313e4d5f7bdc1305d3c28ba5ed",
          "contractAddress": null,
          "l1BaseFeeScalar": "0x558",
          "l1BlobBaseFee": "0x1f741416e0a7bc",
          "l1BlobBaseFeeScalar": "0x0",
          "l1Fee": "0x22caafcc",
          "l1GasPrice": "0x644fca5",
          "l1GasUsed": "0xfd8"
        },
        {
          "status": "0x1",
          "cumulativeGasUsed": "0x2ab595",
          "logs": [],
          "logsBloom": "0x00000000000000000000000000000000000000000000000000000000000000000000000000000000000000000000000000000000000000000000000000000000000000000000000000000000000000000000000000000000000000000000000000000000000000000000000000000000000000000000000000000000000000000000000000000000000000000000000000000000000000000000000000000000000000000000000000000000000000000000000000000000000000000000000000000000000000000000000000000000000000000000000000000000000000000000000000000000000000000000000000000000000000000000000000000000",
          "type": "0x2",
          "transactionHash": "0xa13a89d94cc81a1a68f3851efea4f3e4ac0552987d511fc26ccdfa7a993abf20",
          "transactionIndex": "0x9",
          "blockHash": "0xffffffffffffffffffffffffffffffffffffffffffffffffffffffffffffffff",
          "blockNumber": "0x542dd6",
          "gasUsed": "0x11ad8",
          "effectiveGasPrice": "0x10c8e0",
          "from": "0xace07c3c1d3b556d42633211f0da71dc6f6d1c42",
          "to": "0xc7f2cf4845c6db0e1a1e91ed41bcd0fcc1b0e141",
          "contractAddress": null,
          "l1BaseFeeScalar": "0x558",
          "l1BlobBaseFee": "0x1f741416e0a7bc",
          "l1BlobBaseFeeScalar": "0x0",
          "l1Fee": "0xf47081f",
          "l1GasPrice": "0x644fca5",
          "l1GasUsed": "0x6f5"
        }
      ],
      "libraries": [],
      "pending": [],
      "returns": {},
      "timestamp": 1768313761777,
      "chain": 4326,
      "commit": "e7b5f49"
    },
    {
      "transactions": [
        {
          "hash": "0xab686b8dbc76cc0b229709f3b47ee2bfbdfd3832bf503d29c30e84f59fcebe6d",
          "transactionType": "CALL",
          "contractName": null,
          "contractAddress": "0xba5ed099633d3b313e4d5f7bdc1305d3c28ba5ed",
          "function": "deployCreate3(bytes32,bytes)",
          "arguments": [
            "0xace07c3c1d3b556d42633211f0da71dc6f6d1c4200000000deadb055deadb055",
            "0x6080806040523460135760c1908160188239f35b5f80fdfe60808060405260043610156011575f80fd5b5f3560e01c9081634e6fd6c414609c575063a3f697ba14602f575f80fd5b3460985760403660031901126098576004356001600160a01b038116036098576024356001600160401b0381116098573660238201121560985760048101356001600160401b038111609857369101602401116098576040805161dead815261dead6020820152f35b5f80fd5b346098575f3660031901126098578061dead60209252f3fea164736f6c634300081a000a"
          ],
          "transaction": {
            "from": "0xace07c3c1d3b556d42633211f0da71dc6f6d1c42",
            "to": "0xba5ed099633d3b313e4d5f7bdc1305d3c28ba5ed",
            "value": "0x0",
            "input": "0x9c36a286ace07c3c1d3b556d42633211f0da71dc6f6d1c4200000000deadb055deadb055000000000000000000000000000000000000000000000000000000000000004000000000000000000000000000000000000000000000000000000000000000d96080806040523460135760c1908160188239f35b5f80fdfe60808060405260043610156011575f80fd5b5f3560e01c9081634e6fd6c414609c575063a3f697ba14602f575f80fd5b3460985760403660031901126098576004356001600160a01b038116036098576024356001600160401b0381116098573660238201121560985760048101356001600160401b038111609857369101602401116098576040805161dead815261dead6020820152f35b5f80fd5b346098575f3660031901126098578061dead60209252f3fea164736f6c634300081a000a00000000000000",
            "nonce": "0x15",
            "chainId": "0x18c7"
          },
          "additionalContracts": [],
          "isFixedGasLimit": false
        },
        {
          "hash": "0xe66d5fc6acc80d74e15c5e20850582224701107941890c6ae7fa196a97a32cde",
          "transactionType": "CALL",
          "contractName": "StdConfig",
          "contractAddress": "0xc7f2cf4845c6db0e1a1e91ed41bcd0fcc1b0e141",
          "function": "set(string,address)",
          "arguments": [
            "no_op_governance_factory",
            "0xddAE8B3eD08184682f7Bc32B74d943cEEfEab638"
          ],
          "transaction": {
            "from": "0xace07c3c1d3b556d42633211f0da71dc6f6d1c42",
            "to": "0xc7f2cf4845c6db0e1a1e91ed41bcd0fcc1b0e141",
            "value": "0x0",
            "input": "0xa815ff150000000000000000000000000000000000000000000000000000000000000040000000000000000000000000ddae8b3ed08184682f7bc32b74d943ceefeab63800000000000000000000000000000000000000000000000000000000000000186e6f5f6f705f676f7665726e616e63655f666163746f72790000000000000000",
            "nonce": "0x16",
            "chainId": "0x18c7"
          },
          "additionalContracts": [],
          "isFixedGasLimit": false
        }
      ],
      "receipts": [
        {
          "status": "0x1",
          "cumulativeGasUsed": "0x616242",
          "logs": [
            {
              "address": "0xba5ed099633d3b313e4d5f7bdc1305d3c28ba5ed",
              "topics": [
                "0x2feea65dd4e9f9cbd86b74b7734210c59a1b2981b5b137bd0ee3e208200c9067",
                "0x000000000000000000000000d9fc1ddd70875fc9135bf7357b75ca8d942477fe",
                "0x36da5754437df0eb3f4b5a9981113826c686fb6af91d2242620eb06f30a053a8"
              ],
              "data": "0x",
              "blockHash": "0x5860bf3e80a14d4b7c433a619201602b6ab1250c74f01f1f2e97da893cbad401",
              "blockNumber": "0x8346b4",
              "blockTimestamp": "0x696653ac",
              "transactionHash": "0xab686b8dbc76cc0b229709f3b47ee2bfbdfd3832bf503d29c30e84f59fcebe6d",
              "transactionIndex": "0x8",
              "logIndex": "0x3f",
              "removed": false
            },
            {
              "address": "0xba5ed099633d3b313e4d5f7bdc1305d3c28ba5ed",
              "topics": [
                "0x4db17dd5e4732fb6da34a148104a592783ca119a1e7bb8829eba6cbadef0b511",
                "0x000000000000000000000000ddae8b3ed08184682f7bc32b74d943ceefeab638"
              ],
              "data": "0x",
              "blockHash": "0x5860bf3e80a14d4b7c433a619201602b6ab1250c74f01f1f2e97da893cbad401",
              "blockNumber": "0x8346b4",
              "blockTimestamp": "0x696653ac",
              "transactionHash": "0xab686b8dbc76cc0b229709f3b47ee2bfbdfd3832bf503d29c30e84f59fcebe6d",
              "transactionIndex": "0x8",
              "logIndex": "0x40",
              "removed": false
            }
          ],
          "logsBloom": "0x00020000000000000000000000000000010000100000000000000000200000000000000000000000000000000000000000000000000004000000000000000000000000000000000000000000020000000000004000000000000000000000000000000000000000000000000000000000000000000020000000000000000400000000000000000000000000000020000000000000000000000000004000000000000000000000000000000000000000000000002000000000000004000000000000000000000000000200000000000000000000002000000000000000000000000000000000000200000000000000000000000000000000000042000000000000",
          "type": "0x2",
          "transactionHash": "0xab686b8dbc76cc0b229709f3b47ee2bfbdfd3832bf503d29c30e84f59fcebe6d",
          "transactionIndex": "0x8",
          "blockHash": "0x5860bf3e80a14d4b7c433a619201602b6ab1250c74f01f1f2e97da893cbad401",
          "blockNumber": "0x8346b4",
          "gasUsed": "0x224472",
          "effectiveGasPrice": "0x10c8e0",
          "from": "0xace07c3c1d3b556d42633211f0da71dc6f6d1c42",
          "to": "0xba5ed099633d3b313e4d5f7bdc1305d3c28ba5ed",
          "contractAddress": null,
          "l1BaseFeeScalar": "0x558",
          "l1BlobBaseFee": "0x129150e9a5557e0d",
          "l1BlobBaseFeeScalar": "0x0",
          "l1Fee": "0x15ea808d9",
          "l1GasPrice": "0x3f30382e",
          "l1GasUsed": "0xfd8"
        },
        {
          "status": "0x1",
          "cumulativeGasUsed": "0x403576",
          "logs": [],
          "logsBloom": "0x00000000000000000000000000000000000000000000000000000000000000000000000000000000000000000000000000000000000000000000000000000000000000000000000000000000000000000000000000000000000000000000000000000000000000000000000000000000000000000000000000000000000000000000000000000000000000000000000000000000000000000000000000000000000000000000000000000000000000000000000000000000000000000000000000000000000000000000000000000000000000000000000000000000000000000000000000000000000000000000000000000000000000000000000000000000",
          "type": "0x2",
          "transactionHash": "0xe66d5fc6acc80d74e15c5e20850582224701107941890c6ae7fa196a97a32cde",
          "transactionIndex": "0x8",
          "blockHash": "0x69ce314e8a674e0caa328316e5c70111c5c5f66bcd9de8563c086f1e33079b73",
          "blockNumber": "0x8346b6",
          "gasUsed": "0x11ad8",
          "effectiveGasPrice": "0x10c8e0",
          "from": "0xace07c3c1d3b556d42633211f0da71dc6f6d1c42",
          "to": "0xc7f2cf4845c6db0e1a1e91ed41bcd0fcc1b0e141",
          "contractAddress": null,
          "l1BaseFeeScalar": "0x558",
          "l1BlobBaseFee": "0x129150e9a5557e0d",
          "l1BlobBaseFeeScalar": "0x0",
          "l1Fee": "0x99fa354f",
          "l1GasPrice": "0x3f30382e",
          "l1GasUsed": "0x6f5"
        }
      ],
      "libraries": [],
      "pending": [],
      "returns": {},
      "timestamp": 1768313762572,
      "chain": 6343,
      "commit": "e7b5f49"
    }
  ],
  "timestamp": 1768313773956
}