{
  "deployments": [
    {
      "transactions": [
        {
          "hash": "0x8025107f901ac3fff7bb741e5a3fc03b9dea4ba5722bb0b9bce203edcc426b21",
          "transactionType": "CALL",
          "contractName": null,
          "contractAddress": "0xba5ed099633d3b313e4d5f7bdc1305d3c28ba5ed",
          "function": "deployCreate3(bytes32,bytes)",
          "arguments": [
            "0xace07c3c1d3b556d42633211f0da71dc6f6d1c420065b5aba6af9a632be120cb",
            "0x60a034606e57601f61063e38819003918201601f19168301916001600160401b03831184841017607257808492602094604052833981010312606e57516001600160a01b03811690819003606e576080526040516105b790816100878239608051818181607301526102fc0152f35b5f80fd5b634e487b7160e01b5f52604160045260245ffdfe6080806040526004361015610012575f80fd5b5f3560e01c908163153ed33b146103f15750806327a98b92146102c257806369901858146101455780639e31738314610105578063b21d03b6146100a65763fbaef75e1461005e575f80fd5b346100a2575f3660031901126100a2576040517f00000000000000000000000000000000000000000000000000000000000000006001600160a01b03168152602090f35b5f80fd5b346100a25760403660031901126100a2576100bf61042a565b6100c7610440565b9060018060a01b03165f525f60205260405f209060018060a01b03165f526020526040805f2060ff6001825492015416825191825215156020820152f35b346100a25760603660031901126100a25761011e61042a565b610126610440565b604435906001600160a01b03821682036100a25761014392610456565b005b60603660031901126100a25761015961042a565b610161610440565b6001600160a01b03818116929081169160443591848410919082156102bc5781905b60018060a01b03165f525f60205260405f209060018060a01b03165f5260205260405f20918254155f1461029f576101ca90600184019060ff801983541691151516179055565b846102375750813403610228575b80549082820180921161021457556040519081527f606a2f12765315179d29655723ac209c5abb6ea2f0c648f179d4f3bfd20e83ed60203392a4005b634e487b7160e01b5f52601160045260245ffd5b63090ac0d760e21b5f5260045ffd5b34610228576040519083606052306040523360601b602c526323b872dd60601b600c5260205f6064601c82855af1908160015f51141615610281575b50505f6060526040526101d8565b3b153d171015610292578580610273565b637939f4245f526004601cfd5b600183015460ff161515146101ca576250585160e41b5f5260045ffd5b81610183565b346100a25760403660031901126100a2576102db61042a565b60243580151581036100a257604051638da5cb5b60e01b81526020816004817f00000000000000000000000000000000000000000000000000000000000000006001600160a01b03165afa9081156103e6575f9161037b575b506001600160a01b0316330361036c576101439160018060a01b03165f52600160205260405f209060ff801983541691151516179055565b630cb1a3fb60e41b5f5260045ffd5b905060203d6020116103df575b601f8101601f191682016001600160401b038111838210176103cb576020918391604052810103126100a257516001600160a01b03811681036100a25783610334565b634e487b7160e01b5f52604160045260245ffd5b503d610388565b6040513d5f823e3d90fd5b346100a25760203660031901126100a2576020906001600160a01b0361041561042a565b165f526001825260ff60405f20541615158152f35b600435906001600160a01b03821682036100a257565b602435906001600160a01b03821682036100a257565b919091335f52600160205260ff60405f2054161561059b576001600160a01b038181165f9081526020818152604080832093871683529290522080549190821561059457805f60019255019360ff8554165f1461058d5780945b6001600160a01b038616958661053657505f38818087895af1156105295760ff905b5416156105215750905b604080516001600160a01b0394851681526020810192909252919092169133917f55a6bb5f8b10d2919d59ad3247217d9110cd5d75b60dfb779f3616ff452962cc91a4565b9050906104dc565b63b12d13eb5f526004601cfd5b856014528460345263a9059cbb60601b5f5260205f6044601082855af1908160015f5114161561056f575b505060ff905f6034526104d2565b3b153d171015610580575f80610561565b6390b8ec185f526004601cfd5b81946104b0565b5050505050565b632aad004360e11b5f5260045ffdfea164736f6c634300081a000a000000000000000000000000de3599a2ec440b296373a983c85c365da55d9dfa"
          ],
          "transaction": {
            "from": "0xace07c3c1d3b556d42633211f0da71dc6f6d1c42",
            "to": "0xba5ed099633d3b313e4d5f7bdc1305d3c28ba5ed",
            "gas": "0x8bddf",
            "value": "0x0",
            "input": "0x9c36a286ace07c3c1d3b556d42633211f0da71dc6f6d1c420065b5aba6af9a632be120cb0000000000000000000000000000000000000000000000000000000000000040000000000000000000000000000000000000000000000000000000000000065e60a034606e57601f61063e38819003918201601f19168301916001600160401b03831184841017607257808492602094604052833981010312606e57516001600160a01b03811690819003606e576080526040516105b790816100878239608051818181607301526102fc0152f35b5f80fd5b634e487b7160e01b5f52604160045260245ffdfe6080806040526004361015610012575f80fd5b5f3560e01c908163153ed33b146103f15750806327a98b92146102c257806369901858146101455780639e31738314610105578063b21d03b6146100a65763fbaef75e1461005e575f80fd5b346100a2575f3660031901126100a2576040517f00000000000000000000000000000000000000000000000000000000000000006001600160a01b03168152602090f35b5f80fd5b346100a25760403660031901126100a2576100bf61042a565b6100c7610440565b9060018060a01b03165f525f60205260405f209060018060a01b03165f526020526040805f2060ff6001825492015416825191825215156020820152f35b346100a25760603660031901126100a25761011e61042a565b610126610440565b604435906001600160a01b03821682036100a25761014392610456565b005b60603660031901126100a25761015961042a565b610161610440565b6001600160a01b03818116929081169160443591848410919082156102bc5781905b60018060a01b03165f525f60205260405f209060018060a01b03165f5260205260405f20918254155f1461029f576101ca90600184019060ff801983541691151516179055565b846102375750813403610228575b80549082820180921161021457556040519081527f606a2f12765315179d29655723ac209c5abb6ea2f0c648f179d4f3bfd20e83ed60203392a4005b634e487b7160e01b5f52601160045260245ffd5b63090ac0d760e21b5f5260045ffd5b34610228576040519083606052306040523360601b602c526323b872dd60601b600c5260205f6064601c82855af1908160015f51141615610281575b50505f6060526040526101d8565b3b153d171015610292578580610273565b637939f4245f526004601cfd5b600183015460ff161515146101ca576250585160e41b5f5260045ffd5b81610183565b346100a25760403660031901126100a2576102db61042a565b60243580151581036100a257604051638da5cb5b60e01b81526020816004817f00000000000000000000000000000000000000000000000000000000000000006001600160a01b03165afa9081156103e6575f9161037b575b506001600160a01b0316330361036c576101439160018060a01b03165f52600160205260405f209060ff801983541691151516179055565b630cb1a3fb60e41b5f5260045ffd5b905060203d6020116103df575b601f8101601f191682016001600160401b038111838210176103cb576020918391604052810103126100a257516001600160a01b03811681036100a25783610334565b634e487b7160e01b5f52604160045260245ffd5b503d610388565b6040513d5f823e3d90fd5b346100a25760203660031901126100a2576020906001600160a01b0361041561042a565b165f526001825260ff60405f20541615158152f35b600435906001600160a01b03821682036100a257565b602435906001600160a01b03821682036100a257565b919091335f52600160205260ff60405f2054161561059b576001600160a01b038181165f9081526020818152604080832093871683529290522080549190821561059457805f60019255019360ff8554165f1461058d5780945b6001600160a01b038616958661053657505f38818087895af1156105295760ff905b5416156105215750905b604080516001600160a01b0394851681526020810192909252919092169133917f55a6bb5f8b10d2919d59ad3247217d9110cd5d75b60dfb779f3616ff452962cc91a4565b9050906104dc565b63b12d13eb5f526004601cfd5b856014528460345263a9059cbb60601b5f5260205f6044601082855af1908160015f5114161561056f575b505060ff905f6034526104d2565b3b153d171015610580575f80610561565b6390b8ec185f526004601cfd5b81946104b0565b5050505050565b632aad004360e11b5f5260045ffdfea164736f6c634300081a000a000000000000000000000000de3599a2ec440b296373a983c85c365da55d9dfa0000",
            "nonce": "0x15",
            "chainId": "0x1"
          },
          "additionalContracts": [
            {
              "transactionType": "CREATE2",
              "contractName": null,
              "address": "0xdb4ad25c691b81d9d0502c7a63ec392f0483f485",
              "initCode": "0x67363d3d37363d34f03d5260086018f3"
            },
            {
              "transactionType": "CREATE",
              "contractName": "TopUpDistributor",
              "address": "0x435312320c0330b1999746753551cdfbd83ad814",
              "initCode": "0x60a034606e57601f61063e38819003918201601f19168301916001600160401b03831184841017607257808492602094604052833981010312606e57516001600160a01b03811690819003606e576080526040516105b790816100878239608051818181607301526102fc0152f35b5f80fd5b634e487b7160e01b5f52604160045260245ffdfe6080806040526004361015610012575f80fd5b5f3560e01c908163153ed33b146103f15750806327a98b92146102c257806369901858146101455780639e31738314610105578063b21d03b6146100a65763fbaef75e1461005e575f80fd5b346100a2575f3660031901126100a2576040517f00000000000000000000000000000000000000000000000000000000000000006001600160a01b03168152602090f35b5f80fd5b346100a25760403660031901126100a2576100bf61042a565b6100c7610440565b9060018060a01b03165f525f60205260405f209060018060a01b03165f526020526040805f2060ff6001825492015416825191825215156020820152f35b346100a25760603660031901126100a25761011e61042a565b610126610440565b604435906001600160a01b03821682036100a25761014392610456565b005b60603660031901126100a25761015961042a565b610161610440565b6001600160a01b03818116929081169160443591848410919082156102bc5781905b60018060a01b03165f525f60205260405f209060018060a01b03165f5260205260405f20918254155f1461029f576101ca90600184019060ff801983541691151516179055565b846102375750813403610228575b80549082820180921161021457556040519081527f606a2f12765315179d29655723ac209c5abb6ea2f0c648f179d4f3bfd20e83ed60203392a4005b634e487b7160e01b5f52601160045260245ffd5b63090ac0d760e21b5f5260045ffd5b34610228576040519083606052306040523360601b602c526323b872dd60601b600c5260205f6064601c82855af1908160015f51141615610281575b50505f6060526040526101d8565b3b153d171015610292578580610273565b637939f4245f526004601cfd5b600183015460ff161515146101ca576250585160e41b5f5260045ffd5b81610183565b346100a25760403660031901126100a2576102db61042a565b60243580151581036100a257604051638da5cb5b60e01b81526020816004817f00000000000000000000000000000000000000000000000000000000000000006001600160a01b03165afa9081156103e6575f9161037b575b506001600160a01b0316330361036c576101439160018060a01b03165f52600160205260405f209060ff801983541691151516179055565b630cb1a3fb60e41b5f5260045ffd5b905060203d6020116103df575b601f8101601f191682016001600160401b038111838210176103cb576020918391604052810103126100a257516001600160a01b03811681036100a25783610334565b634e487b7160e01b5f52604160045260245ffd5b503d610388565b6040513d5f823e3d90fd5b346100a25760203660031901126100a2576020906001600160a01b0361041561042a565b165f526001825260ff60405f20541615158152f35b600435906001600160a01b03821682036100a257565b602435906001600160a01b03821682036100a257565b919091335f52600160205260ff60405f2054161561059b576001600160a01b038181165f9081526020818152604080832093871683529290522080549190821561059457805f60019255019360ff8554165f1461058d5780945b6001600160a01b038616958661053657505f38818087895af1156105295760ff905b5416156105215750905b604080516001600160a01b0394851681526020810192909252919092169133917f55a6bb5f8b10d2919d59ad3247217d9110cd5d75b60dfb779f3616ff452962cc91a4565b9050906104dc565b63b12d13eb5f526004601cfd5b856014528460345263a9059cbb60601b5f5260205f6044601082855af1908160015f5114161561056f575b505060ff905f6034526104d2565b3b153d171015610580575f80610561565b6390b8ec185f526004601cfd5b81946104b0565b5050505050565b632aad004360e11b5f5260045ffdfea164736f6c634300081a000a000000000000000000000000de3599a2ec440b296373a983c85c365da55d9dfa"
            }
          ],
          "isFixedGasLimit": false
        }
      ],
      "receipts": [
        {
          "status": "0x1",
          "cumulativeGasUsed": "0x118508d",
          "logs": [
            {
              "address": "0xba5ed099633d3b313e4d5f7bdc1305d3c28ba5ed",
              "topics": [
                "0x2feea65dd4e9f9cbd86b74b7734210c59a1b2981b5b137bd0ee3e208200c9067",
                "0x000000000000000000000000db4ad25c691b81d9d0502c7a63ec392f0483f485",
                "0x2147990bd279badf296486f51c0c336349c17f3b9918188b10f0554fb97fe96c"
              ],
              "data": "0x",
              "blockHash": "0x71f1969faf4f45cdb9fe4cc4825cff7bdbed6e012bb43affbf7b02f2abeb0fb3",
              "blockNumber": "0x1765d2d",
              "blockTimestamp": "0x699efd23",
              "transactionHash": "0x8025107f901ac3fff7bb741e5a3fc03b9dea4ba5722bb0b9bce203edcc426b21",
              "transactionIndex": "0xb5",
              "logIndex": "0x1eb",
              "removed": false
            },
            {
              "address": "0xba5ed099633d3b313e4d5f7bdc1305d3c28ba5ed",
              "topics": [
                "0x4db17dd5e4732fb6da34a148104a592783ca119a1e7bb8829eba6cbadef0b511",
                "0x000000000000000000000000435312320c0330b1999746753551cdfbd83ad814"
              ],
              "data": "0x",
              "blockHash": "0x71f1969faf4f45cdb9fe4cc4825cff7bdbed6e012bb43affbf7b02f2abeb0fb3",
              "blockNumber": "0x1765d2d",
              "blockTimestamp": "0x699efd23",
              "transactionHash": "0x8025107f901ac3fff7bb741e5a3fc03b9dea4ba5722bb0b9bce203edcc426b21",
              "transactionIndex": "0xb5",
              "logIndex": "0x1ec",
              "removed": false
            }
          ],
          "logsBloom": "0x00020000000000000000400000000000000000000001000000000000202000002200000000000000000000000000000000000000000004000000000000000000000000000000000000000000020000080000000000000000000000000000000000000000000000010000000000000000000000000020000000010000000000000000000000000000000000000000000000000000000000000000004000000000000000000000000040000000000000000000000000000000000000000000000000000000000000000200000000000000000000002000000000000000000000000000000000000200000000000000000000000000000000000000000000000000",
          "type": "0x2",
          "transactionHash": "0x8025107f901ac3fff7bb741e5a3fc03b9dea4ba5722bb0b9bce203edcc426b21",
          "transactionIndex": "0xb5",
          "blockHash": "0x71f1969faf4f45cdb9fe4cc4825cff7bdbed6e012bb43affbf7b02f2abeb0fb3",
          "blockNumber": "0x1765d2d",
          "gasUsed": "0x6542f",
          "effectiveGasPrice": "0x7e268b4",
          "from": "0xace07c3c1d3b556d42633211f0da71dc6f6d1c42",
          "to": "0xba5ed099633d3b313e4d5f7bdc1305d3c28ba5ed",
          "contractAddress": null
        }
      ],
      "libraries": [],
      "pending": [],
      "returns": {},
      "timestamp": 1772027158982,
      "chain": 1,
      "commit": "a4390e7"
    },
    {
      "transactions": [
        {
          "hash": "0x32026c6de4babe33d8626d261e7e84d0c5026e10bc172ab6ff18efb3951214af",
          "transactionType": "CALL",
          "contractName": null,
          "contractAddress": "0xba5ed099633d3b313e4d5f7bdc1305d3c28ba5ed",
          "function": "deployCreate3(bytes32,bytes)",
          "arguments": [
            "0xace07c3c1d3b556d42633211f0da71dc6f6d1c420065b5aba6af9a632be120cb",
            "0x60a034606e57601f61063e38819003918201601f19168301916001600160401b03831184841017607257808492602094604052833981010312606e57516001600160a01b03811690819003606e576080526040516105b790816100878239608051818181607301526102fc0152f35b5f80fd5b634e487b7160e01b5f52604160045260245ffdfe6080806040526004361015610012575f80fd5b5f3560e01c908163153ed33b146103f15750806327a98b92146102c257806369901858146101455780639e31738314610105578063b21d03b6146100a65763fbaef75e1461005e575f80fd5b346100a2575f3660031901126100a2576040517f00000000000000000000000000000000000000000000000000000000000000006001600160a01b03168152602090f35b5f80fd5b346100a25760403660031901126100a2576100bf61042a565b6100c7610440565b9060018060a01b03165f525f60205260405f209060018060a01b03165f526020526040805f2060ff6001825492015416825191825215156020820152f35b346100a25760603660031901126100a25761011e61042a565b610126610440565b604435906001600160a01b03821682036100a25761014392610456565b005b60603660031901126100a25761015961042a565b610161610440565b6001600160a01b03818116929081169160443591848410919082156102bc5781905b60018060a01b03165f525f60205260405f209060018060a01b03165f5260205260405f20918254155f1461029f576101ca90600184019060ff801983541691151516179055565b846102375750813403610228575b80549082820180921161021457556040519081527f606a2f12765315179d29655723ac209c5abb6ea2f0c648f179d4f3bfd20e83ed60203392a4005b634e487b7160e01b5f52601160045260245ffd5b63090ac0d760e21b5f5260045ffd5b34610228576040519083606052306040523360601b602c526323b872dd60601b600c5260205f6064601c82855af1908160015f51141615610281575b50505f6060526040526101d8565b3b153d171015610292578580610273565b637939f4245f526004601cfd5b600183015460ff161515146101ca576250585160e41b5f5260045ffd5b81610183565b346100a25760403660031901126100a2576102db61042a565b60243580151581036100a257604051638da5cb5b60e01b81526020816004817f00000000000000000000000000000000000000000000000000000000000000006001600160a01b03165afa9081156103e6575f9161037b575b506001600160a01b0316330361036c576101439160018060a01b03165f52600160205260405f209060ff801983541691151516179055565b630cb1a3fb60e41b5f5260045ffd5b905060203d6020116103df575b601f8101601f191682016001600160401b038111838210176103cb576020918391604052810103126100a257516001600160a01b03811681036100a25783610334565b634e487b7160e01b5f52604160045260245ffd5b503d610388565b6040513d5f823e3d90fd5b346100a25760203660031901126100a2576020906001600160a01b0361041561042a565b165f526001825260ff60405f20541615158152f35b600435906001600160a01b03821682036100a257565b602435906001600160a01b03821682036100a257565b919091335f52600160205260ff60405f2054161561059b576001600160a01b038181165f9081526020818152604080832093871683529290522080549190821561059457805f60019255019360ff8554165f1461058d5780945b6001600160a01b038616958661053657505f38818087895af1156105295760ff905b5416156105215750905b604080516001600160a01b0394851681526020810192909252919092169133917f55a6bb5f8b10d2919d59ad3247217d9110cd5d75b60dfb779f3616ff452962cc91a4565b9050906104dc565b63b12d13eb5f526004601cfd5b856014528460345263a9059cbb60601b5f5260205f6044601082855af1908160015f5114161561056f575b505060ff905f6034526104d2565b3b153d171015610580575f80610561565b6390b8ec185f526004601cfd5b81946104b0565b5050505050565b632aad004360e11b5f5260045ffdfea164736f6c634300081a000a000000000000000000000000de3599a2ec440b296373a983c85c365da55d9dfa"
          ],
          "transaction": {
            "from": "0xace07c3c1d3b556d42633211f0da71dc6f6d1c42",
            "to": "0xba5ed099633d3b313e4d5f7bdc1305d3c28ba5ed",
            "gas": "0x8bddf",
            "value": "0x0",
            "input": "0x9c36a286ace07c3c1d3b556d42633211f0da71dc6f6d1c420065b5aba6af9a632be120cb0000000000000000000000000000000000000000000000000000000000000040000000000000000000000000000000000000000000000000000000000000065e60a034606e57601f61063e38819003918201601f19168301916001600160401b03831184841017607257808492602094604052833981010312606e57516001600160a01b03811690819003606e576080526040516105b790816100878239608051818181607301526102fc0152f35b5f80fd5b634e487b7160e01b5f52604160045260245ffdfe6080806040526004361015610012575f80fd5b5f3560e01c908163153ed33b146103f15750806327a98b92146102c257806369901858146101455780639e31738314610105578063b21d03b6146100a65763fbaef75e1461005e575f80fd5b346100a2575f3660031901126100a2576040517f00000000000000000000000000000000000000000000000000000000000000006001600160a01b03168152602090f35b5f80fd5b346100a25760403660031901126100a2576100bf61042a565b6100c7610440565b9060018060a01b03165f525f60205260405f209060018060a01b03165f526020526040805f2060ff6001825492015416825191825215156020820152f35b346100a25760603660031901126100a25761011e61042a565b610126610440565b604435906001600160a01b03821682036100a25761014392610456565b005b60603660031901126100a25761015961042a565b610161610440565b6001600160a01b03818116929081169160443591848410919082156102bc5781905b60018060a01b03165f525f60205260405f209060018060a01b03165f5260205260405f20918254155f1461029f576101ca90600184019060ff801983541691151516179055565b846102375750813403610228575b80549082820180921161021457556040519081527f606a2f12765315179d29655723ac209c5abb6ea2f0c648f179d4f3bfd20e83ed60203392a4005b634e487b7160e01b5f52601160045260245ffd5b63090ac0d760e21b5f5260045ffd5b34610228576040519083606052306040523360601b602c526323b872dd60601b600c5260205f6064601c82855af1908160015f51141615610281575b50505f6060526040526101d8565b3b153d171015610292578580610273565b637939f4245f526004601cfd5b600183015460ff161515146101ca576250585160e41b5f5260045ffd5b81610183565b346100a25760403660031901126100a2576102db61042a565b60243580151581036100a257604051638da5cb5b60e01b81526020816004817f00000000000000000000000000000000000000000000000000000000000000006001600160a01b03165afa9081156103e6575f9161037b575b506001600160a01b0316330361036c576101439160018060a01b03165f52600160205260405f209060ff801983541691151516179055565b630cb1a3fb60e41b5f5260045ffd5b905060203d6020116103df575b601f8101601f191682016001600160401b038111838210176103cb576020918391604052810103126100a257516001600160a01b03811681036100a25783610334565b634e487b7160e01b5f52604160045260245ffd5b503d610388565b6040513d5f823e3d90fd5b346100a25760203660031901126100a2576020906001600160a01b0361041561042a565b165f526001825260ff60405f20541615158152f35b600435906001600160a01b03821682036100a257565b602435906001600160a01b03821682036100a257565b919091335f52600160205260ff60405f2054161561059b576001600160a01b038181165f9081526020818152604080832093871683529290522080549190821561059457805f60019255019360ff8554165f1461058d5780945b6001600160a01b038616958661053657505f38818087895af1156105295760ff905b5416156105215750905b604080516001600160a01b0394851681526020810192909252919092169133917f55a6bb5f8b10d2919d59ad3247217d9110cd5d75b60dfb779f3616ff452962cc91a4565b9050906104dc565b63b12d13eb5f526004601cfd5b856014528460345263a9059cbb60601b5f5260205f6044601082855af1908160015f5114161561056f575b505060ff905f6034526104d2565b3b153d171015610580575f80610561565b6390b8ec185f526004601cfd5b81946104b0565b5050505050565b632aad004360e11b5f5260045ffdfea164736f6c634300081a000a000000000000000000000000de3599a2ec440b296373a983c85c365da55d9dfa0000",
            "nonce": "0x1a",
            "chainId": "0xaa36a7"
          },
          "additionalContracts": [
            {
              "transactionType": "CREATE2",
              "contractName": null,
              "address": "0xdb4ad25c691b81d9d0502c7a63ec392f0483f485",
              "initCode": "0x67363d3d37363d34f03d5260086018f3"
            },
            {
              "transactionType": "CREATE",
              "contractName": "TopUpDistributor",
              "address": "0x435312320c0330b1999746753551cdfbd83ad814",
              "initCode": "0x60a034606e57601f61063e38819003918201601f19168301916001600160401b03831184841017607257808492602094604052833981010312606e57516001600160a01b03811690819003606e576080526040516105b790816100878239608051818181607301526102fc0152f35b5f80fd5b634e487b7160e01b5f52604160045260245ffdfe6080806040526004361015610012575f80fd5b5f3560e01c908163153ed33b146103f15750806327a98b92146102c257806369901858146101455780639e31738314610105578063b21d03b6146100a65763fbaef75e1461005e575f80fd5b346100a2575f3660031901126100a2576040517f00000000000000000000000000000000000000000000000000000000000000006001600160a01b03168152602090f35b5f80fd5b346100a25760403660031901126100a2576100bf61042a565b6100c7610440565b9060018060a01b03165f525f60205260405f209060018060a01b03165f526020526040805f2060ff6001825492015416825191825215156020820152f35b346100a25760603660031901126100a25761011e61042a565b610126610440565b604435906001600160a01b03821682036100a25761014392610456565b005b60603660031901126100a25761015961042a565b610161610440565b6001600160a01b03818116929081169160443591848410919082156102bc5781905b60018060a01b03165f525f60205260405f209060018060a01b03165f5260205260405f20918254155f1461029f576101ca90600184019060ff801983541691151516179055565b846102375750813403610228575b80549082820180921161021457556040519081527f606a2f12765315179d29655723ac209c5abb6ea2f0c648f179d4f3bfd20e83ed60203392a4005b634e487b7160e01b5f52601160045260245ffd5b63090ac0d760e21b5f5260045ffd5b34610228576040519083606052306040523360601b602c526323b872dd60601b600c5260205f6064601c82855af1908160015f51141615610281575b50505f6060526040526101d8565b3b153d171015610292578580610273565b637939f4245f526004601cfd5b600183015460ff161515146101ca576250585160e41b5f5260045ffd5b81610183565b346100a25760403660031901126100a2576102db61042a565b60243580151581036100a257604051638da5cb5b60e01b81526020816004817f00000000000000000000000000000000000000000000000000000000000000006001600160a01b03165afa9081156103e6575f9161037b575b506001600160a01b0316330361036c576101439160018060a01b03165f52600160205260405f209060ff801983541691151516179055565b630cb1a3fb60e41b5f5260045ffd5b905060203d6020116103df575b601f8101601f191682016001600160401b038111838210176103cb576020918391604052810103126100a257516001600160a01b03811681036100a25783610334565b634e487b7160e01b5f52604160045260245ffd5b503d610388565b6040513d5f823e3d90fd5b346100a25760203660031901126100a2576020906001600160a01b0361041561042a565b165f526001825260ff60405f20541615158152f35b600435906001600160a01b03821682036100a257565b602435906001600160a01b03821682036100a257565b919091335f52600160205260ff60405f2054161561059b576001600160a01b038181165f9081526020818152604080832093871683529290522080549190821561059457805f60019255019360ff8554165f1461058d5780945b6001600160a01b038616958661053657505f38818087895af1156105295760ff905b5416156105215750905b604080516001600160a01b0394851681526020810192909252919092169133917f55a6bb5f8b10d2919d59ad3247217d9110cd5d75b60dfb779f3616ff452962cc91a4565b9050906104dc565b63b12d13eb5f526004601cfd5b856014528460345263a9059cbb60601b5f5260205f6044601082855af1908160015f5114161561056f575b505060ff905f6034526104d2565b3b153d171015610580575f80610561565b6390b8ec185f526004601cfd5b81946104b0565b5050505050565b632aad004360e11b5f5260045ffdfea164736f6c634300081a000a000000000000000000000000de3599a2ec440b296373a983c85c365da55d9dfa"
            }
          ],
          "isFixedGasLimit": false
        }
      ],
      "receipts": [
        {
          "status": "0x1",
          "cumulativeGasUsed": "0x1023311",
          "logs": [
            {
              "address": "0xba5ed099633d3b313e4d5f7bdc1305d3c28ba5ed",
              "topics": [
                "0x2feea65dd4e9f9cbd86b74b7734210c59a1b2981b5b137bd0ee3e208200c9067",
                "0x000000000000000000000000db4ad25c691b81d9d0502c7a63ec392f0483f485",
                "0x2147990bd279badf296486f51c0c336349c17f3b9918188b10f0554fb97fe96c"
              ],
              "data": "0x",
              "blockHash": "0x2ffbd7a83d5ec4927f50d2a9d25e29aeb61517961a668aa789d8869a0bc4b604",
              "blockNumber": "0x9dafc1",
              "blockTimestamp": "0x699efd30",
              "transactionHash": "0x32026c6de4babe33d8626d261e7e84d0c5026e10bc172ab6ff18efb3951214af",
              "transactionIndex": "0x65",
              "logIndex": "0x10a",
              "removed": false
            },
            {
              "address": "0xba5ed099633d3b313e4d5f7bdc1305d3c28ba5ed",
              "topics": [
                "0x4db17dd5e4732fb6da34a148104a592783ca119a1e7bb8829eba6cbadef0b511",
                "0x000000000000000000000000435312320c0330b1999746753551cdfbd83ad814"
              ],
              "data": "0x",
              "blockHash": "0x2ffbd7a83d5ec4927f50d2a9d25e29aeb61517961a668aa789d8869a0bc4b604",
              "blockNumber": "0x9dafc1",
              "blockTimestamp": "0x699efd30",
              "transactionHash": "0x32026c6de4babe33d8626d261e7e84d0c5026e10bc172ab6ff18efb3951214af",
              "transactionIndex": "0x65",
              "logIndex": "0x10b",
              "removed": false
            }
          ],
          "logsBloom": "0x00020000000000000000400000000000000000000001000000000000202000002200000000000000000000000000000000000000000004000000000000000000000000000000000000000000020000080000000000000000000000000000000000000000000000010000000000000000000000000020000000010000000000000000000000000000000000000000000000000000000000000000004000000000000000000000000040000000000000000000000000000000000000000000000000000000000000000200000000000000000000002000000000000000000000000000000000000200000000000000000000000000000000000000000000000000",
          "type": "0x2",
          "transactionHash": "0x32026c6de4babe33d8626d261e7e84d0c5026e10bc172ab6ff18efb3951214af",
          "transactionIndex": "0x65",
          "blockHash": "0x2ffbd7a83d5ec4927f50d2a9d25e29aeb61517961a668aa789d8869a0bc4b604",
          "blockNumber": "0x9dafc1",
          "gasUsed": "0x6542f",
          "effectiveGasPrice": "0xfd82e",
          "from": "0xace07c3c1d3b556d42633211f0da71dc6f6d1c42",
          "to": "0xba5ed099633d3b313e4d5f7bdc1305d3c28ba5ed",
          "contractAddress": null
        }
      ],
      "libraries": [],
      "pending": [],
      "returns": {},
      "timestamp": 1772027160097,
      "chain": 11155111,
      "commit": "a4390e7"
    },
    {
      "transactions": [
        {
          "hash": "0xa80bc61388efdf2172a1f2996764798319eab1cf6336aabc366d26e995b4d3dd",
          "transactionType": "CALL",
          "contractName": null,
          "contractAddress": "0xba5ed099633d3b313e4d5f7bdc1305d3c28ba5ed",
          "function": "deployCreate3(bytes32,bytes)",
          "arguments": [
            "0xace07c3c1d3b556d42633211f0da71dc6f6d1c420065b5aba6af9a632be120cb",
            "0x60a034606e57601f61063e38819003918201601f19168301916001600160401b03831184841017607257808492602094604052833981010312606e57516001600160a01b03811690819003606e576080526040516105b790816100878239608051818181607301526102fc0152f35b5f80fd5b634e487b7160e01b5f52604160045260245ffdfe6080806040526004361015610012575f80fd5b5f3560e01c908163153ed33b146103f15750806327a98b92146102c257806369901858146101455780639e31738314610105578063b21d03b6146100a65763fbaef75e1461005e575f80fd5b346100a2575f3660031901126100a2576040517f00000000000000000000000000000000000000000000000000000000000000006001600160a01b03168152602090f35b5f80fd5b346100a25760403660031901126100a2576100bf61042a565b6100c7610440565b9060018060a01b03165f525f60205260405f209060018060a01b03165f526020526040805f2060ff6001825492015416825191825215156020820152f35b346100a25760603660031901126100a25761011e61042a565b610126610440565b604435906001600160a01b03821682036100a25761014392610456565b005b60603660031901126100a25761015961042a565b610161610440565b6001600160a01b03818116929081169160443591848410919082156102bc5781905b60018060a01b03165f525f60205260405f209060018060a01b03165f5260205260405f20918254155f1461029f576101ca90600184019060ff801983541691151516179055565b846102375750813403610228575b80549082820180921161021457556040519081527f606a2f12765315179d29655723ac209c5abb6ea2f0c648f179d4f3bfd20e83ed60203392a4005b634e487b7160e01b5f52601160045260245ffd5b63090ac0d760e21b5f5260045ffd5b34610228576040519083606052306040523360601b602c526323b872dd60601b600c5260205f6064601c82855af1908160015f51141615610281575b50505f6060526040526101d8565b3b153d171015610292578580610273565b637939f4245f526004601cfd5b600183015460ff161515146101ca576250585160e41b5f5260045ffd5b81610183565b346100a25760403660031901126100a2576102db61042a565b60243580151581036100a257604051638da5cb5b60e01b81526020816004817f00000000000000000000000000000000000000000000000000000000000000006001600160a01b03165afa9081156103e6575f9161037b575b506001600160a01b0316330361036c576101439160018060a01b03165f52600160205260405f209060ff801983541691151516179055565b630cb1a3fb60e41b5f5260045ffd5b905060203d6020116103df575b601f8101601f191682016001600160401b038111838210176103cb576020918391604052810103126100a257516001600160a01b03811681036100a25783610334565b634e487b7160e01b5f52604160045260245ffd5b503d610388565b6040513d5f823e3d90fd5b346100a25760203660031901126100a2576020906001600160a01b0361041561042a565b165f526001825260ff60405f20541615158152f35b600435906001600160a01b03821682036100a257565b602435906001600160a01b03821682036100a257565b919091335f52600160205260ff60405f2054161561059b576001600160a01b038181165f9081526020818152604080832093871683529290522080549190821561059457805f60019255019360ff8554165f1461058d5780945b6001600160a01b038616958661053657505f38818087895af1156105295760ff905b5416156105215750905b604080516001600160a01b0394851681526020810192909252919092169133917f55a6bb5f8b10d2919d59ad3247217d9110cd5d75b60dfb779f3616ff452962cc91a4565b9050906104dc565b63b12d13eb5f526004601cfd5b856014528460345263a9059cbb60601b5f5260205f6044601082855af1908160015f5114161561056f575b505060ff905f6034526104d2565b3b153d171015610580575f80610561565b6390b8ec185f526004601cfd5b81946104b0565b5050505050565b632aad004360e11b5f5260045ffdfea164736f6c634300081a000a000000000000000000000000660eaaedebc968f8f3694354fa8ec0b4c5ba8d12"
          ],
          "transaction": {
            "from": "0xace07c3c1d3b556d42633211f0da71dc6f6d1c42",
            "to": "0xba5ed099633d3b313e4d5f7bdc1305d3c28ba5ed",
            "gas": "0x8bddf",
            "value": "0x0",
            "input": "0x9c36a286ace07c3c1d3b556d42633211f0da71dc6f6d1c420065b5aba6af9a632be120cb0000000000000000000000000000000000000000000000000000000000000040000000000000000000000000000000000000000000000000000000000000065e60a034606e57601f61063e38819003918201601f19168301916001600160401b03831184841017607257808492602094604052833981010312606e57516001600160a01b03811690819003606e576080526040516105b790816100878239608051818181607301526102fc0152f35b5f80fd5b634e487b7160e01b5f52604160045260245ffdfe6080806040526004361015610012575f80fd5b5f3560e01c908163153ed33b146103f15750806327a98b92146102c257806369901858146101455780639e31738314610105578063b21d03b6146100a65763fbaef75e1461005e575f80fd5b346100a2575f3660031901126100a2576040517f00000000000000000000000000000000000000000000000000000000000000006001600160a01b03168152602090f35b5f80fd5b346100a25760403660031901126100a2576100bf61042a565b6100c7610440565b9060018060a01b03165f525f60205260405f209060018060a01b03165f526020526040805f2060ff6001825492015416825191825215156020820152f35b346100a25760603660031901126100a25761011e61042a565b610126610440565b604435906001600160a01b03821682036100a25761014392610456565b005b60603660031901126100a25761015961042a565b610161610440565b6001600160a01b03818116929081169160443591848410919082156102bc5781905b60018060a01b03165f525f60205260405f209060018060a01b03165f5260205260405f20918254155f1461029f576101ca90600184019060ff801983541691151516179055565b846102375750813403610228575b80549082820180921161021457556040519081527f606a2f12765315179d29655723ac209c5abb6ea2f0c648f179d4f3bfd20e83ed60203392a4005b634e487b7160e01b5f52601160045260245ffd5b63090ac0d760e21b5f5260045ffd5b34610228576040519083606052306040523360601b602c526323b872dd60601b600c5260205f6064601c82855af1908160015f51141615610281575b50505f6060526040526101d8565b3b153d171015610292578580610273565b637939f4245f526004601cfd5b600183015460ff161515146101ca576250585160e41b5f5260045ffd5b81610183565b346100a25760403660031901126100a2576102db61042a565b60243580151581036100a257604051638da5cb5b60e01b81526020816004817f00000000000000000000000000000000000000000000000000000000000000006001600160a01b03165afa9081156103e6575f9161037b575b506001600160a01b0316330361036c576101439160018060a01b03165f52600160205260405f209060ff801983541691151516179055565b630cb1a3fb60e41b5f5260045ffd5b905060203d6020116103df575b601f8101601f191682016001600160401b038111838210176103cb576020918391604052810103126100a257516001600160a01b03811681036100a25783610334565b634e487b7160e01b5f52604160045260245ffd5b503d610388565b6040513d5f823e3d90fd5b346100a25760203660031901126100a2576020906001600160a01b0361041561042a565b165f526001825260ff60405f20541615158152f35b600435906001600160a01b03821682036100a257565b602435906001600160a01b03821682036100a257565b919091335f52600160205260ff60405f2054161561059b576001600160a01b038181165f9081526020818152604080832093871683529290522080549190821561059457805f60019255019360ff8554165f1461058d5780945b6001600160a01b038616958661053657505f38818087895af1156105295760ff905b5416156105215750905b604080516001600160a01b0394851681526020810192909252919092169133917f55a6bb5f8b10d2919d59ad3247217d9110cd5d75b60dfb779f3616ff452962cc91a4565b9050906104dc565b63b12d13eb5f526004601cfd5b856014528460345263a9059cbb60601b5f5260205f6044601082855af1908160015f5114161561056f575b505060ff905f6034526104d2565b3b153d171015610580575f80610561565b6390b8ec185f526004601cfd5b81946104b0565b5050505050565b632aad004360e11b5f5260045ffdfea164736f6c634300081a000a000000000000000000000000660eaaedebc968f8f3694354fa8ec0b4c5ba8d120000",
            "nonce": "0x45",
            "chainId": "0x2105"
          },
          "additionalContracts": [
            {
              "transactionType": "CREATE2",
              "contractName": null,
              "address": "0xdb4ad25c691b81d9d0502c7a63ec392f0483f485",
              "initCode": "0x67363d3d37363d34f03d5260086018f3"
            },
            {
              "transactionType": "CREATE",
              "contractName": "TopUpDistributor",
              "address": "0x435312320c0330b1999746753551cdfbd83ad814",
              "initCode": "0x60a034606e57601f61063e38819003918201601f19168301916001600160401b03831184841017607257808492602094604052833981010312606e57516001600160a01b03811690819003606e576080526040516105b790816100878239608051818181607301526102fc0152f35b5f80fd5b634e487b7160e01b5f52604160045260245ffdfe6080806040526004361015610012575f80fd5b5f3560e01c908163153ed33b146103f15750806327a98b92146102c257806369901858146101455780639e31738314610105578063b21d03b6146100a65763fbaef75e1461005e575f80fd5b346100a2575f3660031901126100a2576040517f00000000000000000000000000000000000000000000000000000000000000006001600160a01b03168152602090f35b5f80fd5b346100a25760403660031901126100a2576100bf61042a565b6100c7610440565b9060018060a01b03165f525f60205260405f209060018060a01b03165f526020526040805f2060ff6001825492015416825191825215156020820152f35b346100a25760603660031901126100a25761011e61042a565b610126610440565b604435906001600160a01b03821682036100a25761014392610456565b005b60603660031901126100a25761015961042a565b610161610440565b6001600160a01b03818116929081169160443591848410919082156102bc5781905b60018060a01b03165f525f60205260405f209060018060a01b03165f5260205260405f20918254155f1461029f576101ca90600184019060ff801983541691151516179055565b846102375750813403610228575b80549082820180921161021457556040519081527f606a2f12765315179d29655723ac209c5abb6ea2f0c648f179d4f3bfd20e83ed60203392a4005b634e487b7160e01b5f52601160045260245ffd5b63090ac0d760e21b5f5260045ffd5b34610228576040519083606052306040523360601b602c526323b872dd60601b600c5260205f6064601c82855af1908160015f51141615610281575b50505f6060526040526101d8565b3b153d171015610292578580610273565b637939f4245f526004601cfd5b600183015460ff161515146101ca576250585160e41b5f5260045ffd5b81610183565b346100a25760403660031901126100a2576102db61042a565b60243580151581036100a257604051638da5cb5b60e01b81526020816004817f00000000000000000000000000000000000000000000000000000000000000006001600160a01b03165afa9081156103e6575f9161037b575b506001600160a01b0316330361036c576101439160018060a01b03165f52600160205260405f209060ff801983541691151516179055565b630cb1a3fb60e41b5f5260045ffd5b905060203d6020116103df575b601f8101601f191682016001600160401b038111838210176103cb576020918391604052810103126100a257516001600160a01b03811681036100a25783610334565b634e487b7160e01b5f52604160045260245ffd5b503d610388565b6040513d5f823e3d90fd5b346100a25760203660031901126100a2576020906001600160a01b0361041561042a565b165f526001825260ff60405f20541615158152f35b600435906001600160a01b03821682036100a257565b602435906001600160a01b03821682036100a257565b919091335f52600160205260ff60405f2054161561059b576001600160a01b038181165f9081526020818152604080832093871683529290522080549190821561059457805f60019255019360ff8554165f1461058d5780945b6001600160a01b038616958661053657505f38818087895af1156105295760ff905b5416156105215750905b604080516001600160a01b0394851681526020810192909252919092169133917f55a6bb5f8b10d2919d59ad3247217d9110cd5d75b60dfb779f3616ff452962cc91a4565b9050906104dc565b63b12d13eb5f526004601cfd5b856014528460345263a9059cbb60601b5f5260205f6044601082855af1908160015f5114161561056f575b505060ff905f6034526104d2565b3b153d171015610580575f80610561565b6390b8ec185f526004601cfd5b81946104b0565b5050505050565b632aad004360e11b5f5260045ffdfea164736f6c634300081a000a000000000000000000000000660eaaedebc968f8f3694354fa8ec0b4c5ba8d12"
            }
          ],
          "isFixedGasLimit": false
        }
      ],
      "receipts": [
        {
          "status": "0x1",
          "cumulativeGasUsed": "0x1308cde",
          "logs": [
            {
              "address": "0xba5ed099633d3b313e4d5f7bdc1305d3c28ba5ed",
              "topics": [
                "0x2feea65dd4e9f9cbd86b74b7734210c59a1b2981b5b137bd0ee3e208200c9067",
                "0x000000000000000000000000db4ad25c691b81d9d0502c7a63ec392f0483f485",
                "0x2147990bd279badf296486f51c0c336349c17f3b9918188b10f0554fb97fe96c"
              ],
              "data": "0x",
              "blockHash": "0x0000000000000000000000000000000000000000000000000000000000000000",
              "blockNumber": "0x28a5029",
              "blockTimestamp": "0x699efd35",
              "transactionHash": "0xa80bc61388efdf2172a1f2996764798319eab1cf6336aabc366d26e995b4d3dd",
              "transactionIndex": "0x2f",
              "logIndex": "0x18b",
              "removed": false
            },
            {
              "address": "0xba5ed099633d3b313e4d5f7bdc1305d3c28ba5ed",
              "topics": [
                "0x4db17dd5e4732fb6da34a148104a592783ca119a1e7bb8829eba6cbadef0b511",
                "0x000000000000000000000000435312320c0330b1999746753551cdfbd83ad814"
              ],
              "data": "0x",
              "blockHash": "0x0000000000000000000000000000000000000000000000000000000000000000",
              "blockNumber": "0x28a5029",
              "blockTimestamp": "0x699efd35",
              "transactionHash": "0xa80bc61388efdf2172a1f2996764798319eab1cf6336aabc366d26e995b4d3dd",
              "transactionIndex": "0x2f",
              "logIndex": "0x18c",
              "removed": false
            }
          ],
          "logsBloom": "0x00020000000000000000400000000000000000000001000000000000202000002200000000000000000000000000000000000000000004000000000000000000000000000000000000000000020000080000000000000000000000000000000000000000000000010000000000000000000000000020000000010000000000000000000000000000000000000000000000000000000000000000004000000000000000000000000040000000000000000000000000000000000000000000000000000000000000000200000000000000000000002000000000000000000000000000000000000200000000000000000000000000000000000000000000000000",
          "type": "0x2",
          "transactionHash": "0xa80bc61388efdf2172a1f2996764798319eab1cf6336aabc366d26e995b4d3dd",
          "transactionIndex": "0x2f",
          "blockHash": "0x0000000000000000000000000000000000000000000000000000000000000000",
          "blockNumber": "0x28a5029",
          "gasUsed": "0x6542f",
          "effectiveGasPrice": "0x6566fb",
          "blobGasUsed": "0x269e6",
          "from": "0xace07c3c1d3b556d42633211f0da71dc6f6d1c42",
          "to": "0xba5ed099633d3b313e4d5f7bdc1305d3c28ba5ed",
          "contractAddress": null,
          "daFootprintGasScalar": "0x8b",
          "l1BaseFeeScalar": "0x8dd",
          "l1BlobBaseFee": "0x6d3111",
          "l1BlobBaseFeeScalar": "0x101c12",
          "l1Fee": "0x4a06e48c",
          "l1GasPrice": "0x7fca32d",
          "l1GasUsed": "0x4728"
        }
      ],
      "libraries": [],
      "pending": [],
      "returns": {},
      "timestamp": 1772027161023,
      "chain": 8453,
      "commit": "a4390e7"
    },
    {
      "transactions": [
        {
          "hash": "0x6aceb9b087abd9b08b758afc52446cc4dd9ccd6cbe7a63cfd18055f26a308a0b",
          "transactionType": "CALL",
          "contractName": null,
          "contractAddress": "0xba5ed099633d3b313e4d5f7bdc1305d3c28ba5ed",
          "function": "deployCreate3(bytes32,bytes)",
          "arguments": [
            "0xace07c3c1d3b556d42633211f0da71dc6f6d1c420065b5aba6af9a632be120cb",
            "0x60a034606e57601f61063e38819003918201601f19168301916001600160401b03831184841017607257808492602094604052833981010312606e57516001600160a01b03811690819003606e576080526040516105b790816100878239608051818181607301526102fc0152f35b5f80fd5b634e487b7160e01b5f52604160045260245ffdfe6080806040526004361015610012575f80fd5b5f3560e01c908163153ed33b146103f15750806327a98b92146102c257806369901858146101455780639e31738314610105578063b21d03b6146100a65763fbaef75e1461005e575f80fd5b346100a2575f3660031901126100a2576040517f00000000000000000000000000000000000000000000000000000000000000006001600160a01b03168152602090f35b5f80fd5b346100a25760403660031901126100a2576100bf61042a565b6100c7610440565b9060018060a01b03165f525f60205260405f209060018060a01b03165f526020526040805f2060ff6001825492015416825191825215156020820152f35b346100a25760603660031901126100a25761011e61042a565b610126610440565b604435906001600160a01b03821682036100a25761014392610456565b005b60603660031901126100a25761015961042a565b610161610440565b6001600160a01b03818116929081169160443591848410919082156102bc5781905b60018060a01b03165f525f60205260405f209060018060a01b03165f5260205260405f20918254155f1461029f576101ca90600184019060ff801983541691151516179055565b846102375750813403610228575b80549082820180921161021457556040519081527f606a2f12765315179d29655723ac209c5abb6ea2f0c648f179d4f3bfd20e83ed60203392a4005b634e487b7160e01b5f52601160045260245ffd5b63090ac0d760e21b5f5260045ffd5b34610228576040519083606052306040523360601b602c526323b872dd60601b600c5260205f6064601c82855af1908160015f51141615610281575b50505f6060526040526101d8565b3b153d171015610292578580610273565b637939f4245f526004601cfd5b600183015460ff161515146101ca576250585160e41b5f5260045ffd5b81610183565b346100a25760403660031901126100a2576102db61042a565b60243580151581036100a257604051638da5cb5b60e01b81526020816004817f00000000000000000000000000000000000000000000000000000000000000006001600160a01b03165afa9081156103e6575f9161037b575b506001600160a01b0316330361036c576101439160018060a01b03165f52600160205260405f209060ff801983541691151516179055565b630cb1a3fb60e41b5f5260045ffd5b905060203d6020116103df575b601f8101601f191682016001600160401b038111838210176103cb576020918391604052810103126100a257516001600160a01b03811681036100a25783610334565b634e487b7160e01b5f52604160045260245ffd5b503d610388565b6040513d5f823e3d90fd5b346100a25760203660031901126100a2576020906001600160a01b0361041561042a565b165f526001825260ff60405f20541615158152f35b600435906001600160a01b03821682036100a257565b602435906001600160a01b03821682036100a257565b919091335f52600160205260ff60405f2054161561059b576001600160a01b038181165f9081526020818152604080832093871683529290522080549190821561059457805f60019255019360ff8554165f1461058d5780945b6001600160a01b038616958661053657505f38818087895af1156105295760ff905b5416156105215750905b604080516001600160a01b0394851681526020810192909252919092169133917f55a6bb5f8b10d2919d59ad3247217d9110cd5d75b60dfb779f3616ff452962cc91a4565b9050906104dc565b63b12d13eb5f526004601cfd5b856014528460345263a9059cbb60601b5f5260205f6044601082855af1908160015f5114161561056f575b505060ff905f6034526104d2565b3b153d171015610580575f80610561565b6390b8ec185f526004601cfd5b81946104b0565b5050505050565b632aad004360e11b5f5260045ffdfea164736f6c634300081a000a0000000000000000000000003411306ce66c9469bff1535ba955503c4bde1c6e"
          ],
          "transaction": {
            "from": "0xace07c3c1d3b556d42633211f0da71dc6f6d1c42",
            "to": "0xba5ed099633d3b313e4d5f7bdc1305d3c28ba5ed",
            "gas": "0x8bddf",
            "value": "0x0",
            "input": "0x9c36a286ace07c3c1d3b556d42633211f0da71dc6f6d1c420065b5aba6af9a632be120cb0000000000000000000000000000000000000000000000000000000000000040000000000000000000000000000000000000000000000000000000000000065e60a034606e57601f61063e38819003918201601f19168301916001600160401b03831184841017607257808492602094604052833981010312606e57516001600160a01b03811690819003606e576080526040516105b790816100878239608051818181607301526102fc0152f35b5f80fd5b634e487b7160e01b5f52604160045260245ffdfe6080806040526004361015610012575f80fd5b5f3560e01c908163153ed33b146103f15750806327a98b92146102c257806369901858146101455780639e31738314610105578063b21d03b6146100a65763fbaef75e1461005e575f80fd5b346100a2575f3660031901126100a2576040517f00000000000000000000000000000000000000000000000000000000000000006001600160a01b03168152602090f35b5f80fd5b346100a25760403660031901126100a2576100bf61042a565b6100c7610440565b9060018060a01b03165f525f60205260405f209060018060a01b03165f526020526040805f2060ff6001825492015416825191825215156020820152f35b346100a25760603660031901126100a25761011e61042a565b610126610440565b604435906001600160a01b03821682036100a25761014392610456565b005b60603660031901126100a25761015961042a565b610161610440565b6001600160a01b03818116929081169160443591848410919082156102bc5781905b60018060a01b03165f525f60205260405f209060018060a01b03165f5260205260405f20918254155f1461029f576101ca90600184019060ff801983541691151516179055565b846102375750813403610228575b80549082820180921161021457556040519081527f606a2f12765315179d29655723ac209c5abb6ea2f0c648f179d4f3bfd20e83ed60203392a4005b634e487b7160e01b5f52601160045260245ffd5b63090ac0d760e21b5f5260045ffd5b34610228576040519083606052306040523360601b602c526323b872dd60601b600c5260205f6064601c82855af1908160015f51141615610281575b50505f6060526040526101d8565b3b153d171015610292578580610273565b637939f4245f526004601cfd5b600183015460ff161515146101ca576250585160e41b5f5260045ffd5b81610183565b346100a25760403660031901126100a2576102db61042a565b60243580151581036100a257604051638da5cb5b60e01b81526020816004817f00000000000000000000000000000000000000000000000000000000000000006001600160a01b03165afa9081156103e6575f9161037b575b506001600160a01b0316330361036c576101439160018060a01b03165f52600160205260405f209060ff801983541691151516179055565b630cb1a3fb60e41b5f5260045ffd5b905060203d6020116103df575b601f8101601f191682016001600160401b038111838210176103cb576020918391604052810103126100a257516001600160a01b03811681036100a25783610334565b634e487b7160e01b5f52604160045260245ffd5b503d610388565b6040513d5f823e3d90fd5b346100a25760203660031901126100a2576020906001600160a01b0361041561042a565b165f526001825260ff60405f20541615158152f35b600435906001600160a01b03821682036100a257565b602435906001600160a01b03821682036100a257565b919091335f52600160205260ff60405f2054161561059b576001600160a01b038181165f9081526020818152604080832093871683529290522080549190821561059457805f60019255019360ff8554165f1461058d5780945b6001600160a01b038616958661053657505f38818087895af1156105295760ff905b5416156105215750905b604080516001600160a01b0394851681526020810192909252919092169133917f55a6bb5f8b10d2919d59ad3247217d9110cd5d75b60dfb779f3616ff452962cc91a4565b9050906104dc565b63b12d13eb5f526004601cfd5b856014528460345263a9059cbb60601b5f5260205f6044601082855af1908160015f5114161561056f575b505060ff905f6034526104d2565b3b153d171015610580575f80610561565b6390b8ec185f526004601cfd5b81946104b0565b5050505050565b632aad004360e11b5f5260045ffdfea164736f6c634300081a000a0000000000000000000000003411306ce66c9469bff1535ba955503c4bde1c6e0000",
            "nonce": "0x13f",
            "chainId": "0x14a34"
          },
          "additionalContracts": [
            {
              "transactionType": "CREATE2",
              "contractName": null,
              "address": "0xdb4ad25c691b81d9d0502c7a63ec392f0483f485",
              "initCode": "0x67363d3d37363d34f03d5260086018f3"
            },
            {
              "transactionType": "CREATE",
              "contractName": "TopUpDistributor",
              "address": "0x435312320c0330b1999746753551cdfbd83ad814",
              "initCode": "0x60a034606e57601f61063e38819003918201601f19168301916001600160401b03831184841017607257808492602094604052833981010312606e57516001600160a01b03811690819003606e576080526040516105b790816100878239608051818181607301526102fc0152f35b5f80fd5b634e487b7160e01b5f52604160045260245ffdfe6080806040526004361015610012575f80fd5b5f3560e01c908163153ed33b146103f15750806327a98b92146102c257806369901858146101455780639e31738314610105578063b21d03b6146100a65763fbaef75e1461005e575f80fd5b346100a2575f3660031901126100a2576040517f00000000000000000000000000000000000000000000000000000000000000006001600160a01b03168152602090f35b5f80fd5b346100a25760403660031901126100a2576100bf61042a565b6100c7610440565b9060018060a01b03165f525f60205260405f209060018060a01b03165f526020526040805f2060ff6001825492015416825191825215156020820152f35b346100a25760603660031901126100a25761011e61042a565b610126610440565b604435906001600160a01b03821682036100a25761014392610456565b005b60603660031901126100a25761015961042a565b610161610440565b6001600160a01b03818116929081169160443591848410919082156102bc5781905b60018060a01b03165f525f60205260405f209060018060a01b03165f5260205260405f20918254155f1461029f576101ca90600184019060ff801983541691151516179055565b846102375750813403610228575b80549082820180921161021457556040519081527f606a2f12765315179d29655723ac209c5abb6ea2f0c648f179d4f3bfd20e83ed60203392a4005b634e487b7160e01b5f52601160045260245ffd5b63090ac0d760e21b5f5260045ffd5b34610228576040519083606052306040523360601b602c526323b872dd60601b600c5260205f6064601c82855af1908160015f51141615610281575b50505f6060526040526101d8565b3b153d171015610292578580610273565b637939f4245f526004601cfd5b600183015460ff161515146101ca576250585160e41b5f5260045ffd5b81610183565b346100a25760403660031901126100a2576102db61042a565b60243580151581036100a257604051638da5cb5b60e01b81526020816004817f00000000000000000000000000000000000000000000000000000000000000006001600160a01b03165afa9081156103e6575f9161037b575b506001600160a01b0316330361036c576101439160018060a01b03165f52600160205260405f209060ff801983541691151516179055565b630cb1a3fb60e41b5f5260045ffd5b905060203d6020116103df575b601f8101601f191682016001600160401b038111838210176103cb576020918391604052810103126100a257516001600160a01b03811681036100a25783610334565b634e487b7160e01b5f52604160045260245ffd5b503d610388565b6040513d5f823e3d90fd5b346100a25760203660031901126100a2576020906001600160a01b0361041561042a565b165f526001825260ff60405f20541615158152f35b600435906001600160a01b03821682036100a257565b602435906001600160a01b03821682036100a257565b919091335f52600160205260ff60405f2054161561059b576001600160a01b038181165f9081526020818152604080832093871683529290522080549190821561059457805f60019255019360ff8554165f1461058d5780945b6001600160a01b038616958661053657505f38818087895af1156105295760ff905b5416156105215750905b604080516001600160a01b0394851681526020810192909252919092169133917f55a6bb5f8b10d2919d59ad3247217d9110cd5d75b60dfb779f3616ff452962cc91a4565b9050906104dc565b63b12d13eb5f526004601cfd5b856014528460345263a9059cbb60601b5f5260205f6044601082855af1908160015f5114161561056f575b505060ff905f6034526104d2565b3b153d171015610580575f80610561565b6390b8ec185f526004601cfd5b81946104b0565b5050505050565b632aad004360e11b5f5260045ffdfea164736f6c634300081a000a0000000000000000000000003411306ce66c9469bff1535ba955503c4bde1c6e"
            }
          ],
          "isFixedGasLimit": false
        }
      ],
      "receipts": [
        {
          "status": "0x1",
          "cumulativeGasUsed": "0x1d4660",
          "logs": [
            {
              "address": "0xba5ed099633d3b313e4d5f7bdc1305d3c28ba5ed",
              "topics": [
                "0x2feea65dd4e9f9cbd86b74b7734210c59a1b2981b5b137bd0ee3e208200c9067",
                "0x000000000000000000000000db4ad25c691b81d9d0502c7a63ec392f0483f485",
                "0x2147990bd279badf296486f51c0c336349c17f3b9918188b10f0554fb97fe96c"
              ],
              "data": "0x",
              "blockHash": "0x1709ffe524b91c5525a9aa1f9475a49324255a196a38d13f54c26b9ee9b6b6cf",
              "blockNumber": "0x245cf2c",
              "blockTimestamp": "0x699efd38",
              "transactionHash": "0x6aceb9b087abd9b08b758afc52446cc4dd9ccd6cbe7a63cfd18055f26a308a0b",
              "transactionIndex": "0x10",
              "logIndex": "0x10",
              "removed": false
            },
            {
              "address": "0xba5ed099633d3b313e4d5f7bdc1305d3c28ba5ed",
              "topics": [
                "0x4db17dd5e4732fb6da34a148104a592783ca119a1e7bb8829eba6cbadef0b511",
                "0x000000000000000000000000435312320c0330b1999746753551cdfbd83ad814"
              ],
              "data": "0x",
              "blockHash": "0x1709ffe524b91c5525a9aa1f9475a49324255a196a38d13f54c26b9ee9b6b6cf",
              "blockNumber": "0x245cf2c",
              "blockTimestamp": "0x699efd38",
              "transactionHash": "0x6aceb9b087abd9b08b758afc52446cc4dd9ccd6cbe7a63cfd18055f26a308a0b",
              "transactionIndex": "0x10",
              "logIndex": "0x11",
              "removed": false
            }
          ],
          "logsBloom": "0x00020000000000000000400000000000000000000001000000000000202000002200000000000000000000000000000000000000000004000000000000000000000000000000000000000000020000080000000000000000000000000000000000000000000000010000000000000000000000000020000000010000000000000000000000000000000000000000000000000000000000000000004000000000000000000000000040000000000000000000000000000000000000000000000000000000000000000200000000000000000000002000000000000000000000000000000000000200000000000000000000000000000000000000000000000000",
          "type": "0x2",
          "transactionHash": "0x6aceb9b087abd9b08b758afc52446cc4dd9ccd6cbe7a63cfd18055f26a308a0b",
          "transactionIndex": "0x10",
          "blockHash": "0x1709ffe524b91c5525a9aa1f9475a49324255a196a38d13f54c26b9ee9b6b6cf",
          "blockNumber": "0x245cf2c",
          "gasUsed": "0x6542f",
          "effectiveGasPrice": "0x5b8d80",
          "blobGasUsed": "0x26b87",
          "from": "0xace07c3c1d3b556d42633211f0da71dc6f6d1c42",
          "to": "0xba5ed099633d3b313e4d5f7bdc1305d3c28ba5ed",
          "contractAddress": null,
          "daFootprintGasScalar": "0x8b",
          "l1BaseFeeScalar": "0x44d",
          "l1BlobBaseFee": "0x155",
          "l1BlobBaseFeeScalar": "0xa118b",
          "l1Fee": "0x61c77",
          "l1GasPrice": "0x1be1",
          "l1GasUsed": "0x475e"
        }
      ],
      "libraries": [],
      "pending": [],
      "returns": {},
      "timestamp": 1772027161938,
      "chain": 84532,
      "commit": "a4390e7"
    },
    {
      "transactions": [
        {
          "hash": "0xda50497dfa0fe8c07a1c47172ab50e18bd1f62f2b20e234e124a76a906c09dd6",
          "transactionType": "CALL",
          "contractName": null,
          "contractAddress": "0xba5ed099633d3b313e4d5f7bdc1305d3c28ba5ed",
          "function": "deployCreate3(bytes32,bytes)",
          "arguments": [
            "0xace07c3c1d3b556d42633211f0da71dc6f6d1c420065b5aba6af9a632be120cb",
            "0x60a034606e57601f61063e38819003918201601f19168301916001600160401b03831184841017607257808492602094604052833981010312606e57516001600160a01b03811690819003606e576080526040516105b790816100878239608051818181607301526102fc0152f35b5f80fd5b634e487b7160e01b5f52604160045260245ffdfe6080806040526004361015610012575f80fd5b5f3560e01c908163153ed33b146103f15750806327a98b92146102c257806369901858146101455780639e31738314610105578063b21d03b6146100a65763fbaef75e1461005e575f80fd5b346100a2575f3660031901126100a2576040517f00000000000000000000000000000000000000000000000000000000000000006001600160a01b03168152602090f35b5f80fd5b346100a25760403660031901126100a2576100bf61042a565b6100c7610440565b9060018060a01b03165f525f60205260405f209060018060a01b03165f526020526040805f2060ff6001825492015416825191825215156020820152f35b346100a25760603660031901126100a25761011e61042a565b610126610440565b604435906001600160a01b03821682036100a25761014392610456565b005b60603660031901126100a25761015961042a565b610161610440565b6001600160a01b03818116929081169160443591848410919082156102bc5781905b60018060a01b03165f525f60205260405f209060018060a01b03165f5260205260405f20918254155f1461029f576101ca90600184019060ff801983541691151516179055565b846102375750813403610228575b80549082820180921161021457556040519081527f606a2f12765315179d29655723ac209c5abb6ea2f0c648f179d4f3bfd20e83ed60203392a4005b634e487b7160e01b5f52601160045260245ffd5b63090ac0d760e21b5f5260045ffd5b34610228576040519083606052306040523360601b602c526323b872dd60601b600c5260205f6064601c82855af1908160015f51141615610281575b50505f6060526040526101d8565b3b153d171015610292578580610273565b637939f4245f526004601cfd5b600183015460ff161515146101ca576250585160e41b5f5260045ffd5b81610183565b346100a25760403660031901126100a2576102db61042a565b60243580151581036100a257604051638da5cb5b60e01b81526020816004817f00000000000000000000000000000000000000000000000000000000000000006001600160a01b03165afa9081156103e6575f9161037b575b506001600160a01b0316330361036c576101439160018060a01b03165f52600160205260405f209060ff801983541691151516179055565b630cb1a3fb60e41b5f5260045ffd5b905060203d6020116103df575b601f8101601f191682016001600160401b038111838210176103cb576020918391604052810103126100a257516001600160a01b03811681036100a25783610334565b634e487b7160e01b5f52604160045260245ffd5b503d610388565b6040513d5f823e3d90fd5b346100a25760203660031901126100a2576020906001600160a01b0361041561042a565b165f526001825260ff60405f20541615158152f35b600435906001600160a01b03821682036100a257565b602435906001600160a01b03821682036100a257565b919091335f52600160205260ff60405f2054161561059b576001600160a01b038181165f9081526020818152604080832093871683529290522080549190821561059457805f60019255019360ff8554165f1461058d5780945b6001600160a01b038616958661053657505f38818087895af1156105295760ff905b5416156105215750905b604080516001600160a01b0394851681526020810192909252919092169133917f55a6bb5f8b10d2919d59ad3247217d9110cd5d75b60dfb779f3616ff452962cc91a4565b9050906104dc565b63b12d13eb5f526004601cfd5b856014528460345263a9059cbb60601b5f5260205f6044601082855af1908160015f5114161561056f575b505060ff905f6034526104d2565b3b153d171015610580575f80610561565b6390b8ec185f526004601cfd5b81946104b0565b5050505050565b632aad004360e11b5f5260045ffdfea164736f6c634300081a000a000000000000000000000000660eaaedebc968f8f3694354fa8ec0b4c5ba8d12"
          ],
          "transaction": {
            "from": "0xace07c3c1d3b556d42633211f0da71dc6f6d1c42",
            "to": "0xba5ed099633d3b313e4d5f7bdc1305d3c28ba5ed",
            "gas": "0x86789",
            "value": "0x0",
            "input": "0x9c36a286ace07c3c1d3b556d42633211f0da71dc6f6d1c420065b5aba6af9a632be120cb0000000000000000000000000000000000000000000000000000000000000040000000000000000000000000000000000000000000000000000000000000065e60a034606e57601f61063e38819003918201601f19168301916001600160401b03831184841017607257808492602094604052833981010312606e57516001600160a01b03811690819003606e576080526040516105b790816100878239608051818181607301526102fc0152f35b5f80fd5b634e487b7160e01b5f52604160045260245ffdfe6080806040526004361015610012575f80fd5b5f3560e01c908163153ed33b146103f15750806327a98b92146102c257806369901858146101455780639e31738314610105578063b21d03b6146100a65763fbaef75e1461005e575f80fd5b346100a2575f3660031901126100a2576040517f00000000000000000000000000000000000000000000000000000000000000006001600160a01b03168152602090f35b5f80fd5b346100a25760403660031901126100a2576100bf61042a565b6100c7610440565b9060018060a01b03165f525f60205260405f209060018060a01b03165f526020526040805f2060ff6001825492015416825191825215156020820152f35b346100a25760603660031901126100a25761011e61042a565b610126610440565b604435906001600160a01b03821682036100a25761014392610456565b005b60603660031901126100a25761015961042a565b610161610440565b6001600160a01b03818116929081169160443591848410919082156102bc5781905b60018060a01b03165f525f60205260405f209060018060a01b03165f5260205260405f20918254155f1461029f576101ca90600184019060ff801983541691151516179055565b846102375750813403610228575b80549082820180921161021457556040519081527f606a2f12765315179d29655723ac209c5abb6ea2f0c648f179d4f3bfd20e83ed60203392a4005b634e487b7160e01b5f52601160045260245ffd5b63090ac0d760e21b5f5260045ffd5b34610228576040519083606052306040523360601b602c526323b872dd60601b600c5260205f6064601c82855af1908160015f51141615610281575b50505f6060526040526101d8565b3b153d171015610292578580610273565b637939f4245f526004601cfd5b600183015460ff161515146101ca576250585160e41b5f5260045ffd5b81610183565b346100a25760403660031901126100a2576102db61042a565b60243580151581036100a257604051638da5cb5b60e01b81526020816004817f00000000000000000000000000000000000000000000000000000000000000006001600160a01b03165afa9081156103e6575f9161037b575b506001600160a01b0316330361036c576101439160018060a01b03165f52600160205260405f209060ff801983541691151516179055565b630cb1a3fb60e41b5f5260045ffd5b905060203d6020116103df575b601f8101601f191682016001600160401b038111838210176103cb576020918391604052810103126100a257516001600160a01b03811681036100a25783610334565b634e487b7160e01b5f52604160045260245ffd5b503d610388565b6040513d5f823e3d90fd5b346100a25760203660031901126100a2576020906001600160a01b0361041561042a565b165f526001825260ff60405f20541615158152f35b600435906001600160a01b03821682036100a257565b602435906001600160a01b03821682036100a257565b919091335f52600160205260ff60405f2054161561059b576001600160a01b038181165f9081526020818152604080832093871683529290522080549190821561059457805f60019255019360ff8554165f1461058d5780945b6001600160a01b038616958661053657505f38818087895af1156105295760ff905b5416156105215750905b604080516001600160a01b0394851681526020810192909252919092169133917f55a6bb5f8b10d2919d59ad3247217d9110cd5d75b60dfb779f3616ff452962cc91a4565b9050906104dc565b63b12d13eb5f526004601cfd5b856014528460345263a9059cbb60601b5f5260205f6044601082855af1908160015f5114161561056f575b505060ff905f6034526104d2565b3b153d171015610580575f80610561565b6390b8ec185f526004601cfd5b81946104b0565b5050505050565b632aad004360e11b5f5260045ffdfea164736f6c634300081a000a000000000000000000000000660eaaedebc968f8f3694354fa8ec0b4c5ba8d120000",
            "nonce": "0x22",
            "chainId": "0x8f"
          },
          "additionalContracts": [
            {
              "transactionType": "CREATE2",
              "contractName": null,
              "address": "0xdb4ad25c691b81d9d0502c7a63ec392f0483f485",
              "initCode": "0x67363d3d37363d34f03d5260086018f3"
            },
            {
              "transactionType": "CREATE",
              "contractName": "TopUpDistributor",
              "address": "0x435312320c0330b1999746753551cdfbd83ad814",
              "initCode": "0x60a034606e57601f61063e38819003918201601f19168301916001600160401b03831184841017607257808492602094604052833981010312606e57516001600160a01b03811690819003606e576080526040516105b790816100878239608051818181607301526102fc0152f35b5f80fd5b634e487b7160e01b5f52604160045260245ffdfe6080806040526004361015610012575f80fd5b5f3560e01c908163153ed33b146103f15750806327a98b92146102c257806369901858146101455780639e31738314610105578063b21d03b6146100a65763fbaef75e1461005e575f80fd5b346100a2575f3660031901126100a2576040517f00000000000000000000000000000000000000000000000000000000000000006001600160a01b03168152602090f35b5f80fd5b346100a25760403660031901126100a2576100bf61042a565b6100c7610440565b9060018060a01b03165f525f60205260405f209060018060a01b03165f526020526040805f2060ff6001825492015416825191825215156020820152f35b346100a25760603660031901126100a25761011e61042a565b610126610440565b604435906001600160a01b03821682036100a25761014392610456565b005b60603660031901126100a25761015961042a565b610161610440565b6001600160a01b03818116929081169160443591848410919082156102bc5781905b60018060a01b03165f525f60205260405f209060018060a01b03165f5260205260405f20918254155f1461029f576101ca90600184019060ff801983541691151516179055565b846102375750813403610228575b80549082820180921161021457556040519081527f606a2f12765315179d29655723ac209c5abb6ea2f0c648f179d4f3bfd20e83ed60203392a4005b634e487b7160e01b5f52601160045260245ffd5b63090ac0d760e21b5f5260045ffd5b34610228576040519083606052306040523360601b602c526323b872dd60601b600c5260205f6064601c82855af1908160015f51141615610281575b50505f6060526040526101d8565b3b153d171015610292578580610273565b637939f4245f526004601cfd5b600183015460ff161515146101ca576250585160e41b5f5260045ffd5b81610183565b346100a25760403660031901126100a2576102db61042a565b60243580151581036100a257604051638da5cb5b60e01b81526020816004817f00000000000000000000000000000000000000000000000000000000000000006001600160a01b03165afa9081156103e6575f9161037b575b506001600160a01b0316330361036c576101439160018060a01b03165f52600160205260405f209060ff801983541691151516179055565b630cb1a3fb60e41b5f5260045ffd5b905060203d6020116103df575b601f8101601f191682016001600160401b038111838210176103cb576020918391604052810103126100a257516001600160a01b03811681036100a25783610334565b634e487b7160e01b5f52604160045260245ffd5b503d610388565b6040513d5f823e3d90fd5b346100a25760203660031901126100a2576020906001600160a01b0361041561042a565b165f526001825260ff60405f20541615158152f35b600435906001600160a01b03821682036100a257565b602435906001600160a01b03821682036100a257565b919091335f52600160205260ff60405f2054161561059b576001600160a01b038181165f9081526020818152604080832093871683529290522080549190821561059457805f60019255019360ff8554165f1461058d5780945b6001600160a01b038616958661053657505f38818087895af1156105295760ff905b5416156105215750905b604080516001600160a01b0394851681526020810192909252919092169133917f55a6bb5f8b10d2919d59ad3247217d9110cd5d75b60dfb779f3616ff452962cc91a4565b9050906104dc565b63b12d13eb5f526004601cfd5b856014528460345263a9059cbb60601b5f5260205f6044601082855af1908160015f5114161561056f575b505060ff905f6034526104d2565b3b153d171015610580575f80610561565b6390b8ec185f526004601cfd5b81946104b0565b5050505050565b632aad004360e11b5f5260045ffdfea164736f6c634300081a000a000000000000000000000000660eaaedebc968f8f3694354fa8ec0b4c5ba8d12"
            }
          ],
          "isFixedGasLimit": false
        }
      ],
      "receipts": [
        {
          "status": "0x1",
          "cumulativeGasUsed": "0x17b829",
          "logs": [
            {
              "address": "0xba5ed099633d3b313e4d5f7bdc1305d3c28ba5ed",
              "topics": [
                "0x2feea65dd4e9f9cbd86b74b7734210c59a1b2981b5b137bd0ee3e208200c9067",
                "0x000000000000000000000000db4ad25c691b81d9d0502c7a63ec392f0483f485",
                "0x2147990bd279badf296486f51c0c336349c17f3b9918188b10f0554fb97fe96c"
              ],
              "data": "0x",
              "blockHash": "0x991bd1348694753d9b1c68dfa9e6cb64c47a3252562f347ff045f71ee8563e2e",
              "blockNumber": "0x37096e5",
              "blockTimestamp": "0x699efd3a",
              "transactionHash": "0xda50497dfa0fe8c07a1c47172ab50e18bd1f62f2b20e234e124a76a906c09dd6",
              "transactionIndex": "0x2",
              "logIndex": "0x10",
              "removed": false
            },
            {
              "address": "0xba5ed099633d3b313e4d5f7bdc1305d3c28ba5ed",
              "topics": [
                "0x4db17dd5e4732fb6da34a148104a592783ca119a1e7bb8829eba6cbadef0b511",
                "0x000000000000000000000000435312320c0330b1999746753551cdfbd83ad814"
              ],
              "data": "0x",
              "blockHash": "0x991bd1348694753d9b1c68dfa9e6cb64c47a3252562f347ff045f71ee8563e2e",
              "blockNumber": "0x37096e5",
              "blockTimestamp": "0x699efd3a",
              "transactionHash": "0xda50497dfa0fe8c07a1c47172ab50e18bd1f62f2b20e234e124a76a906c09dd6",
              "transactionIndex": "0x2",
              "logIndex": "0x11",
              "removed": false
            }
          ],
          "logsBloom": "0x00020000000000000000400000000000000000000001000000000000202000002200000000000000000000000000000000000000000004000000000000000000000000000000000000000000020000080000000000000000000000000000000000000000000000010000000000000000000000000020000000010000000000000000000000000000000000000000000000000000000000000000004000000000000000000000000040000000000000000000000000000000000000000000000000000000000000000200000000000000000000002000000000000000000000000000000000000200000000000000000000000000000000000000000000000000",
          "type": "0x2",
          "transactionHash": "0xda50497dfa0fe8c07a1c47172ab50e18bd1f62f2b20e234e124a76a906c09dd6",
          "transactionIndex": "0x2",
          "blockHash": "0x991bd1348694753d9b1c68dfa9e6cb64c47a3252562f347ff045f71ee8563e2e",
          "blockNumber": "0x37096e5",
          "gasUsed": "0x86789",
          "effectiveGasPrice": "0x18904a3f01",
          "from": "0xace07c3c1d3b556d42633211f0da71dc6f6d1c42",
          "to": "0xba5ed099633d3b313e4d5f7bdc1305d3c28ba5ed",
          "contractAddress": null
        }
      ],
      "libraries": [],
      "pending": [],
      "returns": {},
      "timestamp": 1772027163027,
      "chain": 143,
      "commit": "a4390e7"
    }
  ],
  "timestamp": 1772027363119
}