{
  "deployments": [
    {
      "transactions": [
        {
          "hash": "0x2425c8b9f7c4fe9cea80e2cc09d424c5b3c92f6af9407bfb1d3f872923c47652",
          "transactionType": "CALL",
          "contractName": null,
          "contractAddress": "0xba5ed099633d3b313e4d5f7bdc1305d3c28ba5ed",
          "function": "deployCreate3(bytes32,bytes)",
          "arguments": [
            "0xace07c3c1d3b556d42633211f0da71dc6f6d1c4200000000deaddeaddeaddead",
            "0x60a034607457601f6102a638819003918201601f19168301916001600160401b03831184841017607857808492602094604052833981010312607457516001600160a01b03811690819003607457608052604051610219908161008d8239608051818181604f0152818160e101526101770152f35b5f80fd5b634e487b7160e01b5f52604160045260245ffdfe60806040526004361015610011575f80fd5b5f3560e01c80634411760a1461013c578063cf7a1d77146100825763f78a8a3e1461003a575f80fd5b3461007e575f36600319011261007e576040517f00000000000000000000000000000000000000000000000000000000000000006001600160a01b03168152602090f35b5f80fd5b3461007e57606036600319011261007e5761009b6101f6565b506100a46101b4565b506044356001600160401b03811161007e573660238201121561007e5760048101356001600160401b03811161007e573691016024011161007e577f00000000000000000000000000000000000000000000000000000000000000006001600160a01b0316330361012d57602060405173deaddeaddeaddeaddeaddeaddeaddeaddeaddead8152f35b633617fe5360e11b5f5260045ffd5b608036600319011261007e576004356001600160a01b0381160361007e576101626101b4565b5061016b6101ca565b506101746101e0565b507f00000000000000000000000000000000000000000000000000000000000000006001600160a01b0316330361012d5763051a2a5560e51b5f5260045ffd5b602435906001600160a01b038216820361007e57565b604435906001600160a01b038216820361007e57565b606435906001600160a01b038216820361007e57565b600435906001600160a01b038216820361007e5756fea164736f6c634300081a000a000000000000000000000000de3599a2ec440b296373a983c85c365da55d9dfa"
          ],
          "transaction": {
            "from": "0xace07c3c1d3b556d42633211f0da71dc6f6d1c42",
            "to": "0xba5ed099633d3b313e4d5f7bdc1305d3c28ba5ed",
            "gas": "0x4bb76",
            "value": "0x0",
            "input": "0x9c36a286ace07c3c1d3b556d42633211f0da71dc6f6d1c4200000000deaddeaddeaddead000000000000000000000000000000000000000000000000000000000000004000000000000000000000000000000000000000000000000000000000000002c660a034607457601f6102a638819003918201601f19168301916001600160401b03831184841017607857808492602094604052833981010312607457516001600160a01b03811690819003607457608052604051610219908161008d8239608051818181604f0152818160e101526101770152f35b5f80fd5b634e487b7160e01b5f52604160045260245ffdfe60806040526004361015610011575f80fd5b5f3560e01c80634411760a1461013c578063cf7a1d77146100825763f78a8a3e1461003a575f80fd5b3461007e575f36600319011261007e576040517f00000000000000000000000000000000000000000000000000000000000000006001600160a01b03168152602090f35b5f80fd5b3461007e57606036600319011261007e5761009b6101f6565b506100a46101b4565b506044356001600160401b03811161007e573660238201121561007e5760048101356001600160401b03811161007e573691016024011161007e577f00000000000000000000000000000000000000000000000000000000000000006001600160a01b0316330361012d57602060405173deaddeaddeaddeaddeaddeaddeaddeaddeaddead8152f35b633617fe5360e11b5f5260045ffd5b608036600319011261007e576004356001600160a01b0381160361007e576101626101b4565b5061016b6101ca565b506101746101e0565b507f00000000000000000000000000000000000000000000000000000000000000006001600160a01b0316330361012d5763051a2a5560e51b5f5260045ffd5b602435906001600160a01b038216820361007e57565b604435906001600160a01b038216820361007e57565b606435906001600160a01b038216820361007e57565b600435906001600160a01b038216820361007e5756fea164736f6c634300081a000a000000000000000000000000de3599a2ec440b296373a983c85c365da55d9dfa0000000000000000000000000000000000000000000000000000",
            "nonce": "0x5",
            "chainId": "0x1"
          },
          "additionalContracts": [
            {
              "transactionType": "CREATE2",
              "contractName": null,
              "address": "0xa2f8830c13eabd0d099b5b24ad865825b1542885",
              "initCode": "0x67363d3d37363d34f03d5260086018f3"
            },
            {
              "transactionType": "CREATE",
              "contractName": "NoOpMigrator",
              "address": "0x233a71a7bb928b1357a1ebf454298320989ca5b5",
              "initCode": "0x60a034607457601f6102a638819003918201601f19168301916001600160401b03831184841017607857808492602094604052833981010312607457516001600160a01b03811690819003607457608052604051610219908161008d8239608051818181604f0152818160e101526101770152f35b5f80fd5b634e487b7160e01b5f52604160045260245ffdfe60806040526004361015610011575f80fd5b5f3560e01c80634411760a1461013c578063cf7a1d77146100825763f78a8a3e1461003a575f80fd5b3461007e575f36600319011261007e576040517f00000000000000000000000000000000000000000000000000000000000000006001600160a01b03168152602090f35b5f80fd5b3461007e57606036600319011261007e5761009b6101f6565b506100a46101b4565b506044356001600160401b03811161007e573660238201121561007e5760048101356001600160401b03811161007e573691016024011161007e577f00000000000000000000000000000000000000000000000000000000000000006001600160a01b0316330361012d57602060405173deaddeaddeaddeaddeaddeaddeaddeaddeaddead8152f35b633617fe5360e11b5f5260045ffd5b608036600319011261007e576004356001600160a01b0381160361007e576101626101b4565b5061016b6101ca565b506101746101e0565b507f00000000000000000000000000000000000000000000000000000000000000006001600160a01b0316330361012d5763051a2a5560e51b5f5260045ffd5b602435906001600160a01b038216820361007e57565b604435906001600160a01b038216820361007e57565b606435906001600160a01b038216820361007e57565b600435906001600160a01b038216820361007e5756fea164736f6c634300081a000a000000000000000000000000de3599a2ec440b296373a983c85c365da55d9dfa"
            }
          ],
          "isFixedGasLimit": false
        }
      ],
      "receipts": [
        {
          "status": "0x1",
          "cumulativeGasUsed": "0x1be897c",
          "logs": [
            {
              "address": "0xba5ed099633d3b313e4d5f7bdc1305d3c28ba5ed",
              "topics": [
                "0x2feea65dd4e9f9cbd86b74b7734210c59a1b2981b5b137bd0ee3e208200c9067",
                "0x000000000000000000000000a2f8830c13eabd0d099b5b24ad865825b1542885",
                "0x19c9b7bca9fd6417767dba955fad50c823481521b71d9323205bf7c027cebdda"
              ],
              "data": "0x",
              "blockHash": "0xf202fe2ff6da242f7a40d21fa3823b20fa6979011082db4738b94bf5f8875a13",
              "blockNumber": "0x1734779",
              "blockTimestamp": "0x6979c8ef",
              "transactionHash": "0x2425c8b9f7c4fe9cea80e2cc09d424c5b3c92f6af9407bfb1d3f872923c47652",
              "transactionIndex": "0x1a0",
              "logIndex": "0x42f",
              "removed": false
            },
            {
              "address": "0xba5ed099633d3b313e4d5f7bdc1305d3c28ba5ed",
              "topics": [
                "0x4db17dd5e4732fb6da34a148104a592783ca119a1e7bb8829eba6cbadef0b511",
                "0x000000000000000000000000233a71a7bb928b1357a1ebf454298320989ca5b5"
              ],
              "data": "0x",
              "blockHash": "0xf202fe2ff6da242f7a40d21fa3823b20fa6979011082db4738b94bf5f8875a13",
              "blockNumber": "0x1734779",
              "blockTimestamp": "0x6979c8ef",
              "transactionHash": "0x2425c8b9f7c4fe9cea80e2cc09d424c5b3c92f6af9407bfb1d3f872923c47652",
              "transactionIndex": "0x1a0",
              "logIndex": "0x430",
              "removed": false
            }
          ],
          "logsBloom": "0x00020000000000000000000000000000000000000000000000000002200000000000000000000000000000000010000000000000000004000000000000000000000000000000080000000000020000000000000000000000000000000000000000000000000000000000000000000000000000000020000000000000000000000000000000000000000000000000000000000000000000001000005000000000000000000000000000000000000000000000000000000000000000000000000000000000000000000200000000000000000000002000000000000000000000000000000000000600000008000000000000001000000000000000001000000000",
          "type": "0x2",
          "transactionHash": "0x2425c8b9f7c4fe9cea80e2cc09d424c5b3c92f6af9407bfb1d3f872923c47652",
          "transactionIndex": "0x1a0",
          "blockHash": "0xf202fe2ff6da242f7a40d21fa3823b20fa6979011082db4738b94bf5f8875a13",
          "blockNumber": "0x1734779",
          "gasUsed": "0x33c5a",
          "effectiveGasPrice": "0x5dc382f",
          "from": "0xace07c3c1d3b556d42633211f0da71dc6f6d1c42",
          "to": "0xba5ed099633d3b313e4d5f7bdc1305d3c28ba5ed",
          "contractAddress": null
        }
      ],
      "libraries": [],
      "pending": [],
      "returns": {},
      "timestamp": 1769588954479,
      "chain": 1,
      "commit": "bc477e4"
    },
    {
      "transactions": [
        {
          "hash": "0x3419a9cdca0cba48ccfcd729fdecf63bd090d0090902a4dcd78472efb6b88314",
          "transactionType": "CALL",
          "contractName": null,
          "contractAddress": "0xba5ed099633d3b313e4d5f7bdc1305d3c28ba5ed",
          "function": "deployCreate3(bytes32,bytes)",
          "arguments": [
            "0xace07c3c1d3b556d42633211f0da71dc6f6d1c4200000000deaddeaddeaddead",
            "0x60a034607457601f6102a638819003918201601f19168301916001600160401b03831184841017607857808492602094604052833981010312607457516001600160a01b03811690819003607457608052604051610219908161008d8239608051818181604f0152818160e101526101770152f35b5f80fd5b634e487b7160e01b5f52604160045260245ffdfe60806040526004361015610011575f80fd5b5f3560e01c80634411760a1461013c578063cf7a1d77146100825763f78a8a3e1461003a575f80fd5b3461007e575f36600319011261007e576040517f00000000000000000000000000000000000000000000000000000000000000006001600160a01b03168152602090f35b5f80fd5b3461007e57606036600319011261007e5761009b6101f6565b506100a46101b4565b506044356001600160401b03811161007e573660238201121561007e5760048101356001600160401b03811161007e573691016024011161007e577f00000000000000000000000000000000000000000000000000000000000000006001600160a01b0316330361012d57602060405173deaddeaddeaddeaddeaddeaddeaddeaddeaddead8152f35b633617fe5360e11b5f5260045ffd5b608036600319011261007e576004356001600160a01b0381160361007e576101626101b4565b5061016b6101ca565b506101746101e0565b507f00000000000000000000000000000000000000000000000000000000000000006001600160a01b0316330361012d5763051a2a5560e51b5f5260045ffd5b602435906001600160a01b038216820361007e57565b604435906001600160a01b038216820361007e57565b606435906001600160a01b038216820361007e57565b600435906001600160a01b038216820361007e5756fea164736f6c634300081a000a000000000000000000000000de3599a2ec440b296373a983c85c365da55d9dfa"
          ],
          "transaction": {
            "from": "0xace07c3c1d3b556d42633211f0da71dc6f6d1c42",
            "to": "0xba5ed099633d3b313e4d5f7bdc1305d3c28ba5ed",
            "gas": "0x4bb76",
            "value": "0x0",
            "input": "0x9c36a286ace07c3c1d3b556d42633211f0da71dc6f6d1c4200000000deaddeaddeaddead000000000000000000000000000000000000000000000000000000000000004000000000000000000000000000000000000000000000000000000000000002c660a034607457601f6102a638819003918201601f19168301916001600160401b03831184841017607857808492602094604052833981010312607457516001600160a01b03811690819003607457608052604051610219908161008d8239608051818181604f0152818160e101526101770152f35b5f80fd5b634e487b7160e01b5f52604160045260245ffdfe60806040526004361015610011575f80fd5b5f3560e01c80634411760a1461013c578063cf7a1d77146100825763f78a8a3e1461003a575f80fd5b3461007e575f36600319011261007e576040517f00000000000000000000000000000000000000000000000000000000000000006001600160a01b03168152602090f35b5f80fd5b3461007e57606036600319011261007e5761009b6101f6565b506100a46101b4565b506044356001600160401b03811161007e573660238201121561007e5760048101356001600160401b03811161007e573691016024011161007e577f00000000000000000000000000000000000000000000000000000000000000006001600160a01b0316330361012d57602060405173deaddeaddeaddeaddeaddeaddeaddeaddeaddead8152f35b633617fe5360e11b5f5260045ffd5b608036600319011261007e576004356001600160a01b0381160361007e576101626101b4565b5061016b6101ca565b506101746101e0565b507f00000000000000000000000000000000000000000000000000000000000000006001600160a01b0316330361012d5763051a2a5560e51b5f5260045ffd5b602435906001600160a01b038216820361007e57565b604435906001600160a01b038216820361007e57565b606435906001600160a01b038216820361007e57565b600435906001600160a01b038216820361007e5756fea164736f6c634300081a000a000000000000000000000000de3599a2ec440b296373a983c85c365da55d9dfa0000000000000000000000000000000000000000000000000000",
            "nonce": "0x8",
            "chainId": "0xaa36a7"
          },
          "additionalContracts": [
            {
              "transactionType": "CREATE2",
              "contractName": null,
              "address": "0xa2f8830c13eabd0d099b5b24ad865825b1542885",
              "initCode": "0x67363d3d37363d34f03d5260086018f3"
            },
            {
              "transactionType": "CREATE",
              "contractName": "NoOpMigrator",
              "address": "0x233a71a7bb928b1357a1ebf454298320989ca5b5",
              "initCode": "0x60a034607457601f6102a638819003918201601f19168301916001600160401b03831184841017607857808492602094604052833981010312607457516001600160a01b03811690819003607457608052604051610219908161008d8239608051818181604f0152818160e101526101770152f35b5f80fd5b634e487b7160e01b5f52604160045260245ffdfe60806040526004361015610011575f80fd5b5f3560e01c80634411760a1461013c578063cf7a1d77146100825763f78a8a3e1461003a575f80fd5b3461007e575f36600319011261007e576040517f00000000000000000000000000000000000000000000000000000000000000006001600160a01b03168152602090f35b5f80fd5b3461007e57606036600319011261007e5761009b6101f6565b506100a46101b4565b506044356001600160401b03811161007e573660238201121561007e5760048101356001600160401b03811161007e573691016024011161007e577f00000000000000000000000000000000000000000000000000000000000000006001600160a01b0316330361012d57602060405173deaddeaddeaddeaddeaddeaddeaddeaddeaddead8152f35b633617fe5360e11b5f5260045ffd5b608036600319011261007e576004356001600160a01b0381160361007e576101626101b4565b5061016b6101ca565b506101746101e0565b507f00000000000000000000000000000000000000000000000000000000000000006001600160a01b0316330361012d5763051a2a5560e51b5f5260045ffd5b602435906001600160a01b038216820361007e57565b604435906001600160a01b038216820361007e57565b606435906001600160a01b038216820361007e57565b600435906001600160a01b038216820361007e5756fea164736f6c634300081a000a000000000000000000000000de3599a2ec440b296373a983c85c365da55d9dfa"
            }
          ],
          "isFixedGasLimit": false
        }
      ],
      "receipts": [
        {
          "status": "0x1",
          "cumulativeGasUsed": "0x63fc75",
          "logs": [
            {
              "address": "0xba5ed099633d3b313e4d5f7bdc1305d3c28ba5ed",
              "topics": [
                "0x2feea65dd4e9f9cbd86b74b7734210c59a1b2981b5b137bd0ee3e208200c9067",
                "0x000000000000000000000000a2f8830c13eabd0d099b5b24ad865825b1542885",
                "0x19c9b7bca9fd6417767dba955fad50c823481521b71d9323205bf7c027cebdda"
              ],
              "data": "0x",
              "blockHash": "0x2fe9930330efbb7e8fee5362cf67c9f95973f3b6fc6fab94a13dae69789c6452",
              "blockNumber": "0x9aba54",
              "blockTimestamp": "0x6979c8fc",
              "transactionHash": "0x3419a9cdca0cba48ccfcd729fdecf63bd090d0090902a4dcd78472efb6b88314",
              "transactionIndex": "0x2c",
              "logIndex": "0x3e",
              "removed": false
            },
            {
              "address": "0xba5ed099633d3b313e4d5f7bdc1305d3c28ba5ed",
              "topics": [
                "0x4db17dd5e4732fb6da34a148104a592783ca119a1e7bb8829eba6cbadef0b511",
                "0x000000000000000000000000233a71a7bb928b1357a1ebf454298320989ca5b5"
              ],
              "data": "0x",
              "blockHash": "0x2fe9930330efbb7e8fee5362cf67c9f95973f3b6fc6fab94a13dae69789c6452",
              "blockNumber": "0x9aba54",
              "blockTimestamp": "0x6979c8fc",
              "transactionHash": "0x3419a9cdca0cba48ccfcd729fdecf63bd090d0090902a4dcd78472efb6b88314",
              "transactionIndex": "0x2c",
              "logIndex": "0x3f",
              "removed": false
            }
          ],
          "logsBloom": "0x00020000000000000000000000000000000000000000000000000002200000000000000000000000000000000010000000000000000004000000000000000000000000000000080000000000020000000000000000000000000000000000000000000000000000000000000000000000000000000020000000000000000000000000000000000000000000000000000000000000000000001000005000000000000000000000000000000000000000000000000000000000000000000000000000000000000000000200000000000000000000002000000000000000000000000000000000000600000008000000000000001000000000000000001000000000",
          "type": "0x2",
          "transactionHash": "0x3419a9cdca0cba48ccfcd729fdecf63bd090d0090902a4dcd78472efb6b88314",
          "transactionIndex": "0x2c",
          "blockHash": "0x2fe9930330efbb7e8fee5362cf67c9f95973f3b6fc6fab94a13dae69789c6452",
          "blockNumber": "0x9aba54",
          "gasUsed": "0x33c5a",
          "effectiveGasPrice": "0x3fbebb5e",
          "from": "0xace07c3c1d3b556d42633211f0da71dc6f6d1c42",
          "to": "0xba5ed099633d3b313e4d5f7bdc1305d3c28ba5ed",
          "contractAddress": null
        }
      ],
      "libraries": [],
      "pending": [],
      "returns": {},
      "timestamp": 1769588955128,
      "chain": 11155111,
      "commit": "bc477e4"
    }
  ],
  "timestamp": 1769589043287
}