{
  "deployments": [
    {
      "transactions": [
        {
          "hash": "0x9c8dfc4378a04fe8cf59d43e88b9dc10cc4b058bbb84af49cb2c6654803bd133",
          "transactionType": "CALL",
          "contractName": null,
          "contractAddress": "0xba5ed099633d3b313e4d5f7bdc1305d3c28ba5ed",
          "function": "deployCreate3(bytes32,bytes)",
          "arguments": [
            "0xace07c3c1d3b556d42633211f0da71dc6f6d1c4200000000deaddeaddeaddead",
            "0x60a034607457601f6102a638819003918201601f19168301916001600160401b03831184841017607857808492602094604052833981010312607457516001600160a01b03811690819003607457608052604051610219908161008d8239608051818181604f0152818160e101526101770152f35b5f80fd5b634e487b7160e01b5f52604160045260245ffdfe60806040526004361015610011575f80fd5b5f3560e01c80634411760a1461013c578063cf7a1d77146100825763f78a8a3e1461003a575f80fd5b3461007e575f36600319011261007e576040517f00000000000000000000000000000000000000000000000000000000000000006001600160a01b03168152602090f35b5f80fd5b3461007e57606036600319011261007e5761009b6101f6565b506100a46101b4565b506044356001600160401b03811161007e573660238201121561007e5760048101356001600160401b03811161007e573691016024011161007e577f00000000000000000000000000000000000000000000000000000000000000006001600160a01b0316330361012d57602060405173deaddeaddeaddeaddeaddeaddeaddeaddeaddead8152f35b633617fe5360e11b5f5260045ffd5b608036600319011261007e576004356001600160a01b0381160361007e576101626101b4565b5061016b6101ca565b506101746101e0565b507f00000000000000000000000000000000000000000000000000000000000000006001600160a01b0316330361012d5763051a2a5560e51b5f5260045ffd5b602435906001600160a01b038216820361007e57565b604435906001600160a01b038216820361007e57565b606435906001600160a01b038216820361007e57565b600435906001600160a01b038216820361007e5756fea164736f6c634300081a000a000000000000000000000000de3599a2ec440b296373a983c85c365da55d9dfa"
          ],
          "transaction": {
            "from": "0xace07c3c1d3b556d42633211f0da71dc6f6d1c42",
            "to": "0xba5ed099633d3b313e4d5f7bdc1305d3c28ba5ed",
            "value": "0x0",
            "input": "0x9c36a286ace07c3c1d3b556d42633211f0da71dc6f6d1c4200000000deaddeaddeaddead000000000000000000000000000000000000000000000000000000000000004000000000000000000000000000000000000000000000000000000000000002c660a034607457601f6102a638819003918201601f19168301916001600160401b03831184841017607857808492602094604052833981010312607457516001600160a01b03811690819003607457608052604051610219908161008d8239608051818181604f0152818160e101526101770152f35b5f80fd5b634e487b7160e01b5f52604160045260245ffdfe60806040526004361015610011575f80fd5b5f3560e01c80634411760a1461013c578063cf7a1d77146100825763f78a8a3e1461003a575f80fd5b3461007e575f36600319011261007e576040517f00000000000000000000000000000000000000000000000000000000000000006001600160a01b03168152602090f35b5f80fd5b3461007e57606036600319011261007e5761009b6101f6565b506100a46101b4565b506044356001600160401b03811161007e573660238201121561007e5760048101356001600160401b03811161007e573691016024011161007e577f00000000000000000000000000000000000000000000000000000000000000006001600160a01b0316330361012d57602060405173deaddeaddeaddeaddeaddeaddeaddeaddeaddead8152f35b633617fe5360e11b5f5260045ffd5b608036600319011261007e576004356001600160a01b0381160361007e576101626101b4565b5061016b6101ca565b506101746101e0565b507f00000000000000000000000000000000000000000000000000000000000000006001600160a01b0316330361012d5763051a2a5560e51b5f5260045ffd5b602435906001600160a01b038216820361007e57565b604435906001600160a01b038216820361007e57565b606435906001600160a01b038216820361007e57565b600435906001600160a01b038216820361007e5756fea164736f6c634300081a000a000000000000000000000000de3599a2ec440b296373a983c85c365da55d9dfa0000000000000000000000000000000000000000000000000000",
            "nonce": "0x3",
            "chainId": "0x10e6"
          },
          "additionalContracts": [],
          "isFixedGasLimit": false
        },
        {
          "hash": "0xec40a52fc1544d8fc1b0d876c432ca446c3d6089d5f06b7c01d515287671153b",
          "transactionType": "CALL",
          "contractName": "StdConfig",
          "contractAddress": "0xc7f2cf4845c6db0e1a1e91ed41bcd0fcc1b0e141",
          "function": "set(string,address)",
          "arguments": [
            "no_op_migrator",
            "0x233A71A7bB928b1357A1Ebf454298320989Ca5B5"
          ],
          "transaction": {
            "from": "0xace07c3c1d3b556d42633211f0da71dc6f6d1c42",
            "to": "0xc7f2cf4845c6db0e1a1e91ed41bcd0fcc1b0e141",
            "value": "0x0",
            "input": "0xa815ff150000000000000000000000000000000000000000000000000000000000000040000000000000000000000000233a71a7bb928b1357a1ebf454298320989ca5b5000000000000000000000000000000000000000000000000000000000000000e6e6f5f6f705f6d69677261746f72000000000000000000000000000000000000",
            "nonce": "0x4",
            "chainId": "0x10e6"
          },
          "additionalContracts": [],
          "isFixedGasLimit": false
        }
      ],
      "receipts": [
        {
          "status": "0x1",
          "cumulativeGasUsed": "0xa08daa",
          "logs": [
            {
              "address": "0xba5ed099633d3b313e4d5f7bdc1305d3c28ba5ed",
              "topics": [
                "0x2feea65dd4e9f9cbd86b74b7734210c59a1b2981b5b137bd0ee3e208200c9067",
                "0x000000000000000000000000a2f8830c13eabd0d099b5b24ad865825b1542885",
                "0x19c9b7bca9fd6417767dba955fad50c823481521b71d9323205bf7c027cebdda"
              ],
              "data": "0x",
              "blockHash": "0x86c84e7efa5d4b5ea74e8c2b8748a262f3e8f13e0c0b3083724c019036d06edc",
              "blockNumber": "0x542bde",
              "blockTimestamp": "0x696651b1",
              "transactionHash": "0x9c8dfc4378a04fe8cf59d43e88b9dc10cc4b058bbb84af49cb2c6654803bd133",
              "transactionIndex": "0xf",
              "logIndex": "0x3f",
              "removed": false
            },
            {
              "address": "0xba5ed099633d3b313e4d5f7bdc1305d3c28ba5ed",
              "topics": [
                "0x4db17dd5e4732fb6da34a148104a592783ca119a1e7bb8829eba6cbadef0b511",
                "0x000000000000000000000000233a71a7bb928b1357a1ebf454298320989ca5b5"
              ],
              "data": "0x",
              "blockHash": "0x86c84e7efa5d4b5ea74e8c2b8748a262f3e8f13e0c0b3083724c019036d06edc",
              "blockNumber": "0x542bde",
              "blockTimestamp": "0x696651b1",
              "transactionHash": "0x9c8dfc4378a04fe8cf59d43e88b9dc10cc4b058bbb84af49cb2c6654803bd133",
              "transactionIndex": "0xf",
              "logIndex": "0x40",
              "removed": false
            }
          ],
          "logsBloom": "0x00020000000000000000000000000000000000000000000000000002200000000000000000000000000000000010000000000000000004000000000000000000000000000000080000000000020000000000000000000000000000000000000000000000000000000000000000000000000000000020000000000000000000000000000000000000000000000000000000000000000000001000005000000000000000000000000000000000000000000000000000000000000000000000000000000000000000000200000000000000000000002000000000000000000000000000000000000600000008000000000000001000000000000000001000000000",
          "type": "0x2",
          "transactionHash": "0x9c8dfc4378a04fe8cf59d43e88b9dc10cc4b058bbb84af49cb2c6654803bd133",
          "transactionIndex": "0xf",
          "blockHash": "0x86c84e7efa5d4b5ea74e8c2b8748a262f3e8f13e0c0b3083724c019036d06edc",
          "blockNumber": "0x542bde",
          "gasUsed": "0x58e9e8",
          "effectiveGasPrice": "0xf4241",
          "from": "0xace07c3c1d3b556d42633211f0da71dc6f6d1c42",
          "to": "0xba5ed099633d3b313e4d5f7bdc1305d3c28ba5ed",
          "contractAddress": null,
          "l1BaseFeeScalar": "0x558",
          "l1BlobBaseFee": "0x3ea98478c3db05",
          "l1BlobBaseFeeScalar": "0x0",
          "l1Fee": "0x545550a8",
          "l1GasPrice": "0x7f0b05a",
          "l1GasUsed": "0x1e53"
        },
        {
          "status": "0x1",
          "cumulativeGasUsed": "0x3eb927",
          "logs": [],
          "logsBloom": "0x00000000000000000000000000000000000000000000000000000000000000000000000000000000000000000000000000000000000000000000000000000000000000000000000000000000000000000000000000000000000000000000000000000000000000000000000000000000000000000000000000000000000000000000000000000000000000000000000000000000000000000000000000000000000000000000000000000000000000000000000000000000000000000000000000000000000000000000000000000000000000000000000000000000000000000000000000000000000000000000000000000000000000000000000000000000",
          "type": "0x2",
          "transactionHash": "0xec40a52fc1544d8fc1b0d876c432ca446c3d6089d5f06b7c01d515287671153b",
          "transactionIndex": "0xd",
          "blockHash": "0xcaefb79b2f5f57ac184579004cee69bbafc5f3d3fadaf234bea110fb23c21ebc",
          "blockNumber": "0x542be0",
          "gasUsed": "0x115b0",
          "effectiveGasPrice": "0xf4241",
          "from": "0xace07c3c1d3b556d42633211f0da71dc6f6d1c42",
          "to": "0xc7f2cf4845c6db0e1a1e91ed41bcd0fcc1b0e141",
          "contractAddress": null,
          "l1BaseFeeScalar": "0x558",
          "l1BlobBaseFee": "0x3ea98478c3db05",
          "l1BlobBaseFeeScalar": "0x0",
          "l1Fee": "0x119aa674",
          "l1GasPrice": "0x7f0b05a",
          "l1GasUsed": "0x654"
        }
      ],
      "libraries": [],
      "pending": [],
      "returns": {},
      "timestamp": 1768313260594,
      "chain": 4326,
      "commit": "051a329"
    },
    {
      "transactions": [
        {
          "hash": "0x484246c05ee0fdd9993ad8061f4596451b98a31f1bf7f8af80e6e822faa272ab",
          "transactionType": "CALL",
          "contractName": null,
          "contractAddress": "0xba5ed099633d3b313e4d5f7bdc1305d3c28ba5ed",
          "function": "deployCreate3(bytes32,bytes)",
          "arguments": [
            "0xace07c3c1d3b556d42633211f0da71dc6f6d1c4200000000deaddeaddeaddead",
            "0x60a034607457601f6102a638819003918201601f19168301916001600160401b03831184841017607857808492602094604052833981010312607457516001600160a01b03811690819003607457608052604051610219908161008d8239608051818181604f0152818160e101526101770152f35b5f80fd5b634e487b7160e01b5f52604160045260245ffdfe60806040526004361015610011575f80fd5b5f3560e01c80634411760a1461013c578063cf7a1d77146100825763f78a8a3e1461003a575f80fd5b3461007e575f36600319011261007e576040517f00000000000000000000000000000000000000000000000000000000000000006001600160a01b03168152602090f35b5f80fd5b3461007e57606036600319011261007e5761009b6101f6565b506100a46101b4565b506044356001600160401b03811161007e573660238201121561007e5760048101356001600160401b03811161007e573691016024011161007e577f00000000000000000000000000000000000000000000000000000000000000006001600160a01b0316330361012d57602060405173deaddeaddeaddeaddeaddeaddeaddeaddeaddead8152f35b633617fe5360e11b5f5260045ffd5b608036600319011261007e576004356001600160a01b0381160361007e576101626101b4565b5061016b6101ca565b506101746101e0565b507f00000000000000000000000000000000000000000000000000000000000000006001600160a01b0316330361012d5763051a2a5560e51b5f5260045ffd5b602435906001600160a01b038216820361007e57565b604435906001600160a01b038216820361007e57565b606435906001600160a01b038216820361007e57565b600435906001600160a01b038216820361007e5756fea164736f6c634300081a000a000000000000000000000000de3599a2ec440b296373a983c85c365da55d9dfa"
          ],
          "transaction": {
            "from": "0xace07c3c1d3b556d42633211f0da71dc6f6d1c42",
            "to": "0xba5ed099633d3b313e4d5f7bdc1305d3c28ba5ed",
            "value": "0x0",
            "input": "0x9c36a286ace07c3c1d3b556d42633211f0da71dc6f6d1c4200000000deaddeaddeaddead000000000000000000000000000000000000000000000000000000000000004000000000000000000000000000000000000000000000000000000000000002c660a034607457601f6102a638819003918201601f19168301916001600160401b03831184841017607857808492602094604052833981010312607457516001600160a01b03811690819003607457608052604051610219908161008d8239608051818181604f0152818160e101526101770152f35b5f80fd5b634e487b7160e01b5f52604160045260245ffdfe60806040526004361015610011575f80fd5b5f3560e01c80634411760a1461013c578063cf7a1d77146100825763f78a8a3e1461003a575f80fd5b3461007e575f36600319011261007e576040517f00000000000000000000000000000000000000000000000000000000000000006001600160a01b03168152602090f35b5f80fd5b3461007e57606036600319011261007e5761009b6101f6565b506100a46101b4565b506044356001600160401b03811161007e573660238201121561007e5760048101356001600160401b03811161007e573691016024011161007e577f00000000000000000000000000000000000000000000000000000000000000006001600160a01b0316330361012d57602060405173deaddeaddeaddeaddeaddeaddeaddeaddeaddead8152f35b633617fe5360e11b5f5260045ffd5b608036600319011261007e576004356001600160a01b0381160361007e576101626101b4565b5061016b6101ca565b506101746101e0565b507f00000000000000000000000000000000000000000000000000000000000000006001600160a01b0316330361012d5763051a2a5560e51b5f5260045ffd5b602435906001600160a01b038216820361007e57565b604435906001600160a01b038216820361007e57565b606435906001600160a01b038216820361007e57565b600435906001600160a01b038216820361007e5756fea164736f6c634300081a000a000000000000000000000000de3599a2ec440b296373a983c85c365da55d9dfa0000000000000000000000000000000000000000000000000000",
            "nonce": "0x13",
            "chainId": "0x18c7"
          },
          "additionalContracts": [],
          "isFixedGasLimit": false
        },
        {
          "hash": "0x7d1f23c4117c3f8840cc4563ebe3ad2591e5bf1e40731ab668b332ef16d7e71d",
          "transactionType": "CALL",
          "contractName": "StdConfig",
          "contractAddress": "0xc7f2cf4845c6db0e1a1e91ed41bcd0fcc1b0e141",
          "function": "set(string,address)",
          "arguments": [
            "no_op_migrator",
            "0x233A71A7bB928b1357A1Ebf454298320989Ca5B5"
          ],
          "transaction": {
            "from": "0xace07c3c1d3b556d42633211f0da71dc6f6d1c42",
            "to": "0xc7f2cf4845c6db0e1a1e91ed41bcd0fcc1b0e141",
            "value": "0x0",
            "input": "0xa815ff150000000000000000000000000000000000000000000000000000000000000040000000000000000000000000233a71a7bb928b1357a1ebf454298320989ca5b5000000000000000000000000000000000000000000000000000000000000000e6e6f5f6f705f6d69677261746f72000000000000000000000000000000000000",
            "nonce": "0x14",
            "chainId": "0x18c7"
          },
          "additionalContracts": [],
          "isFixedGasLimit": false
        }
      ],
      "receipts": [
        {
          "status": "0x1",
          "cumulativeGasUsed": "0xa9a097",
          "logs": [
            {
              "address": "0xba5ed099633d3b313e4d5f7bdc1305d3c28ba5ed",
              "topics": [
                "0x2feea65dd4e9f9cbd86b74b7734210c59a1b2981b5b137bd0ee3e208200c9067",
                "0x000000000000000000000000a2f8830c13eabd0d099b5b24ad865825b1542885",
                "0x19c9b7bca9fd6417767dba955fad50c823481521b71d9323205bf7c027cebdda"
              ],
              "data": "0x",
              "blockHash": "0x5d653eb28157d061c8a14f361ee140d449ea15fa8756b2e87dacff2edf51fdb9",
              "blockNumber": "0x8344bd",
              "blockTimestamp": "0x696651b5",
              "transactionHash": "0x484246c05ee0fdd9993ad8061f4596451b98a31f1bf7f8af80e6e822faa272ab",
              "transactionIndex": "0xa",
              "logIndex": "0x51",
              "removed": false
            },
            {
              "address": "0xba5ed099633d3b313e4d5f7bdc1305d3c28ba5ed",
              "topics": [
                "0x4db17dd5e4732fb6da34a148104a592783ca119a1e7bb8829eba6cbadef0b511",
                "0x000000000000000000000000233a71a7bb928b1357a1ebf454298320989ca5b5"
              ],
              "data": "0x",
              "blockHash": "0x5d653eb28157d061c8a14f361ee140d449ea15fa8756b2e87dacff2edf51fdb9",
              "blockNumber": "0x8344bd",
              "blockTimestamp": "0x696651b5",
              "transactionHash": "0x484246c05ee0fdd9993ad8061f4596451b98a31f1bf7f8af80e6e822faa272ab",
              "transactionIndex": "0xa",
              "logIndex": "0x52",
              "removed": false
            }
          ],
          "logsBloom": "0x00020000000000000000000000000000000000000000000000000002200000000000000000000000000000000010000000000000000004000000000000000000000000000000080000000000020000000000000000000000000000000000000000000000000000000000000000000000000000000020000000000000000000000000000000000000000000000000000000000000000000001000005000000000000000000000000000000000000000000000000000000000000000000000000000000000000000000200000000000000000000002000000000000000000000000000000000000600000008000000000000001000000000000000001000000000",
          "type": "0x2",
          "transactionHash": "0x484246c05ee0fdd9993ad8061f4596451b98a31f1bf7f8af80e6e822faa272ab",
          "transactionIndex": "0xa",
          "blockHash": "0x5d653eb28157d061c8a14f361ee140d449ea15fa8756b2e87dacff2edf51fdb9",
          "blockNumber": "0x8344bd",
          "gasUsed": "0x58e9e8",
          "effectiveGasPrice": "0x10c8e0",
          "from": "0xace07c3c1d3b556d42633211f0da71dc6f6d1c42",
          "to": "0xba5ed099633d3b313e4d5f7bdc1305d3c28ba5ed",
          "contractAddress": null,
          "l1BaseFeeScalar": "0x558",
          "l1BlobBaseFee": "0x149df5d921f68a01",
          "l1BlobBaseFeeScalar": "0x0",
          "l1Fee": "0x2cacb3e32",
          "l1GasPrice": "0x42f4127d",
          "l1GasUsed": "0x1e7c"
        },
        {
          "status": "0x1",
          "cumulativeGasUsed": "0x25cec4",
          "logs": [],
          "logsBloom": "0x00000000000000000000000000000000000000000000000000000000000000000000000000000000000000000000000000000000000000000000000000000000000000000000000000000000000000000000000000000000000000000000000000000000000000000000000000000000000000000000000000000000000000000000000000000000000000000000000000000000000000000000000000000000000000000000000000000000000000000000000000000000000000000000000000000000000000000000000000000000000000000000000000000000000000000000000000000000000000000000000000000000000000000000000000000000",
          "type": "0x2",
          "transactionHash": "0x7d1f23c4117c3f8840cc4563ebe3ad2591e5bf1e40731ab668b332ef16d7e71d",
          "transactionIndex": "0x5",
          "blockHash": "0xffffffffffffffffffffffffffffffffffffffffffffffffffffffffffffffff",
          "blockNumber": "0x8344bf",
          "gasUsed": "0x115b0",
          "effectiveGasPrice": "0x10c8e0",
          "from": "0xace07c3c1d3b556d42633211f0da71dc6f6d1c42",
          "to": "0xc7f2cf4845c6db0e1a1e91ed41bcd0fcc1b0e141",
          "contractAddress": null,
          "l1BaseFeeScalar": "0x558",
          "l1BlobBaseFee": "0x149df5d921f68a01",
          "l1BlobBaseFeeScalar": "0x0",
          "l1Fee": "0x981e84a2",
          "l1GasPrice": "0x42f4127d",
          "l1GasUsed": "0x67c"
        }
      ],
      "libraries": [],
      "pending": [],
      "returns": {},
      "timestamp": 1768313261626,
      "chain": 6343,
      "commit": "051a329"
    }
  ],
  "timestamp": 1768313270568
}