{
  "deployments": [
    {
      "transactions": [
        {
          "hash": "0xf2433fc6c439311f49e728aca9406c0f94eb10a16a3547012905971b2bb5b557",
          "transactionType": "CALL",
          "contractName": null,
          "contractAddress": "0xba5ed099633d3b313e4d5f7bdc1305d3c28ba5ed",
          "function": "deployCreate3(bytes32,bytes)",
          "arguments": [
            "0xace07c3c1d3b556d42633211f0da71dc6f6d1c4200000000deadb055deadb055",
            "0x6080806040523460135760c1908160188239f35b5f80fdfe60808060405260043610156011575f80fd5b5f3560e01c9081634e6fd6c414609c575063a3f697ba14602f575f80fd5b3460985760403660031901126098576004356001600160a01b038116036098576024356001600160401b0381116098573660238201121560985760048101356001600160401b038111609857369101602401116098576040805161dead815261dead6020820152f35b5f80fd5b346098575f3660031901126098578061dead60209252f3fea164736f6c634300081a000a"
          ],
          "transaction": {
            "from": "0xace07c3c1d3b556d42633211f0da71dc6f6d1c42",
            "to": "0xba5ed099633d3b313e4d5f7bdc1305d3c28ba5ed",
            "gas": "0x2d93b",
            "value": "0x0",
            "input": "0x9c36a286ace07c3c1d3b556d42633211f0da71dc6f6d1c4200000000deadb055deadb055000000000000000000000000000000000000000000000000000000000000004000000000000000000000000000000000000000000000000000000000000000d96080806040523460135760c1908160188239f35b5f80fdfe60808060405260043610156011575f80fd5b5f3560e01c9081634e6fd6c414609c575063a3f697ba14602f575f80fd5b3460985760403660031901126098576004356001600160a01b038116036098576024356001600160401b0381116098573660238201121560985760048101356001600160401b038111609857369101602401116098576040805161dead815261dead6020820152f35b5f80fd5b346098575f3660031901126098578061dead60209252f3fea164736f6c634300081a000a00000000000000",
            "nonce": "0x4",
            "chainId": "0x1"
          },
          "additionalContracts": [
            {
              "transactionType": "CREATE2",
              "contractName": null,
              "address": "0xd9fc1ddd70875fc9135bf7357b75ca8d942477fe",
              "initCode": "0x67363d3d37363d34f03d5260086018f3"
            },
            {
              "transactionType": "CREATE",
              "contractName": "NoOpGovernanceFactory",
              "address": "0xddae8b3ed08184682f7bc32b74d943ceefeab638",
              "initCode": "0x6080806040523460135760c1908160188239f35b5f80fdfe60808060405260043610156011575f80fd5b5f3560e01c9081634e6fd6c414609c575063a3f697ba14602f575f80fd5b3460985760403660031901126098576004356001600160a01b038116036098576024356001600160401b0381116098573660238201121560985760048101356001600160401b038111609857369101602401116098576040805161dead815261dead6020820152f35b5f80fd5b346098575f3660031901126098578061dead60209252f3fea164736f6c634300081a000a"
            }
          ],
          "isFixedGasLimit": false
        }
      ],
      "receipts": [
        {
          "status": "0x1",
          "cumulativeGasUsed": "0x26b622c",
          "logs": [
            {
              "address": "0xba5ed099633d3b313e4d5f7bdc1305d3c28ba5ed",
              "topics": [
                "0x2feea65dd4e9f9cbd86b74b7734210c59a1b2981b5b137bd0ee3e208200c9067",
                "0x000000000000000000000000d9fc1ddd70875fc9135bf7357b75ca8d942477fe",
                "0x36da5754437df0eb3f4b5a9981113826c686fb6af91d2242620eb06f30a053a8"
              ],
              "data": "0x",
              "blockHash": "0x65331e5a75812c13ccda94e3c1658bfb054aabc881bce3c5c399474fc9beffae",
              "blockNumber": "0x173474f",
              "blockTimestamp": "0x6979c6f7",
              "transactionHash": "0xf2433fc6c439311f49e728aca9406c0f94eb10a16a3547012905971b2bb5b557",
              "transactionIndex": "0x1eb",
              "logIndex": "0x37b",
              "removed": false
            },
            {
              "address": "0xba5ed099633d3b313e4d5f7bdc1305d3c28ba5ed",
              "topics": [
                "0x4db17dd5e4732fb6da34a148104a592783ca119a1e7bb8829eba6cbadef0b511",
                "0x000000000000000000000000ddae8b3ed08184682f7bc32b74d943ceefeab638"
              ],
              "data": "0x",
              "blockHash": "0x65331e5a75812c13ccda94e3c1658bfb054aabc881bce3c5c399474fc9beffae",
              "blockNumber": "0x173474f",
              "blockTimestamp": "0x6979c6f7",
              "transactionHash": "0xf2433fc6c439311f49e728aca9406c0f94eb10a16a3547012905971b2bb5b557",
              "transactionIndex": "0x1eb",
              "logIndex": "0x37c",
              "removed": false
            }
          ],
          "logsBloom": "0x00020000000000000000000000000000010000100000000000000000200000000000000000000000000000000000000000000000000004000000000000000000000000000000000000000000020000000000004000000000000000000000000000000000000000000000000000000000000000000020000000000000000400000000000000000000000000000020000000000000000000000000004000000000000000000000000000000000000000000000002000000000000004000000000000000000000000000200000000000000000000002000000000000000000000000000000000000200000000000000000000000000000000000042000000000000",
          "type": "0x2",
          "transactionHash": "0xf2433fc6c439311f49e728aca9406c0f94eb10a16a3547012905971b2bb5b557",
          "transactionIndex": "0x1eb",
          "blockHash": "0x65331e5a75812c13ccda94e3c1658bfb054aabc881bce3c5c399474fc9beffae",
          "blockNumber": "0x173474f",
          "gasUsed": "0x20ff4",
          "effectiveGasPrice": "0x68e1bfc",
          "from": "0xace07c3c1d3b556d42633211f0da71dc6f6d1c42",
          "to": "0xba5ed099633d3b313e4d5f7bdc1305d3c28ba5ed",
          "contractAddress": null
        }
      ],
      "libraries": [],
      "pending": [],
      "returns": {},
      "timestamp": 1769588460061,
      "chain": 1,
      "commit": "074a3b8"
    },
    {
      "transactions": [
        {
          "hash": "0x56e6363a7830bd9190075c532ce795986cb46262993dc0e77c806ece7c7724ec",
          "transactionType": "CALL",
          "contractName": null,
          "contractAddress": "0xba5ed099633d3b313e4d5f7bdc1305d3c28ba5ed",
          "function": "deployCreate3(bytes32,bytes)",
          "arguments": [
            "0xace07c3c1d3b556d42633211f0da71dc6f6d1c4200000000deadb055deadb055",
            "0x6080806040523460135760c1908160188239f35b5f80fdfe60808060405260043610156011575f80fd5b5f3560e01c9081634e6fd6c414609c575063a3f697ba14602f575f80fd5b3460985760403660031901126098576004356001600160a01b038116036098576024356001600160401b0381116098573660238201121560985760048101356001600160401b038111609857369101602401116098576040805161dead815261dead6020820152f35b5f80fd5b346098575f3660031901126098578061dead60209252f3fea164736f6c634300081a000a"
          ],
          "transaction": {
            "from": "0xace07c3c1d3b556d42633211f0da71dc6f6d1c42",
            "to": "0xba5ed099633d3b313e4d5f7bdc1305d3c28ba5ed",
            "gas": "0x2d93b",
            "value": "0x0",
            "input": "0x9c36a286ace07c3c1d3b556d42633211f0da71dc6f6d1c4200000000deadb055deadb055000000000000000000000000000000000000000000000000000000000000004000000000000000000000000000000000000000000000000000000000000000d96080806040523460135760c1908160188239f35b5f80fdfe60808060405260043610156011575f80fd5b5f3560e01c9081634e6fd6c414609c575063a3f697ba14602f575f80fd5b3460985760403660031901126098576004356001600160a01b038116036098576024356001600160401b0381116098573660238201121560985760048101356001600160401b038111609857369101602401116098576040805161dead815261dead6020820152f35b5f80fd5b346098575f3660031901126098578061dead60209252f3fea164736f6c634300081a000a00000000000000",
            "nonce": "0x7",
            "chainId": "0xaa36a7"
          },
          "additionalContracts": [
            {
              "transactionType": "CREATE2",
              "contractName": null,
              "address": "0xd9fc1ddd70875fc9135bf7357b75ca8d942477fe",
              "initCode": "0x67363d3d37363d34f03d5260086018f3"
            },
            {
              "transactionType": "CREATE",
              "contractName": "NoOpGovernanceFactory",
              "address": "0xddae8b3ed08184682f7bc32b74d943ceefeab638",
              "initCode": "0x6080806040523460135760c1908160188239f35b5f80fdfe60808060405260043610156011575f80fd5b5f3560e01c9081634e6fd6c414609c575063a3f697ba14602f575f80fd5b3460985760403660031901126098576004356001600160a01b038116036098576024356001600160401b0381116098573660238201121560985760048101356001600160401b038111609857369101602401116098576040805161dead815261dead6020820152f35b5f80fd5b346098575f3660031901126098578061dead60209252f3fea164736f6c634300081a000a"
            }
          ],
          "isFixedGasLimit": false
        }
      ],
      "receipts": [
        {
          "status": "0x1",
          "cumulativeGasUsed": "0x38815fd",
          "logs": [
            {
              "address": "0xba5ed099633d3b313e4d5f7bdc1305d3c28ba5ed",
              "topics": [
                "0x2feea65dd4e9f9cbd86b74b7734210c59a1b2981b5b137bd0ee3e208200c9067",
                "0x000000000000000000000000d9fc1ddd70875fc9135bf7357b75ca8d942477fe",
                "0x36da5754437df0eb3f4b5a9981113826c686fb6af91d2242620eb06f30a053a8"
              ],
              "data": "0x",
              "blockHash": "0xf9f0efc51314a2269594e3d6690d000160777cfbc29cba585e37df9e296b05f5",
              "blockNumber": "0x9aba2b",
              "blockTimestamp": "0x6979c704",
              "transactionHash": "0x56e6363a7830bd9190075c532ce795986cb46262993dc0e77c806ece7c7724ec",
              "transactionIndex": "0x38",
              "logIndex": "0x5d",
              "removed": false
            },
            {
              "address": "0xba5ed099633d3b313e4d5f7bdc1305d3c28ba5ed",
              "topics": [
                "0x4db17dd5e4732fb6da34a148104a592783ca119a1e7bb8829eba6cbadef0b511",
                "0x000000000000000000000000ddae8b3ed08184682f7bc32b74d943ceefeab638"
              ],
              "data": "0x",
              "blockHash": "0xf9f0efc51314a2269594e3d6690d000160777cfbc29cba585e37df9e296b05f5",
              "blockNumber": "0x9aba2b",
              "blockTimestamp": "0x6979c704",
              "transactionHash": "0x56e6363a7830bd9190075c532ce795986cb46262993dc0e77c806ece7c7724ec",
              "transactionIndex": "0x38",
              "logIndex": "0x5e",
              "removed": false
            }
          ],
          "logsBloom": "0x00020000000000000000000000000000010000100000000000000000200000000000000000000000000000000000000000000000000004000000000000000000000000000000000000000000020000000000004000000000000000000000000000000000000000000000000000000000000000000020000000000000000400000000000000000000000000000020000000000000000000000000004000000000000000000000000000000000000000000000002000000000000004000000000000000000000000000200000000000000000000002000000000000000000000000000000000000200000000000000000000000000000000000042000000000000",
          "type": "0x2",
          "transactionHash": "0x56e6363a7830bd9190075c532ce795986cb46262993dc0e77c806ece7c7724ec",
          "transactionIndex": "0x38",
          "blockHash": "0xf9f0efc51314a2269594e3d6690d000160777cfbc29cba585e37df9e296b05f5",
          "blockNumber": "0x9aba2b",
          "gasUsed": "0x20ff4",
          "effectiveGasPrice": "0x3b46b62b",
          "from": "0xace07c3c1d3b556d42633211f0da71dc6f6d1c42",
          "to": "0xba5ed099633d3b313e4d5f7bdc1305d3c28ba5ed",
          "contractAddress": null
        }
      ],
      "libraries": [],
      "pending": [],
      "returns": {},
      "timestamp": 1769588460672,
      "chain": 11155111,
      "commit": "074a3b8"
    }
  ],
  "timestamp": 1769588485050
}